{
  "_format": "hh-sol-artifact-1",
  "contractName": "MediChainCore",
  "sourceName": "contracts/MediChainCore.sol",
  "abi": [
    {
      "inputs": [
        {
          "internalType": "address",
          "name": "_roleManager",
          "type": "address"
        }
      ],
      "stateMutability": "nonpayable",
      "type": "constructor"
    },
    {
      "inputs": [],
      "name": "EnforcedPause",
      "type": "error"
    },
    {
      "inputs": [],
      "name": "ExpectedPause",
      "type": "error"
    },
    {
      "inputs": [
        {
          "internalType": "address",
          "name": "owner",
          "type": "address"
        }
      ],
      "name": "OwnableInvalidOwner",
      "type": "error"
    },
    {
      "inputs": [
        {
          "internalType": "address",
          "name": "account",
          "type": "address"
        }
      ],
      "name": "OwnableUnauthorizedAccount",
      "type": "error"
    },
    {
      "inputs": [],
      "name": "ReentrancyGuardReentrantCall",
      "type": "error"
    },
    {
      "anonymous": false,
      "inputs": [
        {
          "indexed": true,
          "internalType": "string",
          "name": "batchId",
          "type": "string"
        },
        {
          "indexed": true,
          "internalType": "address",
          "name": "pharmacy",
          "type": "address"
        },
        {
          "indexed": false,
          "internalType": "uint256",
          "name": "units",
          "type": "uint256"
        },
        {
          "indexed": false,
          "internalType": "uint256",
          "name": "timestamp",
          "type": "uint256"
        }
      ],
      "name": "BatchDispensed",
      "type": "event"
    },
    {
      "anonymous": false,
      "inputs": [
        {
          "indexed": true,
          "internalType": "string",
          "name": "batchId",
          "type": "string"
        },
        {
          "indexed": false,
          "internalType": "string",
          "name": "reason",
          "type": "string"
        },
        {
          "indexed": false,
          "internalType": "uint256",
          "name": "timestamp",
          "type": "uint256"
        }
      ],
      "name": "BatchRecalled",
      "type": "event"
    },
    {
      "anonymous": false,
      "inputs": [
        {
          "indexed": true,
          "internalType": "string",
          "name": "batchId",
          "type": "string"
        },
        {
          "indexed": true,
          "internalType": "address",
          "name": "manufacturer",
          "type": "address"
        },
        {
          "indexed": false,
          "internalType": "uint256",
          "name": "timestamp",
          "type": "uint256"
        }
      ],
      "name": "BatchRegistered",
      "type": "event"
    },
    {
      "anonymous": false,
      "inputs": [
        {
          "indexed": true,
          "internalType": "string",
          "name": "batchId",
          "type": "string"
        },
        {
          "indexed": true,
          "internalType": "address",
          "name": "from",
          "type": "address"
        },
        {
          "indexed": true,
          "internalType": "address",
          "name": "to",
          "type": "address"
        },
        {
          "indexed": false,
          "internalType": "string",
          "name": "role",
          "type": "string"
        },
        {
          "indexed": false,
          "internalType": "string",
          "name": "location",
          "type": "string"
        },
        {
          "indexed": false,
          "internalType": "string",
          "name": "notes",
          "type": "string"
        },
        {
          "indexed": false,
          "internalType": "enum IMediChain.BatchStatus",
          "name": "newStatus",
          "type": "uint8"
        }
      ],
      "name": "BatchTransferred",
      "type": "event"
    },
    {
      "anonymous": false,
      "inputs": [
        {
          "indexed": true,
          "internalType": "address",
          "name": "previousOwner",
          "type": "address"
        },
        {
          "indexed": true,
          "internalType": "address",
          "name": "newOwner",
          "type": "address"
        }
      ],
      "name": "OwnershipTransferred",
      "type": "event"
    },
    {
      "anonymous": false,
      "inputs": [
        {
          "indexed": false,
          "internalType": "address",
          "name": "account",
          "type": "address"
        }
      ],
      "name": "Paused",
      "type": "event"
    },
    {
      "anonymous": false,
      "inputs": [
        {
          "indexed": false,
          "internalType": "address",
          "name": "account",
          "type": "address"
        }
      ],
      "name": "Unpaused",
      "type": "event"
    },
    {
      "inputs": [
        {
          "internalType": "string",
          "name": "batchId",
          "type": "string"
        }
      ],
      "name": "batchExists",
      "outputs": [
        {
          "internalType": "bool",
          "name": "",
          "type": "bool"
        }
      ],
      "stateMutability": "view",
      "type": "function"
    },
    {
      "inputs": [
        {
          "internalType": "string",
          "name": "batchId",
          "type": "string"
        },
        {
          "internalType": "uint256",
          "name": "units",
          "type": "uint256"
        }
      ],
      "name": "dispenseUnits",
      "outputs": [],
      "stateMutability": "nonpayable",
      "type": "function"
    },
    {
      "inputs": [],
      "name": "getAllBatchIds",
      "outputs": [
        {
          "internalType": "string[]",
          "name": "",
          "type": "string[]"
        }
      ],
      "stateMutability": "view",
      "type": "function"
    },
    {
      "inputs": [
        {
          "internalType": "uint256",
          "name": "index",
          "type": "uint256"
        }
      ],
      "name": "getBatchIdAt",
      "outputs": [
        {
          "internalType": "string",
          "name": "",
          "type": "string"
        }
      ],
      "stateMutability": "view",
      "type": "function"
    },
    {
      "inputs": [
        {
          "internalType": "string",
          "name": "batchId",
          "type": "string"
        }
      ],
      "name": "getBatchOwner",
      "outputs": [
        {
          "internalType": "address",
          "name": "",
          "type": "address"
        }
      ],
      "stateMutability": "view",
      "type": "function"
    },
    {
      "inputs": [
        {
          "internalType": "string",
          "name": "batchId",
          "type": "string"
        }
      ],
      "name": "getRecallReason",
      "outputs": [
        {
          "internalType": "string",
          "name": "",
          "type": "string"
        }
      ],
      "stateMutability": "view",
      "type": "function"
    },
    {
      "inputs": [],
      "name": "getStats",
      "outputs": [
        {
          "internalType": "uint256",
          "name": "_totalBatches",
          "type": "uint256"
        },
        {
          "internalType": "uint256",
          "name": "_totalTransfers",
          "type": "uint256"
        },
        {
          "internalType": "uint256",
          "name": "_totalRecalls",
          "type": "uint256"
        }
      ],
      "stateMutability": "view",
      "type": "function"
    },
    {
      "inputs": [],
      "name": "getTotalBatches",
      "outputs": [
        {
          "internalType": "uint256",
          "name": "",
          "type": "uint256"
        }
      ],
      "stateMutability": "view",
      "type": "function"
    },
    {
      "inputs": [
        {
          "internalType": "string",
          "name": "batchId",
          "type": "string"
        }
      ],
      "name": "isBatchGenuine",
      "outputs": [
        {
          "internalType": "bool",
          "name": "genuine",
          "type": "bool"
        },
        {
          "internalType": "string",
          "name": "status",
          "type": "string"
        },
        {
          "internalType": "uint256",
          "name": "lastUpdated",
          "type": "uint256"
        }
      ],
      "stateMutability": "view",
      "type": "function"
    },
    {
      "inputs": [],
      "name": "owner",
      "outputs": [
        {
          "internalType": "address",
          "name": "",
          "type": "address"
        }
      ],
      "stateMutability": "view",
      "type": "function"
    },
    {
      "inputs": [],
      "name": "pause",
      "outputs": [],
      "stateMutability": "nonpayable",
      "type": "function"
    },
    {
      "inputs": [],
      "name": "paused",
      "outputs": [
        {
          "internalType": "bool",
          "name": "",
          "type": "bool"
        }
      ],
      "stateMutability": "view",
      "type": "function"
    },
    {
      "inputs": [
        {
          "internalType": "string",
          "name": "batchId",
          "type": "string"
        },
        {
          "internalType": "string",
          "name": "reason",
          "type": "string"
        }
      ],
      "name": "recallBatch",
      "outputs": [],
      "stateMutability": "nonpayable",
      "type": "function"
    },
    {
      "inputs": [
        {
          "internalType": "string",
          "name": "batchId",
          "type": "string"
        },
        {
          "internalType": "string",
          "name": "medicineName",
          "type": "string"
        },
        {
          "internalType": "string",
          "name": "manufacturer",
          "type": "string"
        },
        {
          "internalType": "uint256",
          "name": "expiryDate",
          "type": "uint256"
        },
        {
          "internalType": "uint256",
          "name": "quantity",
          "type": "uint256"
        },
        {
          "internalType": "string",
          "name": "ipfsHash",
          "type": "string"
        }
      ],
      "name": "registerBatch",
      "outputs": [],
      "stateMutability": "nonpayable",
      "type": "function"
    },
    {
      "inputs": [],
      "name": "renounceOwnership",
      "outputs": [],
      "stateMutability": "nonpayable",
      "type": "function"
    },
    {
      "inputs": [],
      "name": "roleManager",
      "outputs": [
        {
          "internalType": "contract RoleManager",
          "name": "",
          "type": "address"
        }
      ],
      "stateMutability": "view",
      "type": "function"
    },
    {
      "inputs": [],
      "name": "totalBatches",
      "outputs": [
        {
          "internalType": "uint256",
          "name": "",
          "type": "uint256"
        }
      ],
      "stateMutability": "view",
      "type": "function"
    },
    {
      "inputs": [],
      "name": "totalRecalls",
      "outputs": [
        {
          "internalType": "uint256",
          "name": "",
          "type": "uint256"
        }
      ],
      "stateMutability": "view",
      "type": "function"
    },
    {
      "inputs": [],
      "name": "totalTransfers",
      "outputs": [
        {
          "internalType": "uint256",
          "name": "",
          "type": "uint256"
        }
      ],
      "stateMutability": "view",
      "type": "function"
    },
    {
      "inputs": [
        {
          "internalType": "address",
          "name": "newOwner",
          "type": "address"
        }
      ],
      "name": "transferOwnership",
      "outputs": [],
      "stateMutability": "nonpayable",
      "type": "function"
    },
    {
      "inputs": [
        {
          "internalType": "string",
          "name": "batchId",
          "type": "string"
        },
        {
          "internalType": "address",
          "name": "distributor",
          "type": "address"
        },
        {
          "internalType": "string",
          "name": "location",
          "type": "string"
        },
        {
          "internalType": "string",
          "name": "notes",
          "type": "string"
        }
      ],
      "name": "transferToDistributor",
      "outputs": [],
      "stateMutability": "nonpayable",
      "type": "function"
    },
    {
      "inputs": [
        {
          "internalType": "string",
          "name": "batchId",
          "type": "string"
        },
        {
          "internalType": "address",
          "name": "pharmacy",
          "type": "address"
        },
        {
          "internalType": "string",
          "name": "location",
          "type": "string"
        },
        {
          "internalType": "string",
          "name": "notes",
          "type": "string"
        }
      ],
      "name": "transferToPharmacy",
      "outputs": [],
      "stateMutability": "nonpayable",
      "type": "function"
    },
    {
      "inputs": [],
      "name": "unpause",
      "outputs": [],
      "stateMutability": "nonpayable",
      "type": "function"
    },
    {
      "inputs": [
        {
          "internalType": "string",
          "name": "batchId",
          "type": "string"
        }
      ],
      "name": "verifyBatch",
      "outputs": [
        {
          "components": [
            {
              "internalType": "string",
              "name": "batchId",
              "type": "string"
            },
            {
              "internalType": "string",
              "name": "medicineName",
              "type": "string"
            },
            {
              "internalType": "string",
              "name": "manufacturer",
              "type": "string"
            },
            {
              "internalType": "address",
              "name": "manufacturerAddr",
              "type": "address"
            },
            {
              "internalType": "uint256",
              "name": "manufactureDate",
              "type": "uint256"
            },
            {
              "internalType": "uint256",
              "name": "expiryDate",
              "type": "uint256"
            },
            {
              "internalType": "uint256",
              "name": "quantity",
              "type": "uint256"
            },
            {
              "internalType": "uint256",
              "name": "dispensedCount",
              "type": "uint256"
            },
            {
              "internalType": "string",
              "name": "ipfsHash",
              "type": "string"
            },
            {
              "internalType": "enum IMediChain.BatchStatus",
              "name": "status",
              "type": "uint8"
            },
            {
              "internalType": "bool",
              "name": "exists",
              "type": "bool"
            }
          ],
          "internalType": "struct IMediChain.MedicineBatch",
          "name": "batch",
          "type": "tuple"
        }
      ],
      "stateMutability": "view",
      "type": "function"
    }
  ],
  "bytecode": "0x60a06040523480156200001157600080fd5b506040516200305238038062003052833981016040819052620000349162000146565b33806200005c57604051631e4fbdf760e01b8152600060048201526024015b60405180910390fd5b6200006781620000f6565b5060017f9b779b17422d0df92223018b32b4d1fa46e071723d6817e2486d003becc55f00556001600160a01b038116620000e45760405162461bcd60e51b815260206004820152601760248201527f4d656469436861696e3a207a65726f2061646472657373000000000000000000604482015260640162000053565b6001600160a01b031660805262000178565b600080546001600160a01b038381166001600160a01b0319831681178455604051919092169283917f8be0079c531659141344cd1fd0a4f28419497f9722a3daafe3b4186f6b6457e09190a35050565b6000602082840312156200015957600080fd5b81516001600160a01b03811681146200017157600080fd5b9392505050565b608051612e78620001da60003960008181610161015281816103620152818161039101528181610694015281816106c30152818161100b0152818161103a01528181611474015281816114a30152818161181e015261184d0152612e786000f3fe608060405234801561001057600080fd5b50600436106101575760003560e01c80637ef0a667116100c3578063c3c8529d1161007c578063c3c8529d146102db578063c59d4847146102ee578063e561dddc14610312578063e79039881461031a578063e906dc421461032d578063f2fde38b1461034d57600080fd5b80637ef0a667146102675780638456cb59146102875780638a1ce9661461028f5780638da5cb5b146102a25780639ecf3007146102b3578063bce06947146102c657600080fd5b80633bf47720116101155780633bf47720146102105780633f4ba83a146102275780635c975abb1461022f57806369ff6abb1461024d5780636cc3c9ac14610256578063715018a61461025f57600080fd5b8062435da51461015c578063043b62ec146101a057806306ef6d2e146101b55780630ec13f3b146101c8578063123ecac8146101ea5780631ac7fbd7146101fd575b600080fd5b6101837f000000000000000000000000000000000000000000000000000000000000000081565b6040516001600160a01b0390911681526020015b60405180910390f35b6101b36101ae36600461241d565b610360565b005b6101b36101c33660046124b6565b610692565b6101db6101d6366004612575565b610aa8565b60405161019793929190612602565b6101b36101f836600461262d565b611009565b6101b361020b36600461241d565b611472565b61021960065481565b604051908152602001610197565b6101b3611738565b600054600160a01b900460ff165b6040519015158152602001610197565b61021960055481565b61021960075481565b6101b361174a565b61027a610275366004612575565b61175c565b6040516101979190612691565b6101b361180c565b6101b361029d3660046126ab565b61181c565b6000546001600160a01b0316610183565b61027a6102c13660046126f0565b611bbd565b6102ce611c39565b6040516101979190612709565b6101836102e9366004612575565b611d12565b60055460065460075460408051938452602084019290925290820152606001610197565b600554610219565b61023d610328366004612575565b611d43565b61034061033b366004612575565b611d77565b60405161019791906127a3565b6101b361035b366004612890565b6120f6565b7f00000000000000000000000000000000000000000000000000000000000000006001600160a01b03166391d148547f00000000000000000000000000000000000000000000000000000000000000006001600160a01b031663f0bd87cc6040518163ffffffff1660e01b8152600401602060405180830381865afa1580156103ed573d6000803e3d6000fd5b505050506040513d601f19601f8201168201806040525081019061041191906128ab565b6040516001600160e01b031960e084901b1681526004810191909152336024820152604401602060405180830381865afa158015610453573d6000803e3d6000fd5b505050506040513d601f19601f8201168201806040525081019061047791906128c4565b6104d75760405162461bcd60e51b815260206004820152602660248201527f4d656469436861696e3a2063616c6c6572206973206e6f74206120646973747260448201526534b13aba37b960d11b60648201526084015b60405180910390fd5b6104df612134565b6104e761215f565b836001816040516104f891906128e6565b9081526040519081900360200190206009015460ff610100909104166105305760405162461bcd60e51b81526004016104ce90612902565b84600460018260405161054391906128e6565b9081526040519081900360200190206009015460ff16600481111561056a5761056a61276b565b036105875760405162461bcd60e51b81526004016104ce90612939565b600260018760405161059991906128e6565b908152604051908190036020019020600901805460ff191660018360048111156105c5576105c561276b565b0217905550846002876040516105db91906128e6565b90815260405190819003602001902080546001600160a01b03929092166001600160a01b03199092169190911790556006805490600061061a83612991565b9190505550846001600160a01b0316336001600160a01b03168760405161064191906128e6565b6040518091039020600080516020612e038339815191528787600260405161066b939291906129aa565b60405180910390a4505061068c6001600080516020612e2383398151915255565b50505050565b7f00000000000000000000000000000000000000000000000000000000000000006001600160a01b03166391d148547f00000000000000000000000000000000000000000000000000000000000000006001600160a01b031663965288b06040518163ffffffff1660e01b8152600401602060405180830381865afa15801561071f573d6000803e3d6000fd5b505050506040513d601f19601f8201168201806040525081019061074391906128ab565b6040516001600160e01b031960e084901b1681526004810191909152336024820152604401602060405180830381865afa158015610785573d6000803e3d6000fd5b505050506040513d601f19601f820116820180604052508101906107a991906128c4565b6107c55760405162461bcd60e51b81526004016104ce90612a01565b6107cd612134565b6107d561215f565b6000429050604051806101600160405280888152602001878152602001868152602001336001600160a01b0316815260200182815260200185815260200184815260200160008152602001838152602001600060048111156108395761083961276b565b815260016020909101819052604051610853908a906128e6565b908152604051908190036020019020815181906108709082612acd565b50602082015160018201906108859082612acd565b506040820151600282019061089a9082612acd565b5060608201516003820180546001600160a01b0319166001600160a01b039092169190911790556080820151600482015560a0820151600582015560c0820151600682015560e0820151600782015561010082015160088201906108fe9082612acd565b5061012082015160098201805460ff191660018360048111156109235761092361276b565b02179055506101408201518160090160016101000a81548160ff0219169083151502179055509050503360028860405161095d91906128e6565b90815260405190819003602001902080546001600160a01b03929092166001600160a01b0319909216919091179055600480546001810182556000919091527f8a35acfbc15ff81a39ae7d344fd709f28e8600b4aa8c65c6b64bfe7fe36bd19b016109c88882612acd565b50600580549060006109d983612991565b909155505060405133906109ee9089906128e6565b604051908190038120428252907f596909e876e32edb0c6f53eafd21a29b46d021a679fa51151ed317272b00976f9060200160405180910390a36040513390600090610a3b908a906128e6565b6040518091039020600080516020612e0383398151915288604051602001610a639190612b8d565b60408051601f1981840301815290829052610a8091600090612bc9565b60405180910390a450610aa06001600080516020612e2383398151915255565b505050505050565b600060606000600184604051610abe91906128e6565b9081526040519081900360200190206009015460ff61010090910416610b0a5750506040805180820190915260098152681393d517d193d5539160ba1b60208201526000915042611002565b6000600185604051610b1c91906128e6565b908152602001604051809103902060405180610160016040529081600082018054610b4690612a48565b80601f0160208091040260200160405190810160405280929190818152602001828054610b7290612a48565b8015610bbf5780601f10610b9457610100808354040283529160200191610bbf565b820191906000526020600020905b815481529060010190602001808311610ba257829003601f168201915b50505050508152602001600182018054610bd890612a48565b80601f0160208091040260200160405190810160405280929190818152602001828054610c0490612a48565b8015610c515780601f10610c2657610100808354040283529160200191610c51565b820191906000526020600020905b815481529060010190602001808311610c3457829003601f168201915b50505050508152602001600282018054610c6a90612a48565b80601f0160208091040260200160405190810160405280929190818152602001828054610c9690612a48565b8015610ce35780601f10610cb857610100808354040283529160200191610ce3565b820191906000526020600020905b815481529060010190602001808311610cc657829003601f168201915b505050918352505060038201546001600160a01b03166020820152600482015460408201526005820154606082015260068201546080820152600782015460a082015260088201805460c090920191610d3b90612a48565b80601f0160208091040260200160405190810160405280929190818152602001828054610d6790612a48565b8015610db45780601f10610d8957610100808354040283529160200191610db4565b820191906000526020600020905b815481529060010190602001808311610d9757829003601f168201915b5050509183525050600982015460209091019060ff166004811115610ddb57610ddb61276b565b6004811115610dec57610dec61276b565b815260099190910154610100900460ff161515602090910152905060048161012001516004811115610e2057610e2061276b565b03610e52575050604080518082019091526008815267149150d05313115160c21b602082015260009250905042611002565b428160a001511015610e8a5750506040805180820190915260078152661156141254915160ca1b602082015260009250905042611002565b606060008261012001516004811115610ea557610ea561276b565b03610ed3575060408051808201909152600c81526b13505395519050d51554915160a21b6020820152610ff7565b60018261012001516004811115610eec57610eec61276b565b03610f18575060408051808201909152600a815269125397d514905394d25560b21b6020820152610ff7565b60028261012001516004811115610f3157610f3161276b565b03610f985760e082015115610f70575060408051808201909152601381527214105495125053131657d11254d4115394d151606a1b6020820152610ff7565b5060408051808201909152600b81526a41545f504841524d41435960a81b6020820152610ff7565b60038261012001516004811115610fb157610fb161276b565b03610fd7575060408051808201909152600481526314d3d31160e21b6020820152610ff7565b506040805180820190915260078152662aa725a727aba760c91b60208201525b600194509250429150505b9193909250565b7f00000000000000000000000000000000000000000000000000000000000000006001600160a01b03166391d148547f00000000000000000000000000000000000000000000000000000000000000006001600160a01b031663965288b06040518163ffffffff1660e01b8152600401602060405180830381865afa158015611096573d6000803e3d6000fd5b505050506040513d601f19601f820116820180604052508101906110ba91906128ab565b6040516001600160e01b031960e084901b1681526004810191909152336024820152604401602060405180830381865afa1580156110fc573d6000803e3d6000fd5b505050506040513d601f19601f8201168201806040525081019061112091906128c4565b61113c5760405162461bcd60e51b81526004016104ce90612a01565b611144612134565b61114c61215f565b8160018160405161115d91906128e6565b9081526040519081900360200190206009015460ff610100909104166111955760405162461bcd60e51b81526004016104ce90612902565b336001600160a01b03166001846040516111af91906128e6565b908152604051908190036020019020600301546001600160a01b0316146112315760405162461bcd60e51b815260206004820152603060248201527f4d656469436861696e3a206f6e6c79206f726967696e616c206d616e7566616360448201526f1d1d5c995c8818d85b881c9958d85b1b60821b60648201526084016104ce565b600460018460405161124391906128e6565b9081526040519081900360200190206009015460ff16600481111561126a5761126a61276b565b036112c15760405162461bcd60e51b815260206004820152602160248201527f4d656469436861696e3a20626174636820616c726561647920726563616c6c656044820152601960fa1b60648201526084016104ce565b60008251116113235760405162461bcd60e51b815260206004820152602860248201527f4d656469436861696e3a20726563616c6c20726561736f6e2063616e6e6f7420604482015267626520656d70747960c01b60648201526084016104ce565b600460018460405161133591906128e6565b908152604051908190036020019020600901805460ff191660018360048111156113615761136161276b565b02179055508160038460405161137791906128e6565b908152602001604051809103902090816113919190612acd565b50600780549060006113a283612991565b9190505550826040516113b591906128e6565b60405180910390207f7b3ba29a5ffce3410914dca71f17fd057b35ab7047d06dd028bdd7659d929f6583426040516113ee929190612c48565b60405180910390a260405160009033906114099086906128e6565b6040518091039020600080516020612e03833981519152856040516020016114319190612c6a565b60408051601f198184030181529082905261144e91600490612c9c565b60405180910390a45061146e6001600080516020612e2383398151915255565b5050565b7f00000000000000000000000000000000000000000000000000000000000000006001600160a01b03166391d148547f00000000000000000000000000000000000000000000000000000000000000006001600160a01b031663965288b06040518163ffffffff1660e01b8152600401602060405180830381865afa1580156114ff573d6000803e3d6000fd5b505050506040513d601f19601f8201168201806040525081019061152391906128ab565b6040516001600160e01b031960e084901b1681526004810191909152336024820152604401602060405180830381865afa158015611565573d6000803e3d6000fd5b505050506040513d601f19601f8201168201806040525081019061158991906128c4565b6115a55760405162461bcd60e51b81526004016104ce90612a01565b6115ad612134565b6115b561215f565b836001816040516115c691906128e6565b9081526040519081900360200190206009015460ff610100909104166115fe5760405162461bcd60e51b81526004016104ce90612902565b84600460018260405161161191906128e6565b9081526040519081900360200190206009015460ff1660048111156116385761163861276b565b036116555760405162461bcd60e51b81526004016104ce90612939565b6001808760405161166691906128e6565b908152604051908190036020019020600901805460ff191660018360048111156116925761169261276b565b0217905550846002876040516116a891906128e6565b90815260405190819003602001902080546001600160a01b03929092166001600160a01b0319909216919091179055600680549060006116e783612991565b9190505550846001600160a01b0316336001600160a01b03168760405161170e91906128e6565b6040518091039020600080516020612e038339815191528787600160405161066b93929190612cf8565b61174061217b565b6117486121a8565b565b61175261217b565b61174860006121fd565b606060038260405161176e91906128e6565b9081526020016040518091039020805461178790612a48565b80601f01602080910402602001604051908101604052809291908181526020018280546117b390612a48565b80156118005780601f106117d557610100808354040283529160200191611800565b820191906000526020600020905b8154815290600101906020018083116117e357829003601f168201915b50505050509050919050565b61181461217b565b61174861224d565b7f00000000000000000000000000000000000000000000000000000000000000006001600160a01b03166391d148547f00000000000000000000000000000000000000000000000000000000000000006001600160a01b031663f0c58ea76040518163ffffffff1660e01b8152600401602060405180830381865afa1580156118a9573d6000803e3d6000fd5b505050506040513d601f19601f820116820180604052508101906118cd91906128ab565b6040516001600160e01b031960e084901b1681526004810191909152336024820152604401602060405180830381865afa15801561190f573d6000803e3d6000fd5b505050506040513d601f19601f8201168201806040525081019061193391906128c4565b61198b5760405162461bcd60e51b815260206004820152602360248201527f4d656469436861696e3a2063616c6c6572206973206e6f74206120706861726d60448201526261637960e81b60648201526084016104ce565b611993612134565b61199b61215f565b816001816040516119ac91906128e6565b9081526040519081900360200190206009015460ff610100909104166119e45760405162461bcd60e51b81526004016104ce90612902565b8260046001826040516119f791906128e6565b9081526040519081900360200190206009015460ff166004811115611a1e57611a1e61276b565b03611a3b5760405162461bcd60e51b81526004016104ce90612939565b82600185604051611a4c91906128e6565b90815260200160405180910390206007016000828254611a6c9190612d4a565b9091555050604051600190611a829086906128e6565b908152602001604051809103902060060154600185604051611aa491906128e6565b90815260200160405180910390206007015403611b40576003600185604051611acd91906128e6565b908152604051908190036020019020600901805460ff19166001836004811115611af957611af961276b565b02179055506040516000903390611b119087906128e6565b6040518091039020600080516020612e038339815191526003604051611b379190612d63565b60405180910390a45b60068054906000611b5083612991565b90915550506040513390611b659086906128e6565b60408051918290038220868352426020840152917f6d020392fd04dfed6c8228580308d436bfe0ed4def417b4f0678716450e494b9910160405180910390a3505061146e6001600080516020612e2383398151915255565b6004546060908210611c115760405162461bcd60e51b815260206004820152601e60248201527f4d656469436861696e3a20696e646578206f7574206f6620626f756e6473000060448201526064016104ce565b60048281548110611c2457611c24612dec565b90600052602060002001805461178790612a48565b60606004805480602002602001604051908101604052809291908181526020016000905b82821015611d09578382906000526020600020018054611c7c90612a48565b80601f0160208091040260200160405190810160405280929190818152602001828054611ca890612a48565b8015611cf55780601f10611cca57610100808354040283529160200191611cf5565b820191906000526020600020905b815481529060010190602001808311611cd857829003601f168201915b505050505081526020019060010190611c5d565b50505050905090565b6000600282604051611d2491906128e6565b908152604051908190036020019020546001600160a01b031692915050565b6000600182604051611d5591906128e6565b9081526040519081900360200190206009015460ff6101009091041692915050565b611d7f6122ea565b600182604051611d8f91906128e6565b9081526040519081900360200190206009015460ff61010090910416611df75760405162461bcd60e51b815260206004820152601a60248201527f4d656469436861696e3a206261746368206e6f7420666f756e6400000000000060448201526064016104ce565b600182604051611e0791906128e6565b908152602001604051809103902060405180610160016040529081600082018054611e3190612a48565b80601f0160208091040260200160405190810160405280929190818152602001828054611e5d90612a48565b8015611eaa5780601f10611e7f57610100808354040283529160200191611eaa565b820191906000526020600020905b815481529060010190602001808311611e8d57829003601f168201915b50505050508152602001600182018054611ec390612a48565b80601f0160208091040260200160405190810160405280929190818152602001828054611eef90612a48565b8015611f3c5780601f10611f1157610100808354040283529160200191611f3c565b820191906000526020600020905b815481529060010190602001808311611f1f57829003601f168201915b50505050508152602001600282018054611f5590612a48565b80601f0160208091040260200160405190810160405280929190818152602001828054611f8190612a48565b8015611fce5780601f10611fa357610100808354040283529160200191611fce565b820191906000526020600020905b815481529060010190602001808311611fb157829003601f168201915b505050918352505060038201546001600160a01b03166020820152600482015460408201526005820154606082015260068201546080820152600782015460a082015260088201805460c09092019161202690612a48565b80601f016020809104026020016040519081016040528092919081815260200182805461205290612a48565b801561209f5780601f106120745761010080835404028352916020019161209f565b820191906000526020600020905b81548152906001019060200180831161208257829003601f168201915b5050509183525050600982015460209091019060ff1660048111156120c6576120c661276b565b60048111156120d7576120d761276b565b815260099190910154610100900460ff16151560209091015292915050565b6120fe61217b565b6001600160a01b03811661212857604051631e4fbdf760e01b8152600060048201526024016104ce565b612131816121fd565b50565b600054600160a01b900460ff16156117485760405163d93c066560e01b815260040160405180910390fd5b612167612290565b6002600080516020612e2383398151915255565b6000546001600160a01b031633146117485760405163118cdaa760e01b81523360048201526024016104ce565b6121b06122c0565b6000805460ff60a01b191690557f5db9ee0a495bf2e6ff9c91a7834c1ba4fdd244a5e8aa4e537bd38aeae4b073aa335b6040516001600160a01b03909116815260200160405180910390a1565b600080546001600160a01b038381166001600160a01b0319831681178455604051919092169283917f8be0079c531659141344cd1fd0a4f28419497f9722a3daafe3b4186f6b6457e09190a35050565b612255612134565b6000805460ff60a01b1916600160a01b1790557f62e78cea01bee320cd4e420270b5ea74000d11b0c9f74754ebdbfc544b05a2586121e03390565b600080516020612e238339815191525460020361174857604051633ee5aeb560e01b815260040160405180910390fd5b600054600160a01b900460ff1661174857604051638dfc202b60e01b815260040160405180910390fd5b60405180610160016040528060608152602001606081526020016060815260200160006001600160a01b031681526020016000815260200160008152602001600081526020016000815260200160608152602001600060048111156123515761235161276b565b8152600060209091015290565b634e487b7160e01b600052604160045260246000fd5b600082601f83011261238557600080fd5b813567ffffffffffffffff808211156123a0576123a061235e565b604051601f8301601f19908116603f011681019082821181831017156123c8576123c861235e565b816040528381528660208588010111156123e157600080fd5b836020870160208301376000602085830101528094505050505092915050565b80356001600160a01b038116811461241857600080fd5b919050565b6000806000806080858703121561243357600080fd5b843567ffffffffffffffff8082111561244b57600080fd5b61245788838901612374565b955061246560208801612401565b9450604087013591508082111561247b57600080fd5b61248788838901612374565b9350606087013591508082111561249d57600080fd5b506124aa87828801612374565b91505092959194509250565b60008060008060008060c087890312156124cf57600080fd5b863567ffffffffffffffff808211156124e757600080fd5b6124f38a838b01612374565b9750602089013591508082111561250957600080fd5b6125158a838b01612374565b9650604089013591508082111561252b57600080fd5b6125378a838b01612374565b9550606089013594506080890135935060a089013591508082111561255b57600080fd5b5061256889828a01612374565b9150509295509295509295565b60006020828403121561258757600080fd5b813567ffffffffffffffff81111561259e57600080fd5b6125aa84828501612374565b949350505050565b60005b838110156125cd5781810151838201526020016125b5565b50506000910152565b600081518084526125ee8160208601602086016125b2565b601f01601f19169290920160200192915050565b831515815260606020820152600061261d60608301856125d6565b9050826040830152949350505050565b6000806040838503121561264057600080fd5b823567ffffffffffffffff8082111561265857600080fd5b61266486838701612374565b9350602085013591508082111561267a57600080fd5b5061268785828601612374565b9150509250929050565b6020815260006126a460208301846125d6565b9392505050565b600080604083850312156126be57600080fd5b823567ffffffffffffffff8111156126d557600080fd5b6126e185828601612374565b95602094909401359450505050565b60006020828403121561270257600080fd5b5035919050565b6000602080830181845280855180835260408601915060408160051b870101925083870160005b8281101561275e57603f1988860301845261274c8583516125d6565b94509285019290850190600101612730565b5092979650505050505050565b634e487b7160e01b600052602160045260246000fd5b6005811061279f57634e487b7160e01b600052602160045260246000fd5b9052565b60208152600082516101608060208501526127c26101808501836125d6565b91506020850151601f19808685030160408701526127e084836125d6565b935060408701519150808685030160608701526127fd84836125d6565b93506060870151915061281b60808701836001600160a01b03169052565b608087015160a087015260a087015160c087015260c087015160e087015260e0870151915061010082818801528088015192505061012081878603018188015261286585846125d6565b9450808801519250505061014061287e81870183612781565b90950151151593019290925250919050565b6000602082840312156128a257600080fd5b6126a482612401565b6000602082840312156128bd57600080fd5b5051919050565b6000602082840312156128d657600080fd5b815180151581146126a457600080fd5b600082516128f88184602087016125b2565b9190910192915050565b6020808252601f908201527f4d656469436861696e3a20626174636820646f6573206e6f7420657869737400604082015260600190565b60208082526022908201527f4d656469436861696e3a20626174636820686173206265656e20726563616c6c604082015261195960f21b606082015260800190565b634e487b7160e01b600052601160045260246000fd5b6000600182016129a3576129a361297b565b5060010190565b60808152600b60808201526a2224a9aa2924a12aaa27a960a91b60a082015260c0602082015260006129df60c08301866125d6565b82810360408401526129f181866125d6565b9150506125aa6060830184612781565b60208082526027908201527f4d656469436861696e3a2063616c6c6572206973206e6f742061206d616e756660408201526630b1ba3ab932b960c91b606082015260800190565b600181811c90821680612a5c57607f821691505b602082108103612a7c57634e487b7160e01b600052602260045260246000fd5b50919050565b601f821115612ac857600081815260208120601f850160051c81016020861015612aa95750805b601f850160051c820191505b81811015610aa057828155600101612ab5565b505050565b815167ffffffffffffffff811115612ae757612ae761235e565b612afb81612af58454612a48565b84612a82565b602080601f831160018114612b305760008415612b185750858301515b600019600386901b1c1916600185901b178555610aa0565b600085815260208120601f198616915b82811015612b5f57888601518255948401946001909101908401612b40565b5085821015612b7d5787850151600019600388901b60f8161c191681555b5050505050600190811b01905550565b7302130ba31b4103932b3b4b9ba32b932b210313c960651b815260008251612bbc8160148501602087016125b2565b9190910160140192915050565b608081526000612bf560808301600c81526b26a0a72aa320a1aa2aa922a960a11b602082015260400190565b82810380602085015260168252754d616e75666163747572696e6720466163696c69747960501b602083015260408101604085015250612c3860408201866125d6565b9150506126a46060830184612781565b604081526000612c5b60408301856125d6565b90508260208301529392505050565b6902922a1a0a62622a21d160b51b815260008251612c8f81600a8501602087016125b2565b91909101600a0192915050565b608081526000612cc860808301600c81526b26a0a72aa320a1aa2aa922a960a11b602082015260400190565b82810380602085015260038252624e2f4160e81b602083015260408101604085015250612c3860408201866125d6565b608081526000612d2460808301600c81526b26a0a72aa320a1aa2aa922a960a11b602082015260400190565b8281036020840152612d3681876125d6565b905082810360408401526129f181866125d6565b80820180821115612d5d57612d5d61297b565b92915050565b608081526008608082015267504841524d41435960c01b60a082015260c06020820152601060c08201526f283430b936b0b1bc9021b7bab73a32b960811b60e082015260006101008060408401526016818401525075115b9d1a5c994810985d18da08111a5cdc195b9cd95960521b61012083015261014082019050612d5d6060830184612781565b634e487b7160e01b600052603260045260246000fdfe15c7a9ae07d1efb9a8f65dfd7ea28349866cb92b11e2a84b603d025aa9ad63d39b779b17422d0df92223018b32b4d1fa46e071723d6817e2486d003becc55f00a2646970667358221220128abeea11f32dcba194eb7a928d5e906388c117944a8152b219dfee0ede5ed564736f6c63430008140033",
  "linkReferences": {},
  "deployedLinkReferences": {}
}