{"contracts/MediChainCore.sol":{"MediChainCore":{"abi":[{"inputs":[{"internalType":"address","name":"_roleManager","type":"address"}],"stateMutability":"nonpayable","type":"constructor"},{"inputs":[],"name":"EnforcedPause","type":"error"},{"inputs":[],"name":"ExpectedPause","type":"error"},{"inputs":[{"internalType":"address","name":"owner","type":"address"}],"name":"OwnableInvalidOwner","type":"error"},{"inputs":[{"internalType":"address","name":"account","type":"address"}],"name":"OwnableUnauthorizedAccount","type":"error"},{"inputs":[],"name":"ReentrancyGuardReentrantCall","type":"error"},{"anonymous":false,"inputs":[{"indexed":true,"internalType":"string","name":"batchId","type":"string"},{"indexed":false,"internalType":"string","name":"reason","type":"string"},{"indexed":false,"internalType":"uint256","name":"timestamp","type":"uint256"}],"name":"BatchRecalled","type":"event"},{"anonymous":false,"inputs":[{"indexed":true,"internalType":"string","name":"batchId","type":"string"},{"indexed":true,"internalType":"address","name":"manufacturer","type":"address"},{"indexed":false,"internalType":"uint256","name":"timestamp","type":"uint256"}],"name":"BatchRegistered","type":"event"},{"anonymous":false,"inputs":[{"indexed":true,"internalType":"string","name":"batchId","type":"string"},{"indexed":true,"internalType":"address","name":"pharmacy","type":"address"},{"indexed":false,"internalType":"uint256","name":"timestamp","type":"uint256"}],"name":"BatchSold","type":"event"},{"anonymous":false,"inputs":[{"indexed":true,"internalType":"string","name":"batchId","type":"string"},{"indexed":true,"internalType":"address","name":"from","type":"address"},{"indexed":true,"internalType":"address","name":"to","type":"address"},{"indexed":false,"internalType":"enum IMediChain.BatchStatus","name":"newStatus","type":"uint8"}],"name":"BatchTransferred","type":"event"},{"anonymous":false,"inputs":[{"indexed":true,"internalType":"address","name":"previousOwner","type":"address"},{"indexed":true,"internalType":"address","name":"newOwner","type":"address"}],"name":"OwnershipTransferred","type":"event"},{"anonymous":false,"inputs":[{"indexed":false,"internalType":"address","name":"account","type":"address"}],"name":"Paused","type":"event"},{"anonymous":false,"inputs":[{"indexed":false,"internalType":"address","name":"account","type":"address"}],"name":"Unpaused","type":"event"},{"inputs":[{"internalType":"string","name":"batchId","type":"string"}],"name":"batchExists","outputs":[{"internalType":"bool","name":"","type":"bool"}],"stateMutability":"view","type":"function"},{"inputs":[],"name":"getAllBatchIds","outputs":[{"internalType":"string[]","name":"","type":"string[]"}],"stateMutability":"view","type":"function"},{"inputs":[{"internalType":"string","name":"batchId","type":"string"}],"name":"getBatchHistory","outputs":[{"components":[{"internalType":"address","name":"from","type":"address"},{"internalType":"address","name":"to","type":"address"},{"internalType":"string","name":"role","type":"string"},{"internalType":"uint256","name":"timestamp","type":"uint256"},{"internalType":"string","name":"location","type":"string"},{"internalType":"string","name":"notes","type":"string"}],"internalType":"struct IMediChain.TransferRecord[]","name":"","type":"tuple[]"}],"stateMutability":"view","type":"function"},{"inputs":[{"internalType":"uint256","name":"index","type":"uint256"}],"name":"getBatchIdAt","outputs":[{"internalType":"string","name":"","type":"string"}],"stateMutability":"view","type":"function"},{"inputs":[{"internalType":"string","name":"batchId","type":"string"}],"name":"getBatchOwner","outputs":[{"internalType":"address","name":"","type":"address"}],"stateMutability":"view","type":"function"},{"inputs":[{"internalType":"string","name":"batchId","type":"string"}],"name":"getRecallReason","outputs":[{"internalType":"string","name":"","type":"string"}],"stateMutability":"view","type":"function"},{"inputs":[],"name":"getStats","outputs":[{"internalType":"uint256","name":"_totalBatches","type":"uint256"},{"internalType":"uint256","name":"_totalTransfers","type":"uint256"},{"internalType":"uint256","name":"_totalRecalls","type":"uint256"}],"stateMutability":"view","type":"function"},{"inputs":[],"name":"getTotalBatches","outputs":[{"internalType":"uint256","name":"","type":"uint256"}],"stateMutability":"view","type":"function"},{"inputs":[{"internalType":"string","name":"batchId","type":"string"}],"name":"isBatchGenuine","outputs":[{"internalType":"bool","name":"genuine","type":"bool"},{"internalType":"string","name":"status","type":"string"},{"internalType":"uint256","name":"lastUpdated","type":"uint256"}],"stateMutability":"view","type":"function"},{"inputs":[{"internalType":"string","name":"batchId","type":"string"}],"name":"markAsSold","outputs":[],"stateMutability":"nonpayable","type":"function"},{"inputs":[],"name":"owner","outputs":[{"internalType":"address","name":"","type":"address"}],"stateMutability":"view","type":"function"},{"inputs":[],"name":"pause","outputs":[],"stateMutability":"nonpayable","type":"function"},{"inputs":[],"name":"paused","outputs":[{"internalType":"bool","name":"","type":"bool"}],"stateMutability":"view","type":"function"},{"inputs":[{"internalType":"string","name":"batchId","type":"string"},{"internalType":"string","name":"reason","type":"string"}],"name":"recallBatch","outputs":[],"stateMutability":"nonpayable","type":"function"},{"inputs":[{"internalType":"string","name":"batchId","type":"string"},{"internalType":"string","name":"medicineName","type":"string"},{"internalType":"string","name":"manufacturer","type":"string"},{"internalType":"uint256","name":"expiryDate","type":"uint256"},{"internalType":"uint256","name":"quantity","type":"uint256"},{"internalType":"string","name":"ipfsHash","type":"string"}],"name":"registerBatch","outputs":[],"stateMutability":"nonpayable","type":"function"},{"inputs":[],"name":"renounceOwnership","outputs":[],"stateMutability":"nonpayable","type":"function"},{"inputs":[],"name":"roleManager","outputs":[{"internalType":"contract RoleManager","name":"","type":"address"}],"stateMutability":"view","type":"function"},{"inputs":[],"name":"totalBatches","outputs":[{"internalType":"uint256","name":"","type":"uint256"}],"stateMutability":"view","type":"function"},{"inputs":[],"name":"totalRecalls","outputs":[{"internalType":"uint256","name":"","type":"uint256"}],"stateMutability":"view","type":"function"},{"inputs":[],"name":"totalTransfers","outputs":[{"internalType":"uint256","name":"","type":"uint256"}],"stateMutability":"view","type":"function"},{"inputs":[{"internalType":"address","name":"newOwner","type":"address"}],"name":"transferOwnership","outputs":[],"stateMutability":"nonpayable","type":"function"},{"inputs":[{"internalType":"string","name":"batchId","type":"string"},{"internalType":"address","name":"distributor","type":"address"},{"internalType":"string","name":"location","type":"string"},{"internalType":"string","name":"notes","type":"string"}],"name":"transferToDistributor","outputs":[],"stateMutability":"nonpayable","type":"function"},{"inputs":[{"internalType":"string","name":"batchId","type":"string"},{"internalType":"address","name":"pharmacy","type":"address"},{"internalType":"string","name":"location","type":"string"},{"internalType":"string","name":"notes","type":"string"}],"name":"transferToPharmacy","outputs":[],"stateMutability":"nonpayable","type":"function"},{"inputs":[],"name":"unpause","outputs":[],"stateMutability":"nonpayable","type":"function"},{"inputs":[{"internalType":"string","name":"batchId","type":"string"}],"name":"verifyBatch","outputs":[{"components":[{"internalType":"string","name":"batchId","type":"string"},{"internalType":"string","name":"medicineName","type":"string"},{"internalType":"string","name":"manufacturer","type":"string"},{"internalType":"address","name":"manufacturerAddr","type":"address"},{"internalType":"uint256","name":"manufactureDate","type":"uint256"},{"internalType":"uint256","name":"expiryDate","type":"uint256"},{"internalType":"uint256","name":"quantity","type":"uint256"},{"internalType":"string","name":"ipfsHash","type":"string"},{"internalType":"enum IMediChain.BatchStatus","name":"status","type":"uint8"},{"internalType":"bool","name":"exists","type":"bool"}],"internalType":"struct IMediChain.MedicineBatch","name":"batch","type":"tuple"},{"components":[{"internalType":"address","name":"from","type":"address"},{"internalType":"address","name":"to","type":"address"},{"internalType":"string","name":"role","type":"string"},{"internalType":"uint256","name":"timestamp","type":"uint256"},{"internalType":"string","name":"location","type":"string"},{"internalType":"string","name":"notes","type":"string"}],"internalType":"struct IMediChain.TransferRecord[]","name":"history","type":"tuple[]"}],"stateMutability":"view","type":"function"}],"evm":{"bytecode":{"linkReferences":{},"object":"60a06040523480156200001157600080fd5b506040516200446538038062004465833981016040819052620000349162000146565b33806200005c57604051631e4fbdf760e01b8152600060048201526024015b60405180910390fd5b6200006781620000f6565b5060017f9b779b17422d0df92223018b32b4d1fa46e071723d6817e2486d003becc55f00556001600160a01b038116620000e45760405162461bcd60e51b815260206004820152601760248201527f4d656469436861696e3a207a65726f2061646472657373000000000000000000604482015260640162000053565b6001600160a01b031660805262000178565b600080546001600160a01b038381166001600160a01b0319831681178455604051919092169283917f8be0079c531659141344cd1fd0a4f28419497f9722a3daafe3b4186f6b6457e09190a35050565b6000602082840312156200015957600080fd5b81516001600160a01b03811681146200017157600080fd5b9392505050565b60805161426f620001f66000396000818161017c0152818161039e015281816103cd015281816106aa015281816106d901528181610a9901528181610ac8015281816119f601528181611a2501528181611f3401528181611f63015281816122000152818161222f015281816125cb01526125fa015261426f6000f3fe608060405234801561001057600080fd5b50600436106101725760003560e01c8063715018a6116100de578063bce0694711610097578063e561dddc11610071578063e561dddc1461034d578063e790398814610355578063e906dc4214610368578063f2fde38b1461038957600080fd5b8063bce0694714610301578063c3c8529d14610316578063c59d48471461032957600080fd5b8063715018a61461028d5780637ef0a667146102955780638456cb59146102b55780638da5cb5b146102bd5780639ecf3007146102ce578063a252d8a7146102e157600080fd5b80632d588bc5116101305780632d588bc51461022b5780633bf477201461023e5780633f4ba83a146102555780635c975abb1461025d57806369ff6abb1461027b5780636cc3c9ac1461028457600080fd5b8062435da514610177578063043b62ec146101bb57806306ef6d2e146101d05780630ec13f3b146101e3578063123ecac8146102055780631ac7fbd714610218575b600080fd5b61019e7f000000000000000000000000000000000000000000000000000000000000000081565b6040516001600160a01b0390911681526020015b60405180910390f35b6101ce6101c936600461394b565b61039c565b005b6101ce6101de3660046139e4565b610a97565b6101f66101f1366004613aa3565b611236565b6040516101b293929190613b30565b6101ce610213366004613b5b565b6119f4565b6101ce61022636600461394b565b611f32565b6101ce610239366004613aa3565b6125c9565b61024760075481565b6040519081526020016101b2565b6101ce612b13565b600054600160a01b900460ff165b60405190151581526020016101b2565b61024760065481565b61024760085481565b6101ce612b25565b6102a86102a3366004613aa3565b612b37565b6040516101b29190613bbf565b6101ce612be7565b6000546001600160a01b031661019e565b6102a86102dc366004613bd9565b612bf7565b6102f46102ef366004613aa3565b612c73565b6040516101b29190613cb8565b610309612f1e565b6040516101b29190613ccb565b61019e610324366004613aa3565b612ff7565b600654600754600854604080519384526020840192909252908201526060016101b2565b600654610247565b61026b610363366004613aa3565b613028565b61037b610376366004613aa3565b61305c565b6040516101b2929190613d65565b6101ce610397366004613e64565b61362e565b7f00000000000000000000000000000000000000000000000000000000000000006001600160a01b03166391d148547f00000000000000000000000000000000000000000000000000000000000000006001600160a01b031663f0bd87cc6040518163ffffffff1660e01b8152600401602060405180830381865afa158015610429573d6000803e3d6000fd5b505050506040513d601f19601f8201168201806040525081019061044d9190613e7f565b6040516001600160e01b031960e084901b1681526004810191909152336024820152604401602060405180830381865afa15801561048f573d6000803e3d6000fd5b505050506040513d601f19601f820116820180604052508101906104b39190613e98565b6105135760405162461bcd60e51b815260206004820152602660248201527f4d656469436861696e3a2063616c6c6572206973206e6f74206120646973747260448201526534b13aba37b960d11b60648201526084015b60405180910390fd5b61051b613669565b610523613694565b836001816040516105349190613eba565b9081526040519081900360200190206008015460ff6101009091041661056c5760405162461bcd60e51b815260040161050a90613ed6565b84600460018260405161057f9190613eba565b9081526040519081900360200190206008015460ff1660048111156105a6576105a6613d2d565b036105c35760405162461bcd60e51b815260040161050a90613f0d565b600180876040516105d49190613eba565b9081526040519081900360200190206008015460ff1660048111156105fb576105fb613d2d565b146106585760405162461bcd60e51b815260206004820152602760248201527f4d656469436861696e3a206261746368206e6f7420696e20496e5472616e73696044820152667420737461746560c81b606482015260840161050a565b336001600160a01b03166003876040516106729190613eba565b908152604051908190036020019020546001600160a01b0316146106a85760405162461bcd60e51b815260040161050a90613f4f565b7f00000000000000000000000000000000000000000000000000000000000000006001600160a01b03166391d148547f00000000000000000000000000000000000000000000000000000000000000006001600160a01b031663f0c58ea76040518163ffffffff1660e01b8152600401602060405180830381865afa158015610735573d6000803e3d6000fd5b505050506040513d601f19601f820116820180604052508101906107599190613e7f565b6040516001600160e01b031960e084901b16815260048101919091526001600160a01b0388166024820152604401602060405180830381865afa1580156107a4573d6000803e3d6000fd5b505050506040513d601f19601f820116820180604052508101906107c89190613e98565b61082e5760405162461bcd60e51b815260206004820152603160248201527f4d656469436861696e3a20726563697069656e74206973206e6f742061207265604482015270676973746572656420706861726d61637960781b606482015260840161050a565b6001600160a01b03851661087e5760405162461bcd60e51b81526020600482015260176024820152764d656469436861696e3a207a65726f206164647265737360481b604482015260640161050a565b60026001876040516108909190613eba565b908152604051908190036020019020600801805460ff191660018360048111156108bc576108bc613d2d565b0217905550846003876040516108d29190613eba565b90815260405190819003602001902080546001600160a01b03929092166001600160a01b03199092169190911790556007805490600061091183613fad565b91905055506002866040516109269190613eba565b90815260408051918290036020908101832060c0840183523384526001600160a01b0389811685840190815284518086018652600b81526a2224a9aa2924a12aaa27a960a91b81860152948601948552426060870152608086018a905260a08601899052825460018181018555600094855294909320865160069094020180549383166001600160a01b031994851617815590519381018054949092169390921692909217909155905160028201906109df9082614045565b5060608201516003820155608082015160048201906109fe9082614045565b5060a08201516005820190610a139082614045565b505050846001600160a01b0316336001600160a01b031687604051610a389190613eba565b60405180910390207fb1edaa5350293e3fef06e7307aa5a5b90b82ff163f359217f939982b1cf743766002604051610a709190614105565b60405180910390a45050610a91600160008051602061421a83398151915255565b50505050565b7f00000000000000000000000000000000000000000000000000000000000000006001600160a01b03166391d148547f00000000000000000000000000000000000000000000000000000000000000006001600160a01b031663965288b06040518163ffffffff1660e01b8152600401602060405180830381865afa158015610b24573d6000803e3d6000fd5b505050506040513d601f19601f82011682018060405250810190610b489190613e7f565b6040516001600160e01b031960e084901b1681526004810191909152336024820152604401602060405180830381865afa158015610b8a573d6000803e3d6000fd5b505050506040513d601f19601f82011682018060405250810190610bae9190613e98565b610bca5760405162461bcd60e51b815260040161050a90614119565b610bd2613669565b610bda613694565b6000865111610c365760405162461bcd60e51b815260206004820152602260248201527f4d656469436861696e3a20626174636849642063616e6e6f7420626520656d70604482015261747960f01b606482015260840161050a565b6000855111610c975760405162461bcd60e51b815260206004820152602760248201527f4d656469436861696e3a206d65646963696e654e616d652063616e6e6f7420626044820152666520656d70747960c81b606482015260840161050a565b6000845111610cf85760405162461bcd60e51b815260206004820152602760248201527f4d656469436861696e3a206d616e7566616374757265722063616e6e6f7420626044820152666520656d70747960c81b606482015260840161050a565b600186604051610d089190613eba565b9081526040519081900360200190206008015460ff6101009091041615610d7f5760405162461bcd60e51b815260206004820152602560248201527f4d656469436861696e3a206261746368496420616c72656164792072656769736044820152641d195c995960da1b606482015260840161050a565b60008211610dcf5760405162461bcd60e51b815260206004820152601f60248201527f4d656469436861696e3a207175616e74697479206d757374206265203e203000604482015260640161050a565b428311610e2e5760405162461bcd60e51b815260206004820152602760248201527f4d656469436861696e3a20657870697279206d75737420626520696e207468656044820152662066757475726560c81b606482015260840161050a565b42808411610e925760405162461bcd60e51b815260206004820152602b60248201527f4d656469436861696e3a20657870697279206d7573742062652061667465722060448201526a6d616e756661637475726560a81b606482015260840161050a565b604051806101400160405280888152602001878152602001868152602001336001600160a01b0316815260200182815260200185815260200184815260200183815260200160006004811115610eea57610eea613d2d565b815260016020909101819052604051610f04908a90613eba565b90815260405190819003602001902081518190610f219082614045565b5060208201516001820190610f369082614045565b5060408201516002820190610f4b9082614045565b5060608201516003820180546001600160a01b0319166001600160a01b039092169190911790556080820151600482015560a0820151600582015560c0820151600682015560e08201516007820190610fa49082614045565b5061010082015160088201805460ff19166001836004811115610fc957610fc9613d2d565b02179055506101208201518160080160016101000a81548160ff021916908315150217905550905050336003886040516110039190613eba565b90815260405190819003602001902080546001600160a01b03929092166001600160a01b0319909216919091179055600580546001810182556000919091527f036b6384b5eca791c62761152d0c79bb0604c104a5fb6f4eb0703f3154bb3db00161106e8882614045565b506006805490600061107f83613fad565b91905055506002876040516110949190613eba565b90815260408051918290036020908101832060c08401835260008452338483015282518084018452600c81526b26a0a72aa320a1aa2aa922a960a11b81840152848401524260608501528251808401845260168152754d616e75666163747572696e6720466163696c69747960501b818401526080850152915191929160a0830191611122918a9101614160565b60408051601f1981840301815291815291528254600181810185556000948552602094859020845160069093020180546001600160a01b039384166001600160a01b0319918216178255958501519181018054929093169190951617905581015190919060028201906111959082614045565b5060608201516003820155608082015160048201906111b49082614045565b5060a082015160058201906111c99082614045565b50506040513391506111dc908990613eba565b604051908190038120428252907f596909e876e32edb0c6f53eafd21a29b46d021a679fa51151ed317272b00976f9060200160405180910390a35061122e600160008051602061421a83398151915255565b505050505050565b60006060600060018460405161124c9190613eba565b9081526040519081900360200190206008015460ff610100909104166112985750506040805180820190915260098152681393d517d193d5539160ba1b602082015260009150816119ed565b60006001856040516112aa9190613eba565b9081526020016040518091039020604051806101400160405290816000820180546112d490613fc6565b80601f016020809104026020016040519081016040528092919081815260200182805461130090613fc6565b801561134d5780601f106113225761010080835404028352916020019161134d565b820191906000526020600020905b81548152906001019060200180831161133057829003601f168201915b5050505050815260200160018201805461136690613fc6565b80601f016020809104026020016040519081016040528092919081815260200182805461139290613fc6565b80156113df5780601f106113b4576101008083540402835291602001916113df565b820191906000526020600020905b8154815290600101906020018083116113c257829003601f168201915b505050505081526020016002820180546113f890613fc6565b80601f016020809104026020016040519081016040528092919081815260200182805461142490613fc6565b80156114715780601f1061144657610100808354040283529160200191611471565b820191906000526020600020905b81548152906001019060200180831161145457829003601f168201915b505050918352505060038201546001600160a01b0316602082015260048201546040820152600582015460608201526006820154608082015260078201805460a0909201916114bf90613fc6565b80601f01602080910402602001604051908101604052809291908181526020018280546114eb90613fc6565b80156115385780601f1061150d57610100808354040283529160200191611538565b820191906000526020600020905b81548152906001019060200180831161151b57829003601f168201915b5050509183525050600882015460209091019060ff16600481111561155f5761155f613d2d565b600481111561157057611570613d2d565b815260089190910154610100900460ff1615156020909101526040519091506000906002906115a0908890613eba565b9081526020016040518091039020805480602002602001604051908101604052809291908181526020016000905b828210156117e35760008481526020908190206040805160c0810182526006860290920180546001600160a01b039081168452600182015416938301939093526002830180549293929184019161162490613fc6565b80601f016020809104026020016040519081016040528092919081815260200182805461165090613fc6565b801561169d5780601f106116725761010080835404028352916020019161169d565b820191906000526020600020905b81548152906001019060200180831161168057829003601f168201915b50505050508152602001600382015481526020016004820180546116c090613fc6565b80601f01602080910402602001604051908101604052809291908181526020018280546116ec90613fc6565b80156117395780601f1061170e57610100808354040283529160200191611739565b820191906000526020600020905b81548152906001019060200180831161171c57829003601f168201915b5050505050815260200160058201805461175290613fc6565b80601f016020809104026020016040519081016040528092919081815260200182805461177e90613fc6565b80156117cb5780601f106117a0576101008083540402835291602001916117cb565b820191906000526020600020905b8154815290600101906020018083116117ae57829003601f168201915b505050505081525050815260200190600101906115ce565b5050505090506000808251116117fa576000611826565b8160018351611809919061419c565b81518110611819576118196141af565b6020026020010151606001515b90506004836101000151600481111561184157611841613d2d565b0361187557604080518082019091526008815267149150d05313115160c21b602082015260009650945092506119ed915050565b428360a0015110156118af576040805180820190915260078152661156141254915160ca1b602082015260009650945092506119ed915050565b6060600084610100015160048111156118ca576118ca613d2d565b036118f8575060408051808201909152600c81526b13505395519050d51554915160a21b60208201526119e2565b6001846101000151600481111561191157611911613d2d565b0361193d575060408051808201909152600a815269125397d514905394d25560b21b60208201526119e2565b6002846101000151600481111561195657611956613d2d565b03611983575060408051808201909152600b81526a41545f504841524d41435960a81b60208201526119e2565b6003846101000151600481111561199c5761199c613d2d565b036119c2575060408051808201909152600481526314d3d31160e21b60208201526119e2565b506040805180820190915260078152662aa725a727aba760c91b60208201525b600196509450925050505b9193909250565b7f00000000000000000000000000000000000000000000000000000000000000006001600160a01b03166391d148547f00000000000000000000000000000000000000000000000000000000000000006001600160a01b031663965288b06040518163ffffffff1660e01b8152600401602060405180830381865afa158015611a81573d6000803e3d6000fd5b505050506040513d601f19601f82011682018060405250810190611aa59190613e7f565b6040516001600160e01b031960e084901b1681526004810191909152336024820152604401602060405180830381865afa158015611ae7573d6000803e3d6000fd5b505050506040513d601f19601f82011682018060405250810190611b0b9190613e98565b611b275760405162461bcd60e51b815260040161050a90614119565b611b2f613669565b611b37613694565b81600181604051611b489190613eba565b9081526040519081900360200190206008015460ff61010090910416611b805760405162461bcd60e51b815260040161050a90613ed6565b336001600160a01b0316600184604051611b9a9190613eba565b908152604051908190036020019020600301546001600160a01b031614611c1c5760405162461bcd60e51b815260206004820152603060248201527f4d656469436861696e3a206f6e6c79206f726967696e616c206d616e7566616360448201526f1d1d5c995c8818d85b881c9958d85b1b60821b606482015260840161050a565b6004600184604051611c2e9190613eba565b9081526040519081900360200190206008015460ff166004811115611c5557611c55613d2d565b03611cac5760405162461bcd60e51b815260206004820152602160248201527f4d656469436861696e3a20626174636820616c726561647920726563616c6c656044820152601960fa1b606482015260840161050a565b6000825111611d0e5760405162461bcd60e51b815260206004820152602860248201527f4d656469436861696e3a20726563616c6c20726561736f6e2063616e6e6f7420604482015267626520656d70747960c01b606482015260840161050a565b6004600184604051611d209190613eba565b908152604051908190036020019020600801805460ff19166001836004811115611d4c57611d4c613d2d565b021790555081600484604051611d629190613eba565b90815260200160405180910390209081611d7c9190614045565b5060088054906000611d8d83613fad565b9190505550600283604051611da29190613eba565b90815260408051918290036020908101832060c08401835233845260008483015282518084018452600c81526b26a0a72aa320a1aa2aa922a960a11b81840152848401524260608501528251808401845260038152624e2f4160e81b818401526080850152915191929160a0830191611e1d918791016141c5565b60408051601f1981840301815291815291528254600181810185556000948552602094859020845160069093020180546001600160a01b039384166001600160a01b031991821617825595850151918101805492909316919095161790558101519091906002820190611e909082614045565b506060820151600382015560808201516004820190611eaf9082614045565b5060a08201516005820190611ec49082614045565b50505082604051611ed59190613eba565b60405180910390207f7b3ba29a5ffce3410914dca71f17fd057b35ab7047d06dd028bdd7659d929f658342604051611f0e9291906141f7565b60405180910390a250611f2e600160008051602061421a83398151915255565b5050565b7f00000000000000000000000000000000000000000000000000000000000000006001600160a01b03166391d148547f00000000000000000000000000000000000000000000000000000000000000006001600160a01b031663965288b06040518163ffffffff1660e01b8152600401602060405180830381865afa158015611fbf573d6000803e3d6000fd5b505050506040513d601f19601f82011682018060405250810190611fe39190613e7f565b6040516001600160e01b031960e084901b1681526004810191909152336024820152604401602060405180830381865afa158015612025573d6000803e3d6000fd5b505050506040513d601f19601f820116820180604052508101906120499190613e98565b6120655760405162461bcd60e51b815260040161050a90614119565b61206d613669565b612075613694565b836001816040516120869190613eba565b9081526040519081900360200190206008015460ff610100909104166120be5760405162461bcd60e51b815260040161050a90613ed6565b8460046001826040516120d19190613eba565b9081526040519081900360200190206008015460ff1660048111156120f8576120f8613d2d565b036121155760405162461bcd60e51b815260040161050a90613f0d565b60006001876040516121279190613eba565b9081526040519081900360200190206008015460ff16600481111561214e5761214e613d2d565b146121ae5760405162461bcd60e51b815260206004820152602a60248201527f4d656469436861696e3a206261746368206e6f7420696e204d616e75666163746044820152697572656420737461746560b01b606482015260840161050a565b336001600160a01b03166003876040516121c89190613eba565b908152604051908190036020019020546001600160a01b0316146121fe5760405162461bcd60e51b815260040161050a90613f4f565b7f00000000000000000000000000000000000000000000000000000000000000006001600160a01b03166391d148547f00000000000000000000000000000000000000000000000000000000000000006001600160a01b031663f0bd87cc6040518163ffffffff1660e01b8152600401602060405180830381865afa15801561228b573d6000803e3d6000fd5b505050506040513d601f19601f820116820180604052508101906122af9190613e7f565b6040516001600160e01b031960e084901b16815260048101919091526001600160a01b0388166024820152604401602060405180830381865afa1580156122fa573d6000803e3d6000fd5b505050506040513d601f19601f8201168201806040525081019061231e9190613e98565b6123875760405162461bcd60e51b815260206004820152603460248201527f4d656469436861696e3a20726563697069656e74206973206e6f74206120726560448201527333b4b9ba32b932b2103234b9ba3934b13aba37b960611b606482015260840161050a565b6001600160a01b0385166123d75760405162461bcd60e51b81526020600482015260176024820152764d656469436861696e3a207a65726f206164647265737360481b604482015260640161050a565b600180876040516123e89190613eba565b908152604051908190036020019020600801805460ff1916600183600481111561241457612414613d2d565b02179055508460038760405161242a9190613eba565b90815260405190819003602001902080546001600160a01b03929092166001600160a01b03199092169190911790556007805490600061246983613fad565b919050555060028660405161247e9190613eba565b90815260408051918290036020908101832060c0840183523384526001600160a01b0389811685840190815284518086018652600c81526b26a0a72aa320a1aa2aa922a960a11b81860152948601948552426060870152608086018a905260a08601899052825460018181018555600094855294909320865160069094020180549383166001600160a01b031994851617815590519381018054949092169390921692909217909155905160028201906125389082614045565b5060608201516003820155608082015160048201906125579082614045565b5060a0820151600582019061256c9082614045565b505050846001600160a01b0316336001600160a01b0316876040516125919190613eba565b60405180910390207fb1edaa5350293e3fef06e7307aa5a5b90b82ff163f359217f939982b1cf743766001604051610a709190614105565b7f00000000000000000000000000000000000000000000000000000000000000006001600160a01b03166391d148547f00000000000000000000000000000000000000000000000000000000000000006001600160a01b031663f0c58ea76040518163ffffffff1660e01b8152600401602060405180830381865afa158015612656573d6000803e3d6000fd5b505050506040513d601f19601f8201168201806040525081019061267a9190613e7f565b6040516001600160e01b031960e084901b1681526004810191909152336024820152604401602060405180830381865afa1580156126bc573d6000803e3d6000fd5b505050506040513d601f19601f820116820180604052508101906126e09190613e98565b6127385760405162461bcd60e51b815260206004820152602360248201527f4d656469436861696e3a2063616c6c6572206973206e6f74206120706861726d60448201526261637960e81b606482015260840161050a565b612740613669565b612748613694565b806001816040516127599190613eba565b9081526040519081900360200190206008015460ff610100909104166127915760405162461bcd60e51b815260040161050a90613ed6565b8160046001826040516127a49190613eba565b9081526040519081900360200190206008015460ff1660048111156127cb576127cb613d2d565b036127e85760405162461bcd60e51b815260040161050a90613f0d565b60026001846040516127fa9190613eba565b9081526040519081900360200190206008015460ff16600481111561282157612821613d2d565b1461286e5760405162461bcd60e51b815260206004820181905260248201527f4d656469436861696e3a206261746368206e6f7420617420706861726d616379604482015260640161050a565b336001600160a01b03166003846040516128889190613eba565b908152604051908190036020019020546001600160a01b0316146128be5760405162461bcd60e51b815260040161050a90613f4f565b60036001846040516128d09190613eba565b908152604051908190036020019020600801805460ff191660018360048111156128fc576128fc613d2d565b02179055506007805490600061291183613fad565b91905055506002836040516129269190613eba565b90815260408051918290036020908101832060c0840183523384526000848301818152845180860186526008815267504841524d41435960c01b8186015286860190815242606088015285518087018752601081526f283430b936b0b1bc9021b7bab73a32b960811b81870152608088015285518087019096526014865273111a5cdc195b9cd959081d1bc81c185d1a595b9d60621b8686015260a087019590955282546001818101855593835293909120855160069094020180546001600160a01b039485166001600160a01b03199182161782559151928101805493909416929091169190911790915590516002820190612a239082614045565b506060820151600382015560808201516004820190612a429082614045565b5060a08201516005820190612a579082614045565b5050604051339150612a6a908590613eba565b604051908190038120428252907f66a1ab70f81847412d7b0a6eb78cc72eb4e15b27f877e8d8a1594087a8029a2b9060200160405180910390a36040516000903390612ab7908690613eba565b60405180910390207fb1edaa5350293e3fef06e7307aa5a5b90b82ff163f359217f939982b1cf743766003604051612aef9190614105565b60405180910390a45050612b10600160008051602061421a83398151915255565b50565b612b1b6136b0565b612b236136dd565b565b612b2d6136b0565b612b236000613732565b6060600482604051612b499190613eba565b90815260200160405180910390208054612b6290613fc6565b80601f0160208091040260200160405190810160405280929190818152602001828054612b8e90613fc6565b8015612bdb5780601f10612bb057610100808354040283529160200191612bdb565b820191906000526020600020905b815481529060010190602001808311612bbe57829003601f168201915b50505050509050919050565b612bef6136b0565b612b23613782565b6005546060908210612c4b5760405162461bcd60e51b815260206004820152601e60248201527f4d656469436861696e3a20696e646578206f7574206f6620626f756e64730000604482015260640161050a565b60058281548110612c5e57612c5e6141af565b906000526020600020018054612b6290613fc6565b606081600181604051612c869190613eba565b9081526040519081900360200190206008015460ff61010090910416612cbe5760405162461bcd60e51b815260040161050a90613ed6565b600283604051612cce9190613eba565b9081526020016040518091039020805480602002602001604051908101604052809291908181526020016000905b82821015612f115760008481526020908190206040805160c0810182526006860290920180546001600160a01b0390811684526001820154169383019390935260028301805492939291840191612d5290613fc6565b80601f0160208091040260200160405190810160405280929190818152602001828054612d7e90613fc6565b8015612dcb5780601f10612da057610100808354040283529160200191612dcb565b820191906000526020600020905b815481529060010190602001808311612dae57829003601f168201915b5050505050815260200160038201548152602001600482018054612dee90613fc6565b80601f0160208091040260200160405190810160405280929190818152602001828054612e1a90613fc6565b8015612e675780601f10612e3c57610100808354040283529160200191612e67565b820191906000526020600020905b815481529060010190602001808311612e4a57829003601f168201915b50505050508152602001600582018054612e8090613fc6565b80601f0160208091040260200160405190810160405280929190818152602001828054612eac90613fc6565b8015612ef95780601f10612ece57610100808354040283529160200191612ef9565b820191906000526020600020905b815481529060010190602001808311612edc57829003601f168201915b50505050508152505081526020019060010190612cfc565b5050505091505b50919050565b60606005805480602002602001604051908101604052809291908181526020016000905b82821015612fee578382906000526020600020018054612f6190613fc6565b80601f0160208091040260200160405190810160405280929190818152602001828054612f8d90613fc6565b8015612fda5780601f10612faf57610100808354040283529160200191612fda565b820191906000526020600020905b815481529060010190602001808311612fbd57829003601f168201915b505050505081526020019060010190612f42565b50505050905090565b60006003826040516130099190613eba565b908152604051908190036020019020546001600160a01b031692915050565b600060018260405161303a9190613eba565b9081526040519081900360200190206008015460ff6101009091041692915050565b61306461381f565b60606001836040516130769190613eba565b9081526040519081900360200190206008015460ff610100909104166130de5760405162461bcd60e51b815260206004820152601a60248201527f4d656469436861696e3a206261746368206e6f7420666f756e64000000000000604482015260640161050a565b6001836040516130ee9190613eba565b908152602001604051809103902060028460405161310c9190613eba565b9081526020016040518091039020816040518061014001604052908160008201805461313790613fc6565b80601f016020809104026020016040519081016040528092919081815260200182805461316390613fc6565b80156131b05780601f10613185576101008083540402835291602001916131b0565b820191906000526020600020905b81548152906001019060200180831161319357829003601f168201915b505050505081526020016001820180546131c990613fc6565b80601f01602080910402602001604051908101604052809291908181526020018280546131f590613fc6565b80156132425780601f1061321757610100808354040283529160200191613242565b820191906000526020600020905b81548152906001019060200180831161322557829003601f168201915b5050505050815260200160028201805461325b90613fc6565b80601f016020809104026020016040519081016040528092919081815260200182805461328790613fc6565b80156132d45780601f106132a9576101008083540402835291602001916132d4565b820191906000526020600020905b8154815290600101906020018083116132b757829003601f168201915b505050918352505060038201546001600160a01b0316602082015260048201546040820152600582015460608201526006820154608082015260078201805460a09092019161332290613fc6565b80601f016020809104026020016040519081016040528092919081815260200182805461334e90613fc6565b801561339b5780601f106133705761010080835404028352916020019161339b565b820191906000526020600020905b81548152906001019060200180831161337e57829003601f168201915b5050509183525050600882015460209091019060ff1660048111156133c2576133c2613d2d565b60048111156133d3576133d3613d2d565b815260089190910154610100900460ff16151560209182015282546040805182840281018401909152818152929450839160009084015b8282101561361f5760008481526020908190206040805160c0810182526006860290920180546001600160a01b039081168452600182015416938301939093526002830180549293929184019161346090613fc6565b80601f016020809104026020016040519081016040528092919081815260200182805461348c90613fc6565b80156134d95780601f106134ae576101008083540402835291602001916134d9565b820191906000526020600020905b8154815290600101906020018083116134bc57829003601f168201915b50505050508152602001600382015481526020016004820180546134fc90613fc6565b80601f016020809104026020016040519081016040528092919081815260200182805461352890613fc6565b80156135755780601f1061354a57610100808354040283529160200191613575565b820191906000526020600020905b81548152906001019060200180831161355857829003601f168201915b5050505050815260200160058201805461358e90613fc6565b80601f01602080910402602001604051908101604052809291908181526020018280546135ba90613fc6565b80156136075780601f106135dc57610100808354040283529160200191613607565b820191906000526020600020905b8154815290600101906020018083116135ea57829003601f168201915b5050505050815250508152602001906001019061340a565b50505050905091509150915091565b6136366136b0565b6001600160a01b03811661366057604051631e4fbdf760e01b81526000600482015260240161050a565b612b1081613732565b600054600160a01b900460ff1615612b235760405163d93c066560e01b815260040160405180910390fd5b61369c6137c5565b600260008051602061421a83398151915255565b6000546001600160a01b03163314612b235760405163118cdaa760e01b815233600482015260240161050a565b6136e56137f5565b6000805460ff60a01b191690557f5db9ee0a495bf2e6ff9c91a7834c1ba4fdd244a5e8aa4e537bd38aeae4b073aa335b6040516001600160a01b03909116815260200160405180910390a1565b600080546001600160a01b038381166001600160a01b0319831681178455604051919092169283917f8be0079c531659141344cd1fd0a4f28419497f9722a3daafe3b4186f6b6457e09190a35050565b61378a613669565b6000805460ff60a01b1916600160a01b1790557f62e78cea01bee320cd4e420270b5ea74000d11b0c9f74754ebdbfc544b05a2586137153390565b60008051602061421a83398151915254600203612b2357604051633ee5aeb560e01b815260040160405180910390fd5b600054600160a01b900460ff16612b2357604051638dfc202b60e01b815260040160405180910390fd5b60405180610140016040528060608152602001606081526020016060815260200160006001600160a01b03168152602001600081526020016000815260200160008152602001606081526020016000600481111561387f5761387f613d2d565b8152600060209091015290565b634e487b7160e01b600052604160045260246000fd5b600082601f8301126138b357600080fd5b813567ffffffffffffffff808211156138ce576138ce61388c565b604051601f8301601f19908116603f011681019082821181831017156138f6576138f661388c565b8160405283815286602085880101111561390f57600080fd5b836020870160208301376000602085830101528094505050505092915050565b80356001600160a01b038116811461394657600080fd5b919050565b6000806000806080858703121561396157600080fd5b843567ffffffffffffffff8082111561397957600080fd5b613985888389016138a2565b95506139936020880161392f565b945060408701359150808211156139a957600080fd5b6139b5888389016138a2565b935060608701359150808211156139cb57600080fd5b506139d8878288016138a2565b91505092959194509250565b60008060008060008060c087890312156139fd57600080fd5b863567ffffffffffffffff80821115613a1557600080fd5b613a218a838b016138a2565b97506020890135915080821115613a3757600080fd5b613a438a838b016138a2565b96506040890135915080821115613a5957600080fd5b613a658a838b016138a2565b9550606089013594506080890135935060a0890135915080821115613a8957600080fd5b50613a9689828a016138a2565b9150509295509295509295565b600060208284031215613ab557600080fd5b813567ffffffffffffffff811115613acc57600080fd5b613ad8848285016138a2565b949350505050565b60005b83811015613afb578181015183820152602001613ae3565b50506000910152565b60008151808452613b1c816020860160208601613ae0565b601f01601f19169290920160200192915050565b8315158152606060208201526000613b4b6060830185613b04565b9050826040830152949350505050565b60008060408385031215613b6e57600080fd5b823567ffffffffffffffff80821115613b8657600080fd5b613b92868387016138a2565b93506020850135915080821115613ba857600080fd5b50613bb5858286016138a2565b9150509250929050565b602081526000613bd26020830184613b04565b9392505050565b600060208284031215613beb57600080fd5b5035919050565b600081518084526020808501808196508360051b8101915082860160005b85811015613cab578284038952815180516001600160a01b03908116865286820151168686015260408082015160c08288018190529190613c5383890182613b04565b92505050606080830151818801525060808083015187830382890152613c798382613b04565b9250505060a08083015192508682038188015250613c978183613b04565b9a87019a9550505090840190600101613c10565b5091979650505050505050565b602081526000613bd26020830184613bf2565b6000602080830181845280855180835260408601915060408160051b870101925083870160005b82811015613d2057603f19888603018452613d0e858351613b04565b94509285019290850190600101613cf2565b5092979650505050505050565b634e487b7160e01b600052602160045260246000fd5b60058110613d6157634e487b7160e01b600052602160045260246000fd5b9052565b6040815260008351610140806040850152613d84610180850183613b04565b91506020860151603f1980868503016060870152613da28483613b04565b93506040880151915080868503016080870152613dbf8483613b04565b935060608801519150613ddd60a08701836001600160a01b03169052565b608088015160c087015260a088015160e087015260c08801519150610100828188015260e08901519250610120828887030181890152613e1d8685613b04565b9550818a01519350613e3185890185613d43565b8901518015156101608901529350613e4892505050565b508281036020840152613e5b8185613bf2565b95945050505050565b600060208284031215613e7657600080fd5b613bd28261392f565b600060208284031215613e9157600080fd5b5051919050565b600060208284031215613eaa57600080fd5b81518015158114613bd257600080fd5b60008251613ecc818460208701613ae0565b9190910192915050565b6020808252601f908201527f4d656469436861696e3a20626174636820646f6573206e6f7420657869737400604082015260600190565b60208082526022908201527f4d656469436861696e3a20626174636820686173206265656e20726563616c6c604082015261195960f21b606082015260800190565b60208082526028908201527f4d656469436861696e3a2063616c6c6572206973206e6f74207468652062617460408201526731b41037bbb732b960c11b606082015260800190565b634e487b7160e01b600052601160045260246000fd5b600060018201613fbf57613fbf613f97565b5060010190565b600181811c90821680613fda57607f821691505b602082108103612f1857634e487b7160e01b600052602260045260246000fd5b601f82111561404057600081815260208120601f850160051c810160208610156140215750805b601f850160051c820191505b8181101561122e5782815560010161402d565b505050565b815167ffffffffffffffff81111561405f5761405f61388c565b6140738161406d8454613fc6565b84613ffa565b602080601f8311600181146140a857600084156140905750858301515b600019600386901b1c1916600185901b17855561122e565b600085815260208120601f198616915b828110156140d7578886015182559484019460019091019084016140b8565b50858210156140f55787850151600019600388901b60f8161c191681555b5050505050600190811b01905550565b602081016141138284613d43565b92915050565b60208082526027908201527f4d656469436861696e3a2063616c6c6572206973206e6f742061206d616e756660408201526630b1ba3ab932b960c91b606082015260800190565b7302130ba31b4103932b3b4b9ba32b932b210313c960651b81526000825161418f816014850160208701613ae0565b9190910160140192915050565b8181038181111561411357614113613f97565b634e487b7160e01b600052603260045260246000fd5b6902922a1a0a62622a21d160b51b8152600082516141ea81600a850160208701613ae0565b91909101600a0192915050565b60408152600061420a6040830185613b04565b9050826020830152939250505056fe9b779b17422d0df92223018b32b4d1fa46e071723d6817e2486d003becc55f00a2646970667358221220e55b6a2c6d6ca10ff555d35687dfa4cebf83bfc7deaba6e884e5f96ea72ccc3064736f6c63430008140033","opcodes":"PUSH1 0xA0 PUSH1 0x40 MSTORE CALLVALUE DUP1 ISZERO PUSH3 0x11 JUMPI PUSH1 0x0 DUP1 REVERT JUMPDEST POP PUSH1 0x40 MLOAD PUSH3 0x4465 CODESIZE SUB DUP1 PUSH3 0x4465 DUP4 CODECOPY DUP2 ADD PUSH1 0x40 DUP2 SWAP1 MSTORE PUSH3 0x34 SWAP2 PUSH3 0x146 JUMP JUMPDEST CALLER DUP1 PUSH3 0x5C JUMPI PUSH1 0x40 MLOAD PUSH4 0x1E4FBDF7 PUSH1 0xE0 SHL DUP2 MSTORE PUSH1 0x0 PUSH1 0x4 DUP3 ADD MSTORE PUSH1 0x24 ADD JUMPDEST PUSH1 0x40 MLOAD DUP1 SWAP2 SUB SWAP1 REVERT JUMPDEST PUSH3 0x67 DUP2 PUSH3 0xF6 JUMP JUMPDEST POP PUSH1 0x1 PUSH32 0x9B779B17422D0DF92223018B32B4D1FA46E071723D6817E2486D003BECC55F00 SSTORE PUSH1 0x1 PUSH1 0x1 PUSH1 0xA0 SHL SUB DUP2 AND PUSH3 0xE4 JUMPI PUSH1 0x40 MLOAD PUSH3 0x461BCD PUSH1 0xE5 SHL DUP2 MSTORE PUSH1 0x20 PUSH1 0x4 DUP3 ADD MSTORE PUSH1 0x17 PUSH1 0x24 DUP3 ADD MSTORE PUSH32 0x4D656469436861696E3A207A65726F2061646472657373000000000000000000 PUSH1 0x44 DUP3 ADD MSTORE PUSH1 0x64 ADD PUSH3 0x53 JUMP JUMPDEST PUSH1 0x1 PUSH1 0x1 PUSH1 0xA0 SHL SUB AND PUSH1 0x80 MSTORE PUSH3 0x178 JUMP JUMPDEST PUSH1 0x0 DUP1 SLOAD PUSH1 0x1 PUSH1 0x1 PUSH1 0xA0 SHL SUB DUP4 DUP2 AND PUSH1 0x1 PUSH1 0x1 PUSH1 0xA0 SHL SUB NOT DUP4 AND DUP2 OR DUP5 SSTORE PUSH1 0x40 MLOAD SWAP2 SWAP1 SWAP3 AND SWAP3 DUP4 SWAP2 PUSH32 0x8BE0079C531659141344CD1FD0A4F28419497F9722A3DAAFE3B4186F6B6457E0 SWAP2 SWAP1 LOG3 POP POP JUMP JUMPDEST PUSH1 0x0 PUSH1 0x20 DUP3 DUP5 SUB SLT ISZERO PUSH3 0x159 JUMPI PUSH1 0x0 DUP1 REVERT JUMPDEST DUP2 MLOAD PUSH1 0x1 PUSH1 0x1 PUSH1 0xA0 SHL SUB DUP2 AND DUP2 EQ PUSH3 0x171 JUMPI PUSH1 0x0 DUP1 REVERT JUMPDEST SWAP4 SWAP3 POP POP POP JUMP JUMPDEST PUSH1 0x80 MLOAD PUSH2 0x426F PUSH3 0x1F6 PUSH1 0x0 CODECOPY PUSH1 0x0 DUP2 DUP2 PUSH2 0x17C ADD MSTORE DUP2 DUP2 PUSH2 0x39E ADD MSTORE DUP2 DUP2 PUSH2 0x3CD ADD MSTORE DUP2 DUP2 PUSH2 0x6AA ADD MSTORE DUP2 DUP2 PUSH2 0x6D9 ADD MSTORE DUP2 DUP2 PUSH2 0xA99 ADD MSTORE DUP2 DUP2 PUSH2 0xAC8 ADD MSTORE DUP2 DUP2 PUSH2 0x19F6 ADD MSTORE DUP2 DUP2 PUSH2 0x1A25 ADD MSTORE DUP2 DUP2 PUSH2 0x1F34 ADD MSTORE DUP2 DUP2 PUSH2 0x1F63 ADD MSTORE DUP2 DUP2 PUSH2 0x2200 ADD MSTORE DUP2 DUP2 PUSH2 0x222F ADD MSTORE DUP2 DUP2 PUSH2 0x25CB ADD MSTORE PUSH2 0x25FA ADD MSTORE PUSH2 0x426F PUSH1 0x0 RETURN INVALID PUSH1 0x80 PUSH1 0x40 MSTORE CALLVALUE DUP1 ISZERO PUSH2 0x10 JUMPI PUSH1 0x0 DUP1 REVERT JUMPDEST POP PUSH1 0x4 CALLDATASIZE LT PUSH2 0x172 JUMPI PUSH1 0x0 CALLDATALOAD PUSH1 0xE0 SHR DUP1 PUSH4 0x715018A6 GT PUSH2 0xDE JUMPI DUP1 PUSH4 0xBCE06947 GT PUSH2 0x97 JUMPI DUP1 PUSH4 0xE561DDDC GT PUSH2 0x71 JUMPI DUP1 PUSH4 0xE561DDDC EQ PUSH2 0x34D JUMPI DUP1 PUSH4 0xE7903988 EQ PUSH2 0x355 JUMPI DUP1 PUSH4 0xE906DC42 EQ PUSH2 0x368 JUMPI DUP1 PUSH4 0xF2FDE38B EQ PUSH2 0x389 JUMPI PUSH1 0x0 DUP1 REVERT JUMPDEST DUP1 PUSH4 0xBCE06947 EQ PUSH2 0x301 JUMPI DUP1 PUSH4 0xC3C8529D EQ PUSH2 0x316 JUMPI DUP1 PUSH4 0xC59D4847 EQ PUSH2 0x329 JUMPI PUSH1 0x0 DUP1 REVERT JUMPDEST DUP1 PUSH4 0x715018A6 EQ PUSH2 0x28D JUMPI DUP1 PUSH4 0x7EF0A667 EQ PUSH2 0x295 JUMPI DUP1 PUSH4 0x8456CB59 EQ PUSH2 0x2B5 JUMPI DUP1 PUSH4 0x8DA5CB5B EQ PUSH2 0x2BD JUMPI DUP1 PUSH4 0x9ECF3007 EQ PUSH2 0x2CE JUMPI DUP1 PUSH4 0xA252D8A7 EQ PUSH2 0x2E1 JUMPI PUSH1 0x0 DUP1 REVERT JUMPDEST DUP1 PUSH4 0x2D588BC5 GT PUSH2 0x130 JUMPI DUP1 PUSH4 0x2D588BC5 EQ PUSH2 0x22B JUMPI DUP1 PUSH4 0x3BF47720 EQ PUSH2 0x23E JUMPI DUP1 PUSH4 0x3F4BA83A EQ PUSH2 0x255 JUMPI DUP1 PUSH4 0x5C975ABB EQ PUSH2 0x25D JUMPI DUP1 PUSH4 0x69FF6ABB EQ PUSH2 0x27B JUMPI DUP1 PUSH4 0x6CC3C9AC EQ PUSH2 0x284 JUMPI PUSH1 0x0 DUP1 REVERT JUMPDEST DUP1 PUSH3 0x435DA5 EQ PUSH2 0x177 JUMPI DUP1 PUSH4 0x43B62EC EQ PUSH2 0x1BB JUMPI DUP1 PUSH4 0x6EF6D2E EQ PUSH2 0x1D0 JUMPI DUP1 PUSH4 0xEC13F3B EQ PUSH2 0x1E3 JUMPI DUP1 PUSH4 0x123ECAC8 EQ PUSH2 0x205 JUMPI DUP1 PUSH4 0x1AC7FBD7 EQ PUSH2 0x218 JUMPI JUMPDEST PUSH1 0x0 DUP1 REVERT JUMPDEST PUSH2 0x19E PUSH32 0x0 DUP2 JUMP JUMPDEST PUSH1 0x40 MLOAD PUSH1 0x1 PUSH1 0x1 PUSH1 0xA0 SHL SUB SWAP1 SWAP2 AND DUP2 MSTORE PUSH1 0x20 ADD JUMPDEST PUSH1 0x40 MLOAD DUP1 SWAP2 SUB SWAP1 RETURN JUMPDEST PUSH2 0x1CE PUSH2 0x1C9 CALLDATASIZE PUSH1 0x4 PUSH2 0x394B JUMP JUMPDEST PUSH2 0x39C JUMP JUMPDEST STOP JUMPDEST PUSH2 0x1CE PUSH2 0x1DE CALLDATASIZE PUSH1 0x4 PUSH2 0x39E4 JUMP JUMPDEST PUSH2 0xA97 JUMP JUMPDEST PUSH2 0x1F6 PUSH2 0x1F1 CALLDATASIZE PUSH1 0x4 PUSH2 0x3AA3 JUMP JUMPDEST PUSH2 0x1236 JUMP JUMPDEST PUSH1 0x40 MLOAD PUSH2 0x1B2 SWAP4 SWAP3 SWAP2 SWAP1 PUSH2 0x3B30 JUMP JUMPDEST PUSH2 0x1CE PUSH2 0x213 CALLDATASIZE PUSH1 0x4 PUSH2 0x3B5B JUMP JUMPDEST PUSH2 0x19F4 JUMP JUMPDEST PUSH2 0x1CE PUSH2 0x226 CALLDATASIZE PUSH1 0x4 PUSH2 0x394B JUMP JUMPDEST PUSH2 0x1F32 JUMP JUMPDEST PUSH2 0x1CE PUSH2 0x239 CALLDATASIZE PUSH1 0x4 PUSH2 0x3AA3 JUMP JUMPDEST PUSH2 0x25C9 JUMP JUMPDEST PUSH2 0x247 PUSH1 0x7 SLOAD DUP2 JUMP JUMPDEST PUSH1 0x40 MLOAD SWAP1 DUP2 MSTORE PUSH1 0x20 ADD PUSH2 0x1B2 JUMP JUMPDEST PUSH2 0x1CE PUSH2 0x2B13 JUMP JUMPDEST PUSH1 0x0 SLOAD PUSH1 0x1 PUSH1 0xA0 SHL SWAP1 DIV PUSH1 0xFF AND JUMPDEST PUSH1 0x40 MLOAD SWAP1 ISZERO ISZERO DUP2 MSTORE PUSH1 0x20 ADD PUSH2 0x1B2 JUMP JUMPDEST PUSH2 0x247 PUSH1 0x6 SLOAD DUP2 JUMP JUMPDEST PUSH2 0x247 PUSH1 0x8 SLOAD DUP2 JUMP JUMPDEST PUSH2 0x1CE PUSH2 0x2B25 JUMP JUMPDEST PUSH2 0x2A8 PUSH2 0x2A3 CALLDATASIZE PUSH1 0x4 PUSH2 0x3AA3 JUMP JUMPDEST PUSH2 0x2B37 JUMP JUMPDEST PUSH1 0x40 MLOAD PUSH2 0x1B2 SWAP2 SWAP1 PUSH2 0x3BBF JUMP JUMPDEST PUSH2 0x1CE PUSH2 0x2BE7 JUMP JUMPDEST PUSH1 0x0 SLOAD PUSH1 0x1 PUSH1 0x1 PUSH1 0xA0 SHL SUB AND PUSH2 0x19E JUMP JUMPDEST PUSH2 0x2A8 PUSH2 0x2DC CALLDATASIZE PUSH1 0x4 PUSH2 0x3BD9 JUMP JUMPDEST PUSH2 0x2BF7 JUMP JUMPDEST PUSH2 0x2F4 PUSH2 0x2EF CALLDATASIZE PUSH1 0x4 PUSH2 0x3AA3 JUMP JUMPDEST PUSH2 0x2C73 JUMP JUMPDEST PUSH1 0x40 MLOAD PUSH2 0x1B2 SWAP2 SWAP1 PUSH2 0x3CB8 JUMP JUMPDEST PUSH2 0x309 PUSH2 0x2F1E JUMP JUMPDEST PUSH1 0x40 MLOAD PUSH2 0x1B2 SWAP2 SWAP1 PUSH2 0x3CCB JUMP JUMPDEST PUSH2 0x19E PUSH2 0x324 CALLDATASIZE PUSH1 0x4 PUSH2 0x3AA3 JUMP JUMPDEST PUSH2 0x2FF7 JUMP JUMPDEST PUSH1 0x6 SLOAD PUSH1 0x7 SLOAD PUSH1 0x8 SLOAD PUSH1 0x40 DUP1 MLOAD SWAP4 DUP5 MSTORE PUSH1 0x20 DUP5 ADD SWAP3 SWAP1 SWAP3 MSTORE SWAP1 DUP3 ADD MSTORE PUSH1 0x60 ADD PUSH2 0x1B2 JUMP JUMPDEST PUSH1 0x6 SLOAD PUSH2 0x247 JUMP JUMPDEST PUSH2 0x26B PUSH2 0x363 CALLDATASIZE PUSH1 0x4 PUSH2 0x3AA3 JUMP JUMPDEST PUSH2 0x3028 JUMP JUMPDEST PUSH2 0x37B PUSH2 0x376 CALLDATASIZE PUSH1 0x4 PUSH2 0x3AA3 JUMP JUMPDEST PUSH2 0x305C JUMP JUMPDEST PUSH1 0x40 MLOAD PUSH2 0x1B2 SWAP3 SWAP2 SWAP1 PUSH2 0x3D65 JUMP JUMPDEST PUSH2 0x1CE PUSH2 0x397 CALLDATASIZE PUSH1 0x4 PUSH2 0x3E64 JUMP JUMPDEST PUSH2 0x362E JUMP JUMPDEST PUSH32 0x0 PUSH1 0x1 PUSH1 0x1 PUSH1 0xA0 SHL SUB AND PUSH4 0x91D14854 PUSH32 0x0 PUSH1 0x1 PUSH1 0x1 PUSH1 0xA0 SHL SUB AND PUSH4 0xF0BD87CC PUSH1 0x40 MLOAD DUP2 PUSH4 0xFFFFFFFF AND PUSH1 0xE0 SHL DUP2 MSTORE PUSH1 0x4 ADD PUSH1 0x20 PUSH1 0x40 MLOAD DUP1 DUP4 SUB DUP2 DUP7 GAS STATICCALL ISZERO DUP1 ISZERO PUSH2 0x429 JUMPI RETURNDATASIZE PUSH1 0x0 DUP1 RETURNDATACOPY RETURNDATASIZE PUSH1 0x0 REVERT JUMPDEST POP POP POP POP PUSH1 0x40 MLOAD RETURNDATASIZE PUSH1 0x1F NOT PUSH1 0x1F DUP3 ADD AND DUP3 ADD DUP1 PUSH1 0x40 MSTORE POP DUP2 ADD SWAP1 PUSH2 0x44D SWAP2 SWAP1 PUSH2 0x3E7F JUMP JUMPDEST PUSH1 0x40 MLOAD PUSH1 0x1 PUSH1 0x1 PUSH1 0xE0 SHL SUB NOT PUSH1 0xE0 DUP5 SWAP1 SHL AND DUP2 MSTORE PUSH1 0x4 DUP2 ADD SWAP2 SWAP1 SWAP2 MSTORE CALLER PUSH1 0x24 DUP3 ADD MSTORE PUSH1 0x44 ADD PUSH1 0x20 PUSH1 0x40 MLOAD DUP1 DUP4 SUB DUP2 DUP7 GAS STATICCALL ISZERO DUP1 ISZERO PUSH2 0x48F JUMPI RETURNDATASIZE PUSH1 0x0 DUP1 RETURNDATACOPY RETURNDATASIZE PUSH1 0x0 REVERT JUMPDEST POP POP POP POP PUSH1 0x40 MLOAD RETURNDATASIZE PUSH1 0x1F NOT PUSH1 0x1F DUP3 ADD AND DUP3 ADD DUP1 PUSH1 0x40 MSTORE POP DUP2 ADD SWAP1 PUSH2 0x4B3 SWAP2 SWAP1 PUSH2 0x3E98 JUMP JUMPDEST PUSH2 0x513 JUMPI PUSH1 0x40 MLOAD PUSH3 0x461BCD PUSH1 0xE5 SHL DUP2 MSTORE PUSH1 0x20 PUSH1 0x4 DUP3 ADD MSTORE PUSH1 0x26 PUSH1 0x24 DUP3 ADD MSTORE PUSH32 0x4D656469436861696E3A2063616C6C6572206973206E6F742061206469737472 PUSH1 0x44 DUP3 ADD MSTORE PUSH6 0x34B13ABA37B9 PUSH1 0xD1 SHL PUSH1 0x64 DUP3 ADD MSTORE PUSH1 0x84 ADD JUMPDEST PUSH1 0x40 MLOAD DUP1 SWAP2 SUB SWAP1 REVERT JUMPDEST PUSH2 0x51B PUSH2 0x3669 JUMP JUMPDEST PUSH2 0x523 PUSH2 0x3694 JUMP JUMPDEST DUP4 PUSH1 0x1 DUP2 PUSH1 0x40 MLOAD PUSH2 0x534 SWAP2 SWAP1 PUSH2 0x3EBA JUMP JUMPDEST SWAP1 DUP2 MSTORE PUSH1 0x40 MLOAD SWAP1 DUP2 SWAP1 SUB PUSH1 0x20 ADD SWAP1 KECCAK256 PUSH1 0x8 ADD SLOAD PUSH1 0xFF PUSH2 0x100 SWAP1 SWAP2 DIV AND PUSH2 0x56C JUMPI PUSH1 0x40 MLOAD PUSH3 0x461BCD PUSH1 0xE5 SHL DUP2 MSTORE PUSH1 0x4 ADD PUSH2 0x50A SWAP1 PUSH2 0x3ED6 JUMP JUMPDEST DUP5 PUSH1 0x4 PUSH1 0x1 DUP3 PUSH1 0x40 MLOAD PUSH2 0x57F SWAP2 SWAP1 PUSH2 0x3EBA JUMP JUMPDEST SWAP1 DUP2 MSTORE PUSH1 0x40 MLOAD SWAP1 DUP2 SWAP1 SUB PUSH1 0x20 ADD SWAP1 KECCAK256 PUSH1 0x8 ADD SLOAD PUSH1 0xFF AND PUSH1 0x4 DUP2 GT ISZERO PUSH2 0x5A6 JUMPI PUSH2 0x5A6 PUSH2 0x3D2D JUMP JUMPDEST SUB PUSH2 0x5C3 JUMPI PUSH1 0x40 MLOAD PUSH3 0x461BCD PUSH1 0xE5 SHL DUP2 MSTORE PUSH1 0x4 ADD PUSH2 0x50A SWAP1 PUSH2 0x3F0D JUMP JUMPDEST PUSH1 0x1 DUP1 DUP8 PUSH1 0x40 MLOAD PUSH2 0x5D4 SWAP2 SWAP1 PUSH2 0x3EBA JUMP JUMPDEST SWAP1 DUP2 MSTORE PUSH1 0x40 MLOAD SWAP1 DUP2 SWAP1 SUB PUSH1 0x20 ADD SWAP1 KECCAK256 PUSH1 0x8 ADD SLOAD PUSH1 0xFF AND PUSH1 0x4 DUP2 GT ISZERO PUSH2 0x5FB JUMPI PUSH2 0x5FB PUSH2 0x3D2D JUMP JUMPDEST EQ PUSH2 0x658 JUMPI PUSH1 0x40 MLOAD PUSH3 0x461BCD PUSH1 0xE5 SHL DUP2 MSTORE PUSH1 0x20 PUSH1 0x4 DUP3 ADD MSTORE PUSH1 0x27 PUSH1 0x24 DUP3 ADD MSTORE PUSH32 0x4D656469436861696E3A206261746368206E6F7420696E20496E5472616E7369 PUSH1 0x44 DUP3 ADD MSTORE PUSH7 0x74207374617465 PUSH1 0xC8 SHL PUSH1 0x64 DUP3 ADD MSTORE PUSH1 0x84 ADD PUSH2 0x50A JUMP JUMPDEST CALLER PUSH1 0x1 PUSH1 0x1 PUSH1 0xA0 SHL SUB AND PUSH1 0x3 DUP8 PUSH1 0x40 MLOAD PUSH2 0x672 SWAP2 SWAP1 PUSH2 0x3EBA JUMP JUMPDEST SWAP1 DUP2 MSTORE PUSH1 0x40 MLOAD SWAP1 DUP2 SWAP1 SUB PUSH1 0x20 ADD SWAP1 KECCAK256 SLOAD PUSH1 0x1 PUSH1 0x1 PUSH1 0xA0 SHL SUB AND EQ PUSH2 0x6A8 JUMPI PUSH1 0x40 MLOAD PUSH3 0x461BCD PUSH1 0xE5 SHL DUP2 MSTORE PUSH1 0x4 ADD PUSH2 0x50A SWAP1 PUSH2 0x3F4F JUMP JUMPDEST PUSH32 0x0 PUSH1 0x1 PUSH1 0x1 PUSH1 0xA0 SHL SUB AND PUSH4 0x91D14854 PUSH32 0x0 PUSH1 0x1 PUSH1 0x1 PUSH1 0xA0 SHL SUB AND PUSH4 0xF0C58EA7 PUSH1 0x40 MLOAD DUP2 PUSH4 0xFFFFFFFF AND PUSH1 0xE0 SHL DUP2 MSTORE PUSH1 0x4 ADD PUSH1 0x20 PUSH1 0x40 MLOAD DUP1 DUP4 SUB DUP2 DUP7 GAS STATICCALL ISZERO DUP1 ISZERO PUSH2 0x735 JUMPI RETURNDATASIZE PUSH1 0x0 DUP1 RETURNDATACOPY RETURNDATASIZE PUSH1 0x0 REVERT JUMPDEST POP POP POP POP PUSH1 0x40 MLOAD RETURNDATASIZE PUSH1 0x1F NOT PUSH1 0x1F DUP3 ADD AND DUP3 ADD DUP1 PUSH1 0x40 MSTORE POP DUP2 ADD SWAP1 PUSH2 0x759 SWAP2 SWAP1 PUSH2 0x3E7F JUMP JUMPDEST PUSH1 0x40 MLOAD PUSH1 0x1 PUSH1 0x1 PUSH1 0xE0 SHL SUB NOT PUSH1 0xE0 DUP5 SWAP1 SHL AND DUP2 MSTORE PUSH1 0x4 DUP2 ADD SWAP2 SWAP1 SWAP2 MSTORE PUSH1 0x1 PUSH1 0x1 PUSH1 0xA0 SHL SUB DUP9 AND PUSH1 0x24 DUP3 ADD MSTORE PUSH1 0x44 ADD PUSH1 0x20 PUSH1 0x40 MLOAD DUP1 DUP4 SUB DUP2 DUP7 GAS STATICCALL ISZERO DUP1 ISZERO PUSH2 0x7A4 JUMPI RETURNDATASIZE PUSH1 0x0 DUP1 RETURNDATACOPY RETURNDATASIZE PUSH1 0x0 REVERT JUMPDEST POP POP POP POP PUSH1 0x40 MLOAD RETURNDATASIZE PUSH1 0x1F NOT PUSH1 0x1F DUP3 ADD AND DUP3 ADD DUP1 PUSH1 0x40 MSTORE POP DUP2 ADD SWAP1 PUSH2 0x7C8 SWAP2 SWAP1 PUSH2 0x3E98 JUMP JUMPDEST PUSH2 0x82E JUMPI PUSH1 0x40 MLOAD PUSH3 0x461BCD PUSH1 0xE5 SHL DUP2 MSTORE PUSH1 0x20 PUSH1 0x4 DUP3 ADD MSTORE PUSH1 0x31 PUSH1 0x24 DUP3 ADD MSTORE PUSH32 0x4D656469436861696E3A20726563697069656E74206973206E6F742061207265 PUSH1 0x44 DUP3 ADD MSTORE PUSH17 0x676973746572656420706861726D616379 PUSH1 0x78 SHL PUSH1 0x64 DUP3 ADD MSTORE PUSH1 0x84 ADD PUSH2 0x50A JUMP JUMPDEST PUSH1 0x1 PUSH1 0x1 PUSH1 0xA0 SHL SUB DUP6 AND PUSH2 0x87E JUMPI PUSH1 0x40 MLOAD PUSH3 0x461BCD PUSH1 0xE5 SHL DUP2 MSTORE PUSH1 0x20 PUSH1 0x4 DUP3 ADD MSTORE PUSH1 0x17 PUSH1 0x24 DUP3 ADD MSTORE PUSH23 0x4D656469436861696E3A207A65726F2061646472657373 PUSH1 0x48 SHL PUSH1 0x44 DUP3 ADD MSTORE PUSH1 0x64 ADD PUSH2 0x50A JUMP JUMPDEST PUSH1 0x2 PUSH1 0x1 DUP8 PUSH1 0x40 MLOAD PUSH2 0x890 SWAP2 SWAP1 PUSH2 0x3EBA JUMP JUMPDEST SWAP1 DUP2 MSTORE PUSH1 0x40 MLOAD SWAP1 DUP2 SWAP1 SUB PUSH1 0x20 ADD SWAP1 KECCAK256 PUSH1 0x8 ADD DUP1 SLOAD PUSH1 0xFF NOT AND PUSH1 0x1 DUP4 PUSH1 0x4 DUP2 GT ISZERO PUSH2 0x8BC JUMPI PUSH2 0x8BC PUSH2 0x3D2D JUMP JUMPDEST MUL OR SWAP1 SSTORE POP DUP5 PUSH1 0x3 DUP8 PUSH1 0x40 MLOAD PUSH2 0x8D2 SWAP2 SWAP1 PUSH2 0x3EBA JUMP JUMPDEST SWAP1 DUP2 MSTORE PUSH1 0x40 MLOAD SWAP1 DUP2 SWAP1 SUB PUSH1 0x20 ADD SWAP1 KECCAK256 DUP1 SLOAD PUSH1 0x1 PUSH1 0x1 PUSH1 0xA0 SHL SUB SWAP3 SWAP1 SWAP3 AND PUSH1 0x1 PUSH1 0x1 PUSH1 0xA0 SHL SUB NOT SWAP1 SWAP3 AND SWAP2 SWAP1 SWAP2 OR SWAP1 SSTORE PUSH1 0x7 DUP1 SLOAD SWAP1 PUSH1 0x0 PUSH2 0x911 DUP4 PUSH2 0x3FAD JUMP JUMPDEST SWAP2 SWAP1 POP SSTORE POP PUSH1 0x2 DUP7 PUSH1 0x40 MLOAD PUSH2 0x926 SWAP2 SWAP1 PUSH2 0x3EBA JUMP JUMPDEST SWAP1 DUP2 MSTORE PUSH1 0x40 DUP1 MLOAD SWAP2 DUP3 SWAP1 SUB PUSH1 0x20 SWAP1 DUP2 ADD DUP4 KECCAK256 PUSH1 0xC0 DUP5 ADD DUP4 MSTORE CALLER DUP5 MSTORE PUSH1 0x1 PUSH1 0x1 PUSH1 0xA0 SHL SUB DUP10 DUP2 AND DUP6 DUP5 ADD SWAP1 DUP2 MSTORE DUP5 MLOAD DUP1 DUP7 ADD DUP7 MSTORE PUSH1 0xB DUP2 MSTORE PUSH11 0x2224A9AA2924A12AAA27A9 PUSH1 0xA9 SHL DUP2 DUP7 ADD MSTORE SWAP5 DUP7 ADD SWAP5 DUP6 MSTORE TIMESTAMP PUSH1 0x60 DUP8 ADD MSTORE PUSH1 0x80 DUP7 ADD DUP11 SWAP1 MSTORE PUSH1 0xA0 DUP7 ADD DUP10 SWAP1 MSTORE DUP3 SLOAD PUSH1 0x1 DUP2 DUP2 ADD DUP6 SSTORE PUSH1 0x0 SWAP5 DUP6 MSTORE SWAP5 SWAP1 SWAP4 KECCAK256 DUP7 MLOAD PUSH1 0x6 SWAP1 SWAP5 MUL ADD DUP1 SLOAD SWAP4 DUP4 AND PUSH1 0x1 PUSH1 0x1 PUSH1 0xA0 SHL SUB NOT SWAP5 DUP6 AND OR DUP2 SSTORE SWAP1 MLOAD SWAP4 DUP2 ADD DUP1 SLOAD SWAP5 SWAP1 SWAP3 AND SWAP4 SWAP1 SWAP3 AND SWAP3 SWAP1 SWAP3 OR SWAP1 SWAP2 SSTORE SWAP1 MLOAD PUSH1 0x2 DUP3 ADD SWAP1 PUSH2 0x9DF SWAP1 DUP3 PUSH2 0x4045 JUMP JUMPDEST POP PUSH1 0x60 DUP3 ADD MLOAD PUSH1 0x3 DUP3 ADD SSTORE PUSH1 0x80 DUP3 ADD MLOAD PUSH1 0x4 DUP3 ADD SWAP1 PUSH2 0x9FE SWAP1 DUP3 PUSH2 0x4045 JUMP JUMPDEST POP PUSH1 0xA0 DUP3 ADD MLOAD PUSH1 0x5 DUP3 ADD SWAP1 PUSH2 0xA13 SWAP1 DUP3 PUSH2 0x4045 JUMP JUMPDEST POP POP POP DUP5 PUSH1 0x1 PUSH1 0x1 PUSH1 0xA0 SHL SUB AND CALLER PUSH1 0x1 PUSH1 0x1 PUSH1 0xA0 SHL SUB AND DUP8 PUSH1 0x40 MLOAD PUSH2 0xA38 SWAP2 SWAP1 PUSH2 0x3EBA JUMP JUMPDEST PUSH1 0x40 MLOAD DUP1 SWAP2 SUB SWAP1 KECCAK256 PUSH32 0xB1EDAA5350293E3FEF06E7307AA5A5B90B82FF163F359217F939982B1CF74376 PUSH1 0x2 PUSH1 0x40 MLOAD PUSH2 0xA70 SWAP2 SWAP1 PUSH2 0x4105 JUMP JUMPDEST PUSH1 0x40 MLOAD DUP1 SWAP2 SUB SWAP1 LOG4 POP POP PUSH2 0xA91 PUSH1 0x1 PUSH1 0x0 DUP1 MLOAD PUSH1 0x20 PUSH2 0x421A DUP4 CODECOPY DUP2 MLOAD SWAP2 MSTORE SSTORE JUMP JUMPDEST POP POP POP POP JUMP JUMPDEST PUSH32 0x0 PUSH1 0x1 PUSH1 0x1 PUSH1 0xA0 SHL SUB AND PUSH4 0x91D14854 PUSH32 0x0 PUSH1 0x1 PUSH1 0x1 PUSH1 0xA0 SHL SUB AND PUSH4 0x965288B0 PUSH1 0x40 MLOAD DUP2 PUSH4 0xFFFFFFFF AND PUSH1 0xE0 SHL DUP2 MSTORE PUSH1 0x4 ADD PUSH1 0x20 PUSH1 0x40 MLOAD DUP1 DUP4 SUB DUP2 DUP7 GAS STATICCALL ISZERO DUP1 ISZERO PUSH2 0xB24 JUMPI RETURNDATASIZE PUSH1 0x0 DUP1 RETURNDATACOPY RETURNDATASIZE PUSH1 0x0 REVERT JUMPDEST POP POP POP POP PUSH1 0x40 MLOAD RETURNDATASIZE PUSH1 0x1F NOT PUSH1 0x1F DUP3 ADD AND DUP3 ADD DUP1 PUSH1 0x40 MSTORE POP DUP2 ADD SWAP1 PUSH2 0xB48 SWAP2 SWAP1 PUSH2 0x3E7F JUMP JUMPDEST PUSH1 0x40 MLOAD PUSH1 0x1 PUSH1 0x1 PUSH1 0xE0 SHL SUB NOT PUSH1 0xE0 DUP5 SWAP1 SHL AND DUP2 MSTORE PUSH1 0x4 DUP2 ADD SWAP2 SWAP1 SWAP2 MSTORE CALLER PUSH1 0x24 DUP3 ADD MSTORE PUSH1 0x44 ADD PUSH1 0x20 PUSH1 0x40 MLOAD DUP1 DUP4 SUB DUP2 DUP7 GAS STATICCALL ISZERO DUP1 ISZERO PUSH2 0xB8A JUMPI RETURNDATASIZE PUSH1 0x0 DUP1 RETURNDATACOPY RETURNDATASIZE PUSH1 0x0 REVERT JUMPDEST POP POP POP POP PUSH1 0x40 MLOAD RETURNDATASIZE PUSH1 0x1F NOT PUSH1 0x1F DUP3 ADD AND DUP3 ADD DUP1 PUSH1 0x40 MSTORE POP DUP2 ADD SWAP1 PUSH2 0xBAE SWAP2 SWAP1 PUSH2 0x3E98 JUMP JUMPDEST PUSH2 0xBCA JUMPI PUSH1 0x40 MLOAD PUSH3 0x461BCD PUSH1 0xE5 SHL DUP2 MSTORE PUSH1 0x4 ADD PUSH2 0x50A SWAP1 PUSH2 0x4119 JUMP JUMPDEST PUSH2 0xBD2 PUSH2 0x3669 JUMP JUMPDEST PUSH2 0xBDA PUSH2 0x3694 JUMP JUMPDEST PUSH1 0x0 DUP7 MLOAD GT PUSH2 0xC36 JUMPI PUSH1 0x40 MLOAD PUSH3 0x461BCD PUSH1 0xE5 SHL DUP2 MSTORE PUSH1 0x20 PUSH1 0x4 DUP3 ADD MSTORE PUSH1 0x22 PUSH1 0x24 DUP3 ADD MSTORE PUSH32 0x4D656469436861696E3A20626174636849642063616E6E6F7420626520656D70 PUSH1 0x44 DUP3 ADD MSTORE PUSH2 0x7479 PUSH1 0xF0 SHL PUSH1 0x64 DUP3 ADD MSTORE PUSH1 0x84 ADD PUSH2 0x50A JUMP JUMPDEST PUSH1 0x0 DUP6 MLOAD GT PUSH2 0xC97 JUMPI PUSH1 0x40 MLOAD PUSH3 0x461BCD PUSH1 0xE5 SHL DUP2 MSTORE PUSH1 0x20 PUSH1 0x4 DUP3 ADD MSTORE PUSH1 0x27 PUSH1 0x24 DUP3 ADD MSTORE PUSH32 0x4D656469436861696E3A206D65646963696E654E616D652063616E6E6F742062 PUSH1 0x44 DUP3 ADD MSTORE PUSH7 0x6520656D707479 PUSH1 0xC8 SHL PUSH1 0x64 DUP3 ADD MSTORE PUSH1 0x84 ADD PUSH2 0x50A JUMP JUMPDEST PUSH1 0x0 DUP5 MLOAD GT PUSH2 0xCF8 JUMPI PUSH1 0x40 MLOAD PUSH3 0x461BCD PUSH1 0xE5 SHL DUP2 MSTORE PUSH1 0x20 PUSH1 0x4 DUP3 ADD MSTORE PUSH1 0x27 PUSH1 0x24 DUP3 ADD MSTORE PUSH32 0x4D656469436861696E3A206D616E7566616374757265722063616E6E6F742062 PUSH1 0x44 DUP3 ADD MSTORE PUSH7 0x6520656D707479 PUSH1 0xC8 SHL PUSH1 0x64 DUP3 ADD MSTORE PUSH1 0x84 ADD PUSH2 0x50A JUMP JUMPDEST PUSH1 0x1 DUP7 PUSH1 0x40 MLOAD PUSH2 0xD08 SWAP2 SWAP1 PUSH2 0x3EBA JUMP JUMPDEST SWAP1 DUP2 MSTORE PUSH1 0x40 MLOAD SWAP1 DUP2 SWAP1 SUB PUSH1 0x20 ADD SWAP1 KECCAK256 PUSH1 0x8 ADD SLOAD PUSH1 0xFF PUSH2 0x100 SWAP1 SWAP2 DIV AND ISZERO PUSH2 0xD7F JUMPI PUSH1 0x40 MLOAD PUSH3 0x461BCD PUSH1 0xE5 SHL DUP2 MSTORE PUSH1 0x20 PUSH1 0x4 DUP3 ADD MSTORE PUSH1 0x25 PUSH1 0x24 DUP3 ADD MSTORE PUSH32 0x4D656469436861696E3A206261746368496420616C7265616479207265676973 PUSH1 0x44 DUP3 ADD MSTORE PUSH5 0x1D195C9959 PUSH1 0xDA SHL PUSH1 0x64 DUP3 ADD MSTORE PUSH1 0x84 ADD PUSH2 0x50A JUMP JUMPDEST PUSH1 0x0 DUP3 GT PUSH2 0xDCF JUMPI PUSH1 0x40 MLOAD PUSH3 0x461BCD PUSH1 0xE5 SHL DUP2 MSTORE PUSH1 0x20 PUSH1 0x4 DUP3 ADD MSTORE PUSH1 0x1F PUSH1 0x24 DUP3 ADD MSTORE PUSH32 0x4D656469436861696E3A207175616E74697479206D757374206265203E203000 PUSH1 0x44 DUP3 ADD MSTORE PUSH1 0x64 ADD PUSH2 0x50A JUMP JUMPDEST TIMESTAMP DUP4 GT PUSH2 0xE2E JUMPI PUSH1 0x40 MLOAD PUSH3 0x461BCD PUSH1 0xE5 SHL DUP2 MSTORE PUSH1 0x20 PUSH1 0x4 DUP3 ADD MSTORE PUSH1 0x27 PUSH1 0x24 DUP3 ADD MSTORE PUSH32 0x4D656469436861696E3A20657870697279206D75737420626520696E20746865 PUSH1 0x44 DUP3 ADD MSTORE PUSH7 0x20667574757265 PUSH1 0xC8 SHL PUSH1 0x64 DUP3 ADD MSTORE PUSH1 0x84 ADD PUSH2 0x50A JUMP JUMPDEST TIMESTAMP DUP1 DUP5 GT PUSH2 0xE92 JUMPI PUSH1 0x40 MLOAD PUSH3 0x461BCD PUSH1 0xE5 SHL DUP2 MSTORE PUSH1 0x20 PUSH1 0x4 DUP3 ADD MSTORE PUSH1 0x2B PUSH1 0x24 DUP3 ADD MSTORE PUSH32 0x4D656469436861696E3A20657870697279206D75737420626520616674657220 PUSH1 0x44 DUP3 ADD MSTORE PUSH11 0x6D616E7566616374757265 PUSH1 0xA8 SHL PUSH1 0x64 DUP3 ADD MSTORE PUSH1 0x84 ADD PUSH2 0x50A JUMP JUMPDEST PUSH1 0x40 MLOAD DUP1 PUSH2 0x140 ADD PUSH1 0x40 MSTORE DUP1 DUP9 DUP2 MSTORE PUSH1 0x20 ADD DUP8 DUP2 MSTORE PUSH1 0x20 ADD DUP7 DUP2 MSTORE PUSH1 0x20 ADD CALLER PUSH1 0x1 PUSH1 0x1 PUSH1 0xA0 SHL SUB AND DUP2 MSTORE PUSH1 0x20 ADD DUP3 DUP2 MSTORE PUSH1 0x20 ADD DUP6 DUP2 MSTORE PUSH1 0x20 ADD DUP5 DUP2 MSTORE PUSH1 0x20 ADD DUP4 DUP2 MSTORE PUSH1 0x20 ADD PUSH1 0x0 PUSH1 0x4 DUP2 GT ISZERO PUSH2 0xEEA JUMPI PUSH2 0xEEA PUSH2 0x3D2D JUMP JUMPDEST DUP2 MSTORE PUSH1 0x1 PUSH1 0x20 SWAP1 SWAP2 ADD DUP2 SWAP1 MSTORE PUSH1 0x40 MLOAD PUSH2 0xF04 SWAP1 DUP11 SWAP1 PUSH2 0x3EBA JUMP JUMPDEST SWAP1 DUP2 MSTORE PUSH1 0x40 MLOAD SWAP1 DUP2 SWAP1 SUB PUSH1 0x20 ADD SWAP1 KECCAK256 DUP2 MLOAD DUP2 SWAP1 PUSH2 0xF21 SWAP1 DUP3 PUSH2 0x4045 JUMP JUMPDEST POP PUSH1 0x20 DUP3 ADD MLOAD PUSH1 0x1 DUP3 ADD SWAP1 PUSH2 0xF36 SWAP1 DUP3 PUSH2 0x4045 JUMP JUMPDEST POP PUSH1 0x40 DUP3 ADD MLOAD PUSH1 0x2 DUP3 ADD SWAP1 PUSH2 0xF4B SWAP1 DUP3 PUSH2 0x4045 JUMP JUMPDEST POP PUSH1 0x60 DUP3 ADD MLOAD PUSH1 0x3 DUP3 ADD DUP1 SLOAD PUSH1 0x1 PUSH1 0x1 PUSH1 0xA0 SHL SUB NOT AND PUSH1 0x1 PUSH1 0x1 PUSH1 0xA0 SHL SUB SWAP1 SWAP3 AND SWAP2 SWAP1 SWAP2 OR SWAP1 SSTORE PUSH1 0x80 DUP3 ADD MLOAD PUSH1 0x4 DUP3 ADD SSTORE PUSH1 0xA0 DUP3 ADD MLOAD PUSH1 0x5 DUP3 ADD SSTORE PUSH1 0xC0 DUP3 ADD MLOAD PUSH1 0x6 DUP3 ADD SSTORE PUSH1 0xE0 DUP3 ADD MLOAD PUSH1 0x7 DUP3 ADD SWAP1 PUSH2 0xFA4 SWAP1 DUP3 PUSH2 0x4045 JUMP JUMPDEST POP PUSH2 0x100 DUP3 ADD MLOAD PUSH1 0x8 DUP3 ADD DUP1 SLOAD PUSH1 0xFF NOT AND PUSH1 0x1 DUP4 PUSH1 0x4 DUP2 GT ISZERO PUSH2 0xFC9 JUMPI PUSH2 0xFC9 PUSH2 0x3D2D JUMP JUMPDEST MUL OR SWAP1 SSTORE POP PUSH2 0x120 DUP3 ADD MLOAD DUP2 PUSH1 0x8 ADD PUSH1 0x1 PUSH2 0x100 EXP DUP2 SLOAD DUP2 PUSH1 0xFF MUL NOT AND SWAP1 DUP4 ISZERO ISZERO MUL OR SWAP1 SSTORE POP SWAP1 POP POP CALLER PUSH1 0x3 DUP9 PUSH1 0x40 MLOAD PUSH2 0x1003 SWAP2 SWAP1 PUSH2 0x3EBA JUMP JUMPDEST SWAP1 DUP2 MSTORE PUSH1 0x40 MLOAD SWAP1 DUP2 SWAP1 SUB PUSH1 0x20 ADD SWAP1 KECCAK256 DUP1 SLOAD PUSH1 0x1 PUSH1 0x1 PUSH1 0xA0 SHL SUB SWAP3 SWAP1 SWAP3 AND PUSH1 0x1 PUSH1 0x1 PUSH1 0xA0 SHL SUB NOT SWAP1 SWAP3 AND SWAP2 SWAP1 SWAP2 OR SWAP1 SSTORE PUSH1 0x5 DUP1 SLOAD PUSH1 0x1 DUP2 ADD DUP3 SSTORE PUSH1 0x0 SWAP2 SWAP1 SWAP2 MSTORE PUSH32 0x36B6384B5ECA791C62761152D0C79BB0604C104A5FB6F4EB0703F3154BB3DB0 ADD PUSH2 0x106E DUP9 DUP3 PUSH2 0x4045 JUMP JUMPDEST POP PUSH1 0x6 DUP1 SLOAD SWAP1 PUSH1 0x0 PUSH2 0x107F DUP4 PUSH2 0x3FAD JUMP JUMPDEST SWAP2 SWAP1 POP SSTORE POP PUSH1 0x2 DUP8 PUSH1 0x40 MLOAD PUSH2 0x1094 SWAP2 SWAP1 PUSH2 0x3EBA JUMP JUMPDEST SWAP1 DUP2 MSTORE PUSH1 0x40 DUP1 MLOAD SWAP2 DUP3 SWAP1 SUB PUSH1 0x20 SWAP1 DUP2 ADD DUP4 KECCAK256 PUSH1 0xC0 DUP5 ADD DUP4 MSTORE PUSH1 0x0 DUP5 MSTORE CALLER DUP5 DUP4 ADD MSTORE DUP3 MLOAD DUP1 DUP5 ADD DUP5 MSTORE PUSH1 0xC DUP2 MSTORE PUSH12 0x26A0A72AA320A1AA2AA922A9 PUSH1 0xA1 SHL DUP2 DUP5 ADD MSTORE DUP5 DUP5 ADD MSTORE TIMESTAMP PUSH1 0x60 DUP6 ADD MSTORE DUP3 MLOAD DUP1 DUP5 ADD DUP5 MSTORE PUSH1 0x16 DUP2 MSTORE PUSH22 0x4D616E75666163747572696E6720466163696C697479 PUSH1 0x50 SHL DUP2 DUP5 ADD MSTORE PUSH1 0x80 DUP6 ADD MSTORE SWAP2 MLOAD SWAP2 SWAP3 SWAP2 PUSH1 0xA0 DUP4 ADD SWAP2 PUSH2 0x1122 SWAP2 DUP11 SWAP2 ADD PUSH2 0x4160 JUMP JUMPDEST PUSH1 0x40 DUP1 MLOAD PUSH1 0x1F NOT DUP2 DUP5 SUB ADD DUP2 MSTORE SWAP2 DUP2 MSTORE SWAP2 MSTORE DUP3 SLOAD PUSH1 0x1 DUP2 DUP2 ADD DUP6 SSTORE PUSH1 0x0 SWAP5 DUP6 MSTORE PUSH1 0x20 SWAP5 DUP6 SWAP1 KECCAK256 DUP5 MLOAD PUSH1 0x6 SWAP1 SWAP4 MUL ADD DUP1 SLOAD PUSH1 0x1 PUSH1 0x1 PUSH1 0xA0 SHL SUB SWAP4 DUP5 AND PUSH1 0x1 PUSH1 0x1 PUSH1 0xA0 SHL SUB NOT SWAP2 DUP3 AND OR DUP3 SSTORE SWAP6 DUP6 ADD MLOAD SWAP2 DUP2 ADD DUP1 SLOAD SWAP3 SWAP1 SWAP4 AND SWAP2 SWAP1 SWAP6 AND OR SWAP1 SSTORE DUP2 ADD MLOAD SWAP1 SWAP2 SWAP1 PUSH1 0x2 DUP3 ADD SWAP1 PUSH2 0x1195 SWAP1 DUP3 PUSH2 0x4045 JUMP JUMPDEST POP PUSH1 0x60 DUP3 ADD MLOAD PUSH1 0x3 DUP3 ADD SSTORE PUSH1 0x80 DUP3 ADD MLOAD PUSH1 0x4 DUP3 ADD SWAP1 PUSH2 0x11B4 SWAP1 DUP3 PUSH2 0x4045 JUMP JUMPDEST POP PUSH1 0xA0 DUP3 ADD MLOAD PUSH1 0x5 DUP3 ADD SWAP1 PUSH2 0x11C9 SWAP1 DUP3 PUSH2 0x4045 JUMP JUMPDEST POP POP PUSH1 0x40 MLOAD CALLER SWAP2 POP PUSH2 0x11DC SWAP1 DUP10 SWAP1 PUSH2 0x3EBA JUMP JUMPDEST PUSH1 0x40 MLOAD SWAP1 DUP2 SWAP1 SUB DUP2 KECCAK256 TIMESTAMP DUP3 MSTORE SWAP1 PUSH32 0x596909E876E32EDB0C6F53EAFD21A29B46D021A679FA51151ED317272B00976F SWAP1 PUSH1 0x20 ADD PUSH1 0x40 MLOAD DUP1 SWAP2 SUB SWAP1 LOG3 POP PUSH2 0x122E PUSH1 0x1 PUSH1 0x0 DUP1 MLOAD PUSH1 0x20 PUSH2 0x421A DUP4 CODECOPY DUP2 MLOAD SWAP2 MSTORE SSTORE JUMP JUMPDEST POP POP POP POP POP POP JUMP JUMPDEST PUSH1 0x0 PUSH1 0x60 PUSH1 0x0 PUSH1 0x1 DUP5 PUSH1 0x40 MLOAD PUSH2 0x124C SWAP2 SWAP1 PUSH2 0x3EBA JUMP JUMPDEST SWAP1 DUP2 MSTORE PUSH1 0x40 MLOAD SWAP1 DUP2 SWAP1 SUB PUSH1 0x20 ADD SWAP1 KECCAK256 PUSH1 0x8 ADD SLOAD PUSH1 0xFF PUSH2 0x100 SWAP1 SWAP2 DIV AND PUSH2 0x1298 JUMPI POP POP PUSH1 0x40 DUP1 MLOAD DUP1 DUP3 ADD SWAP1 SWAP2 MSTORE PUSH1 0x9 DUP2 MSTORE PUSH9 0x1393D517D193D55391 PUSH1 0xBA SHL PUSH1 0x20 DUP3 ADD MSTORE PUSH1 0x0 SWAP2 POP DUP2 PUSH2 0x19ED JUMP JUMPDEST PUSH1 0x0 PUSH1 0x1 DUP6 PUSH1 0x40 MLOAD PUSH2 0x12AA SWAP2 SWAP1 PUSH2 0x3EBA JUMP JUMPDEST SWAP1 DUP2 MSTORE PUSH1 0x20 ADD PUSH1 0x40 MLOAD DUP1 SWAP2 SUB SWAP1 KECCAK256 PUSH1 0x40 MLOAD DUP1 PUSH2 0x140 ADD PUSH1 0x40 MSTORE SWAP1 DUP2 PUSH1 0x0 DUP3 ADD DUP1 SLOAD PUSH2 0x12D4 SWAP1 PUSH2 0x3FC6 JUMP JUMPDEST DUP1 PUSH1 0x1F ADD PUSH1 0x20 DUP1 SWAP2 DIV MUL PUSH1 0x20 ADD PUSH1 0x40 MLOAD SWAP1 DUP2 ADD PUSH1 0x40 MSTORE DUP1 SWAP3 SWAP2 SWAP1 DUP2 DUP2 MSTORE PUSH1 0x20 ADD DUP3 DUP1 SLOAD PUSH2 0x1300 SWAP1 PUSH2 0x3FC6 JUMP JUMPDEST DUP1 ISZERO PUSH2 0x134D JUMPI DUP1 PUSH1 0x1F LT PUSH2 0x1322 JUMPI PUSH2 0x100 DUP1 DUP4 SLOAD DIV MUL DUP4 MSTORE SWAP2 PUSH1 0x20 ADD SWAP2 PUSH2 0x134D JUMP JUMPDEST DUP3 ADD SWAP2 SWAP1 PUSH1 0x0 MSTORE PUSH1 0x20 PUSH1 0x0 KECCAK256 SWAP1 JUMPDEST DUP2 SLOAD DUP2 MSTORE SWAP1 PUSH1 0x1 ADD SWAP1 PUSH1 0x20 ADD DUP1 DUP4 GT PUSH2 0x1330 JUMPI DUP3 SWAP1 SUB PUSH1 0x1F AND DUP3 ADD SWAP2 JUMPDEST POP POP POP POP POP DUP2 MSTORE PUSH1 0x20 ADD PUSH1 0x1 DUP3 ADD DUP1 SLOAD PUSH2 0x1366 SWAP1 PUSH2 0x3FC6 JUMP JUMPDEST DUP1 PUSH1 0x1F ADD PUSH1 0x20 DUP1 SWAP2 DIV MUL PUSH1 0x20 ADD PUSH1 0x40 MLOAD SWAP1 DUP2 ADD PUSH1 0x40 MSTORE DUP1 SWAP3 SWAP2 SWAP1 DUP2 DUP2 MSTORE PUSH1 0x20 ADD DUP3 DUP1 SLOAD PUSH2 0x1392 SWAP1 PUSH2 0x3FC6 JUMP JUMPDEST DUP1 ISZERO PUSH2 0x13DF JUMPI DUP1 PUSH1 0x1F LT PUSH2 0x13B4 JUMPI PUSH2 0x100 DUP1 DUP4 SLOAD DIV MUL DUP4 MSTORE SWAP2 PUSH1 0x20 ADD SWAP2 PUSH2 0x13DF JUMP JUMPDEST DUP3 ADD SWAP2 SWAP1 PUSH1 0x0 MSTORE PUSH1 0x20 PUSH1 0x0 KECCAK256 SWAP1 JUMPDEST DUP2 SLOAD DUP2 MSTORE SWAP1 PUSH1 0x1 ADD SWAP1 PUSH1 0x20 ADD DUP1 DUP4 GT PUSH2 0x13C2 JUMPI DUP3 SWAP1 SUB PUSH1 0x1F AND DUP3 ADD SWAP2 JUMPDEST POP POP POP POP POP DUP2 MSTORE PUSH1 0x20 ADD PUSH1 0x2 DUP3 ADD DUP1 SLOAD PUSH2 0x13F8 SWAP1 PUSH2 0x3FC6 JUMP JUMPDEST DUP1 PUSH1 0x1F ADD PUSH1 0x20 DUP1 SWAP2 DIV MUL PUSH1 0x20 ADD PUSH1 0x40 MLOAD SWAP1 DUP2 ADD PUSH1 0x40 MSTORE DUP1 SWAP3 SWAP2 SWAP1 DUP2 DUP2 MSTORE PUSH1 0x20 ADD DUP3 DUP1 SLOAD PUSH2 0x1424 SWAP1 PUSH2 0x3FC6 JUMP JUMPDEST DUP1 ISZERO PUSH2 0x1471 JUMPI DUP1 PUSH1 0x1F LT PUSH2 0x1446 JUMPI PUSH2 0x100 DUP1 DUP4 SLOAD DIV MUL DUP4 MSTORE SWAP2 PUSH1 0x20 ADD SWAP2 PUSH2 0x1471 JUMP JUMPDEST DUP3 ADD SWAP2 SWAP1 PUSH1 0x0 MSTORE PUSH1 0x20 PUSH1 0x0 KECCAK256 SWAP1 JUMPDEST DUP2 SLOAD DUP2 MSTORE SWAP1 PUSH1 0x1 ADD SWAP1 PUSH1 0x20 ADD DUP1 DUP4 GT PUSH2 0x1454 JUMPI DUP3 SWAP1 SUB PUSH1 0x1F AND DUP3 ADD SWAP2 JUMPDEST POP POP POP SWAP2 DUP4 MSTORE POP POP PUSH1 0x3 DUP3 ADD SLOAD PUSH1 0x1 PUSH1 0x1 PUSH1 0xA0 SHL SUB AND PUSH1 0x20 DUP3 ADD MSTORE PUSH1 0x4 DUP3 ADD SLOAD PUSH1 0x40 DUP3 ADD MSTORE PUSH1 0x5 DUP3 ADD SLOAD PUSH1 0x60 DUP3 ADD MSTORE PUSH1 0x6 DUP3 ADD SLOAD PUSH1 0x80 DUP3 ADD MSTORE PUSH1 0x7 DUP3 ADD DUP1 SLOAD PUSH1 0xA0 SWAP1 SWAP3 ADD SWAP2 PUSH2 0x14BF SWAP1 PUSH2 0x3FC6 JUMP JUMPDEST DUP1 PUSH1 0x1F ADD PUSH1 0x20 DUP1 SWAP2 DIV MUL PUSH1 0x20 ADD PUSH1 0x40 MLOAD SWAP1 DUP2 ADD PUSH1 0x40 MSTORE DUP1 SWAP3 SWAP2 SWAP1 DUP2 DUP2 MSTORE PUSH1 0x20 ADD DUP3 DUP1 SLOAD PUSH2 0x14EB SWAP1 PUSH2 0x3FC6 JUMP JUMPDEST DUP1 ISZERO PUSH2 0x1538 JUMPI DUP1 PUSH1 0x1F LT PUSH2 0x150D JUMPI PUSH2 0x100 DUP1 DUP4 SLOAD DIV MUL DUP4 MSTORE SWAP2 PUSH1 0x20 ADD SWAP2 PUSH2 0x1538 JUMP JUMPDEST DUP3 ADD SWAP2 SWAP1 PUSH1 0x0 MSTORE PUSH1 0x20 PUSH1 0x0 KECCAK256 SWAP1 JUMPDEST DUP2 SLOAD DUP2 MSTORE SWAP1 PUSH1 0x1 ADD SWAP1 PUSH1 0x20 ADD DUP1 DUP4 GT PUSH2 0x151B JUMPI DUP3 SWAP1 SUB PUSH1 0x1F AND DUP3 ADD SWAP2 JUMPDEST POP POP POP SWAP2 DUP4 MSTORE POP POP PUSH1 0x8 DUP3 ADD SLOAD PUSH1 0x20 SWAP1 SWAP2 ADD SWAP1 PUSH1 0xFF AND PUSH1 0x4 DUP2 GT ISZERO PUSH2 0x155F JUMPI PUSH2 0x155F PUSH2 0x3D2D JUMP JUMPDEST PUSH1 0x4 DUP2 GT ISZERO PUSH2 0x1570 JUMPI PUSH2 0x1570 PUSH2 0x3D2D JUMP JUMPDEST DUP2 MSTORE PUSH1 0x8 SWAP2 SWAP1 SWAP2 ADD SLOAD PUSH2 0x100 SWAP1 DIV PUSH1 0xFF AND ISZERO ISZERO PUSH1 0x20 SWAP1 SWAP2 ADD MSTORE PUSH1 0x40 MLOAD SWAP1 SWAP2 POP PUSH1 0x0 SWAP1 PUSH1 0x2 SWAP1 PUSH2 0x15A0 SWAP1 DUP9 SWAP1 PUSH2 0x3EBA JUMP JUMPDEST SWAP1 DUP2 MSTORE PUSH1 0x20 ADD PUSH1 0x40 MLOAD DUP1 SWAP2 SUB SWAP1 KECCAK256 DUP1 SLOAD DUP1 PUSH1 0x20 MUL PUSH1 0x20 ADD PUSH1 0x40 MLOAD SWAP1 DUP2 ADD PUSH1 0x40 MSTORE DUP1 SWAP3 SWAP2 SWAP1 DUP2 DUP2 MSTORE PUSH1 0x20 ADD PUSH1 0x0 SWAP1 JUMPDEST DUP3 DUP3 LT ISZERO PUSH2 0x17E3 JUMPI PUSH1 0x0 DUP5 DUP2 MSTORE PUSH1 0x20 SWAP1 DUP2 SWAP1 KECCAK256 PUSH1 0x40 DUP1 MLOAD PUSH1 0xC0 DUP2 ADD DUP3 MSTORE PUSH1 0x6 DUP7 MUL SWAP1 SWAP3 ADD DUP1 SLOAD PUSH1 0x1 PUSH1 0x1 PUSH1 0xA0 SHL SUB SWAP1 DUP2 AND DUP5 MSTORE PUSH1 0x1 DUP3 ADD SLOAD AND SWAP4 DUP4 ADD SWAP4 SWAP1 SWAP4 MSTORE PUSH1 0x2 DUP4 ADD DUP1 SLOAD SWAP3 SWAP4 SWAP3 SWAP2 DUP5 ADD SWAP2 PUSH2 0x1624 SWAP1 PUSH2 0x3FC6 JUMP JUMPDEST DUP1 PUSH1 0x1F ADD PUSH1 0x20 DUP1 SWAP2 DIV MUL PUSH1 0x20 ADD PUSH1 0x40 MLOAD SWAP1 DUP2 ADD PUSH1 0x40 MSTORE DUP1 SWAP3 SWAP2 SWAP1 DUP2 DUP2 MSTORE PUSH1 0x20 ADD DUP3 DUP1 SLOAD PUSH2 0x1650 SWAP1 PUSH2 0x3FC6 JUMP JUMPDEST DUP1 ISZERO PUSH2 0x169D JUMPI DUP1 PUSH1 0x1F LT PUSH2 0x1672 JUMPI PUSH2 0x100 DUP1 DUP4 SLOAD DIV MUL DUP4 MSTORE SWAP2 PUSH1 0x20 ADD SWAP2 PUSH2 0x169D JUMP JUMPDEST DUP3 ADD SWAP2 SWAP1 PUSH1 0x0 MSTORE PUSH1 0x20 PUSH1 0x0 KECCAK256 SWAP1 JUMPDEST DUP2 SLOAD DUP2 MSTORE SWAP1 PUSH1 0x1 ADD SWAP1 PUSH1 0x20 ADD DUP1 DUP4 GT PUSH2 0x1680 JUMPI DUP3 SWAP1 SUB PUSH1 0x1F AND DUP3 ADD SWAP2 JUMPDEST POP POP POP POP POP DUP2 MSTORE PUSH1 0x20 ADD PUSH1 0x3 DUP3 ADD SLOAD DUP2 MSTORE PUSH1 0x20 ADD PUSH1 0x4 DUP3 ADD DUP1 SLOAD PUSH2 0x16C0 SWAP1 PUSH2 0x3FC6 JUMP JUMPDEST DUP1 PUSH1 0x1F ADD PUSH1 0x20 DUP1 SWAP2 DIV MUL PUSH1 0x20 ADD PUSH1 0x40 MLOAD SWAP1 DUP2 ADD PUSH1 0x40 MSTORE DUP1 SWAP3 SWAP2 SWAP1 DUP2 DUP2 MSTORE PUSH1 0x20 ADD DUP3 DUP1 SLOAD PUSH2 0x16EC SWAP1 PUSH2 0x3FC6 JUMP JUMPDEST DUP1 ISZERO PUSH2 0x1739 JUMPI DUP1 PUSH1 0x1F LT PUSH2 0x170E JUMPI PUSH2 0x100 DUP1 DUP4 SLOAD DIV MUL DUP4 MSTORE SWAP2 PUSH1 0x20 ADD SWAP2 PUSH2 0x1739 JUMP JUMPDEST DUP3 ADD SWAP2 SWAP1 PUSH1 0x0 MSTORE PUSH1 0x20 PUSH1 0x0 KECCAK256 SWAP1 JUMPDEST DUP2 SLOAD DUP2 MSTORE SWAP1 PUSH1 0x1 ADD SWAP1 PUSH1 0x20 ADD DUP1 DUP4 GT PUSH2 0x171C JUMPI DUP3 SWAP1 SUB PUSH1 0x1F AND DUP3 ADD SWAP2 JUMPDEST POP POP POP POP POP DUP2 MSTORE PUSH1 0x20 ADD PUSH1 0x5 DUP3 ADD DUP1 SLOAD PUSH2 0x1752 SWAP1 PUSH2 0x3FC6 JUMP JUMPDEST DUP1 PUSH1 0x1F ADD PUSH1 0x20 DUP1 SWAP2 DIV MUL PUSH1 0x20 ADD PUSH1 0x40 MLOAD SWAP1 DUP2 ADD PUSH1 0x40 MSTORE DUP1 SWAP3 SWAP2 SWAP1 DUP2 DUP2 MSTORE PUSH1 0x20 ADD DUP3 DUP1 SLOAD PUSH2 0x177E SWAP1 PUSH2 0x3FC6 JUMP JUMPDEST DUP1 ISZERO PUSH2 0x17CB JUMPI DUP1 PUSH1 0x1F LT PUSH2 0x17A0 JUMPI PUSH2 0x100 DUP1 DUP4 SLOAD DIV MUL DUP4 MSTORE SWAP2 PUSH1 0x20 ADD SWAP2 PUSH2 0x17CB JUMP JUMPDEST DUP3 ADD SWAP2 SWAP1 PUSH1 0x0 MSTORE PUSH1 0x20 PUSH1 0x0 KECCAK256 SWAP1 JUMPDEST DUP2 SLOAD DUP2 MSTORE SWAP1 PUSH1 0x1 ADD SWAP1 PUSH1 0x20 ADD DUP1 DUP4 GT PUSH2 0x17AE JUMPI DUP3 SWAP1 SUB PUSH1 0x1F AND DUP3 ADD SWAP2 JUMPDEST POP POP POP POP POP DUP2 MSTORE POP POP DUP2 MSTORE PUSH1 0x20 ADD SWAP1 PUSH1 0x1 ADD SWAP1 PUSH2 0x15CE JUMP JUMPDEST POP POP POP POP SWAP1 POP PUSH1 0x0 DUP1 DUP3 MLOAD GT PUSH2 0x17FA JUMPI PUSH1 0x0 PUSH2 0x1826 JUMP JUMPDEST DUP2 PUSH1 0x1 DUP4 MLOAD PUSH2 0x1809 SWAP2 SWAP1 PUSH2 0x419C JUMP JUMPDEST DUP2 MLOAD DUP2 LT PUSH2 0x1819 JUMPI PUSH2 0x1819 PUSH2 0x41AF JUMP JUMPDEST PUSH1 0x20 MUL PUSH1 0x20 ADD ADD MLOAD PUSH1 0x60 ADD MLOAD JUMPDEST SWAP1 POP PUSH1 0x4 DUP4 PUSH2 0x100 ADD MLOAD PUSH1 0x4 DUP2 GT ISZERO PUSH2 0x1841 JUMPI PUSH2 0x1841 PUSH2 0x3D2D JUMP JUMPDEST SUB PUSH2 0x1875 JUMPI PUSH1 0x40 DUP1 MLOAD DUP1 DUP3 ADD SWAP1 SWAP2 MSTORE PUSH1 0x8 DUP2 MSTORE PUSH8 0x149150D053131151 PUSH1 0xC2 SHL PUSH1 0x20 DUP3 ADD MSTORE PUSH1 0x0 SWAP7 POP SWAP5 POP SWAP3 POP PUSH2 0x19ED SWAP2 POP POP JUMP JUMPDEST TIMESTAMP DUP4 PUSH1 0xA0 ADD MLOAD LT ISZERO PUSH2 0x18AF JUMPI PUSH1 0x40 DUP1 MLOAD DUP1 DUP3 ADD SWAP1 SWAP2 MSTORE PUSH1 0x7 DUP2 MSTORE PUSH7 0x11561412549151 PUSH1 0xCA SHL PUSH1 0x20 DUP3 ADD MSTORE PUSH1 0x0 SWAP7 POP SWAP5 POP SWAP3 POP PUSH2 0x19ED SWAP2 POP POP JUMP JUMPDEST PUSH1 0x60 PUSH1 0x0 DUP5 PUSH2 0x100 ADD MLOAD PUSH1 0x4 DUP2 GT ISZERO PUSH2 0x18CA JUMPI PUSH2 0x18CA PUSH2 0x3D2D JUMP JUMPDEST SUB PUSH2 0x18F8 JUMPI POP PUSH1 0x40 DUP1 MLOAD DUP1 DUP3 ADD SWAP1 SWAP2 MSTORE PUSH1 0xC DUP2 MSTORE PUSH12 0x13505395519050D515549151 PUSH1 0xA2 SHL PUSH1 0x20 DUP3 ADD MSTORE PUSH2 0x19E2 JUMP JUMPDEST PUSH1 0x1 DUP5 PUSH2 0x100 ADD MLOAD PUSH1 0x4 DUP2 GT ISZERO PUSH2 0x1911 JUMPI PUSH2 0x1911 PUSH2 0x3D2D JUMP JUMPDEST SUB PUSH2 0x193D JUMPI POP PUSH1 0x40 DUP1 MLOAD DUP1 DUP3 ADD SWAP1 SWAP2 MSTORE PUSH1 0xA DUP2 MSTORE PUSH10 0x125397D514905394D255 PUSH1 0xB2 SHL PUSH1 0x20 DUP3 ADD MSTORE PUSH2 0x19E2 JUMP JUMPDEST PUSH1 0x2 DUP5 PUSH2 0x100 ADD MLOAD PUSH1 0x4 DUP2 GT ISZERO PUSH2 0x1956 JUMPI PUSH2 0x1956 PUSH2 0x3D2D JUMP JUMPDEST SUB PUSH2 0x1983 JUMPI POP PUSH1 0x40 DUP1 MLOAD DUP1 DUP3 ADD SWAP1 SWAP2 MSTORE PUSH1 0xB DUP2 MSTORE PUSH11 0x41545F504841524D414359 PUSH1 0xA8 SHL PUSH1 0x20 DUP3 ADD MSTORE PUSH2 0x19E2 JUMP JUMPDEST PUSH1 0x3 DUP5 PUSH2 0x100 ADD MLOAD PUSH1 0x4 DUP2 GT ISZERO PUSH2 0x199C JUMPI PUSH2 0x199C PUSH2 0x3D2D JUMP JUMPDEST SUB PUSH2 0x19C2 JUMPI POP PUSH1 0x40 DUP1 MLOAD DUP1 DUP3 ADD SWAP1 SWAP2 MSTORE PUSH1 0x4 DUP2 MSTORE PUSH4 0x14D3D311 PUSH1 0xE2 SHL PUSH1 0x20 DUP3 ADD MSTORE PUSH2 0x19E2 JUMP JUMPDEST POP PUSH1 0x40 DUP1 MLOAD DUP1 DUP3 ADD SWAP1 SWAP2 MSTORE PUSH1 0x7 DUP2 MSTORE PUSH7 0x2AA725A727ABA7 PUSH1 0xC9 SHL PUSH1 0x20 DUP3 ADD MSTORE JUMPDEST PUSH1 0x1 SWAP7 POP SWAP5 POP SWAP3 POP POP POP JUMPDEST SWAP2 SWAP4 SWAP1 SWAP3 POP JUMP JUMPDEST PUSH32 0x0 PUSH1 0x1 PUSH1 0x1 PUSH1 0xA0 SHL SUB AND PUSH4 0x91D14854 PUSH32 0x0 PUSH1 0x1 PUSH1 0x1 PUSH1 0xA0 SHL SUB AND PUSH4 0x965288B0 PUSH1 0x40 MLOAD DUP2 PUSH4 0xFFFFFFFF AND PUSH1 0xE0 SHL DUP2 MSTORE PUSH1 0x4 ADD PUSH1 0x20 PUSH1 0x40 MLOAD DUP1 DUP4 SUB DUP2 DUP7 GAS STATICCALL ISZERO DUP1 ISZERO PUSH2 0x1A81 JUMPI RETURNDATASIZE PUSH1 0x0 DUP1 RETURNDATACOPY RETURNDATASIZE PUSH1 0x0 REVERT JUMPDEST POP POP POP POP PUSH1 0x40 MLOAD RETURNDATASIZE PUSH1 0x1F NOT PUSH1 0x1F DUP3 ADD AND DUP3 ADD DUP1 PUSH1 0x40 MSTORE POP DUP2 ADD SWAP1 PUSH2 0x1AA5 SWAP2 SWAP1 PUSH2 0x3E7F JUMP JUMPDEST PUSH1 0x40 MLOAD PUSH1 0x1 PUSH1 0x1 PUSH1 0xE0 SHL SUB NOT PUSH1 0xE0 DUP5 SWAP1 SHL AND DUP2 MSTORE PUSH1 0x4 DUP2 ADD SWAP2 SWAP1 SWAP2 MSTORE CALLER PUSH1 0x24 DUP3 ADD MSTORE PUSH1 0x44 ADD PUSH1 0x20 PUSH1 0x40 MLOAD DUP1 DUP4 SUB DUP2 DUP7 GAS STATICCALL ISZERO DUP1 ISZERO PUSH2 0x1AE7 JUMPI RETURNDATASIZE PUSH1 0x0 DUP1 RETURNDATACOPY RETURNDATASIZE PUSH1 0x0 REVERT JUMPDEST POP POP POP POP PUSH1 0x40 MLOAD RETURNDATASIZE PUSH1 0x1F NOT PUSH1 0x1F DUP3 ADD AND DUP3 ADD DUP1 PUSH1 0x40 MSTORE POP DUP2 ADD SWAP1 PUSH2 0x1B0B SWAP2 SWAP1 PUSH2 0x3E98 JUMP JUMPDEST PUSH2 0x1B27 JUMPI PUSH1 0x40 MLOAD PUSH3 0x461BCD PUSH1 0xE5 SHL DUP2 MSTORE PUSH1 0x4 ADD PUSH2 0x50A SWAP1 PUSH2 0x4119 JUMP JUMPDEST PUSH2 0x1B2F PUSH2 0x3669 JUMP JUMPDEST PUSH2 0x1B37 PUSH2 0x3694 JUMP JUMPDEST DUP2 PUSH1 0x1 DUP2 PUSH1 0x40 MLOAD PUSH2 0x1B48 SWAP2 SWAP1 PUSH2 0x3EBA JUMP JUMPDEST SWAP1 DUP2 MSTORE PUSH1 0x40 MLOAD SWAP1 DUP2 SWAP1 SUB PUSH1 0x20 ADD SWAP1 KECCAK256 PUSH1 0x8 ADD SLOAD PUSH1 0xFF PUSH2 0x100 SWAP1 SWAP2 DIV AND PUSH2 0x1B80 JUMPI PUSH1 0x40 MLOAD PUSH3 0x461BCD PUSH1 0xE5 SHL DUP2 MSTORE PUSH1 0x4 ADD PUSH2 0x50A SWAP1 PUSH2 0x3ED6 JUMP JUMPDEST CALLER PUSH1 0x1 PUSH1 0x1 PUSH1 0xA0 SHL SUB AND PUSH1 0x1 DUP5 PUSH1 0x40 MLOAD PUSH2 0x1B9A SWAP2 SWAP1 PUSH2 0x3EBA JUMP JUMPDEST SWAP1 DUP2 MSTORE PUSH1 0x40 MLOAD SWAP1 DUP2 SWAP1 SUB PUSH1 0x20 ADD SWAP1 KECCAK256 PUSH1 0x3 ADD SLOAD PUSH1 0x1 PUSH1 0x1 PUSH1 0xA0 SHL SUB AND EQ PUSH2 0x1C1C JUMPI PUSH1 0x40 MLOAD PUSH3 0x461BCD PUSH1 0xE5 SHL DUP2 MSTORE PUSH1 0x20 PUSH1 0x4 DUP3 ADD MSTORE PUSH1 0x30 PUSH1 0x24 DUP3 ADD MSTORE PUSH32 0x4D656469436861696E3A206F6E6C79206F726967696E616C206D616E75666163 PUSH1 0x44 DUP3 ADD MSTORE PUSH16 0x1D1D5C995C8818D85B881C9958D85B1B PUSH1 0x82 SHL PUSH1 0x64 DUP3 ADD MSTORE PUSH1 0x84 ADD PUSH2 0x50A JUMP JUMPDEST PUSH1 0x4 PUSH1 0x1 DUP5 PUSH1 0x40 MLOAD PUSH2 0x1C2E SWAP2 SWAP1 PUSH2 0x3EBA JUMP JUMPDEST SWAP1 DUP2 MSTORE PUSH1 0x40 MLOAD SWAP1 DUP2 SWAP1 SUB PUSH1 0x20 ADD SWAP1 KECCAK256 PUSH1 0x8 ADD SLOAD PUSH1 0xFF AND PUSH1 0x4 DUP2 GT ISZERO PUSH2 0x1C55 JUMPI PUSH2 0x1C55 PUSH2 0x3D2D JUMP JUMPDEST SUB PUSH2 0x1CAC JUMPI PUSH1 0x40 MLOAD PUSH3 0x461BCD PUSH1 0xE5 SHL DUP2 MSTORE PUSH1 0x20 PUSH1 0x4 DUP3 ADD MSTORE PUSH1 0x21 PUSH1 0x24 DUP3 ADD MSTORE PUSH32 0x4D656469436861696E3A20626174636820616C726561647920726563616C6C65 PUSH1 0x44 DUP3 ADD MSTORE PUSH1 0x19 PUSH1 0xFA SHL PUSH1 0x64 DUP3 ADD MSTORE PUSH1 0x84 ADD PUSH2 0x50A JUMP JUMPDEST PUSH1 0x0 DUP3 MLOAD GT PUSH2 0x1D0E JUMPI PUSH1 0x40 MLOAD PUSH3 0x461BCD PUSH1 0xE5 SHL DUP2 MSTORE PUSH1 0x20 PUSH1 0x4 DUP3 ADD MSTORE PUSH1 0x28 PUSH1 0x24 DUP3 ADD MSTORE PUSH32 0x4D656469436861696E3A20726563616C6C20726561736F6E2063616E6E6F7420 PUSH1 0x44 DUP3 ADD MSTORE PUSH8 0x626520656D707479 PUSH1 0xC0 SHL PUSH1 0x64 DUP3 ADD MSTORE PUSH1 0x84 ADD PUSH2 0x50A JUMP JUMPDEST PUSH1 0x4 PUSH1 0x1 DUP5 PUSH1 0x40 MLOAD PUSH2 0x1D20 SWAP2 SWAP1 PUSH2 0x3EBA JUMP JUMPDEST SWAP1 DUP2 MSTORE PUSH1 0x40 MLOAD SWAP1 DUP2 SWAP1 SUB PUSH1 0x20 ADD SWAP1 KECCAK256 PUSH1 0x8 ADD DUP1 SLOAD PUSH1 0xFF NOT AND PUSH1 0x1 DUP4 PUSH1 0x4 DUP2 GT ISZERO PUSH2 0x1D4C JUMPI PUSH2 0x1D4C PUSH2 0x3D2D JUMP JUMPDEST MUL OR SWAP1 SSTORE POP DUP2 PUSH1 0x4 DUP5 PUSH1 0x40 MLOAD PUSH2 0x1D62 SWAP2 SWAP1 PUSH2 0x3EBA JUMP JUMPDEST SWAP1 DUP2 MSTORE PUSH1 0x20 ADD PUSH1 0x40 MLOAD DUP1 SWAP2 SUB SWAP1 KECCAK256 SWAP1 DUP2 PUSH2 0x1D7C SWAP2 SWAP1 PUSH2 0x4045 JUMP JUMPDEST POP PUSH1 0x8 DUP1 SLOAD SWAP1 PUSH1 0x0 PUSH2 0x1D8D DUP4 PUSH2 0x3FAD JUMP JUMPDEST SWAP2 SWAP1 POP SSTORE POP PUSH1 0x2 DUP4 PUSH1 0x40 MLOAD PUSH2 0x1DA2 SWAP2 SWAP1 PUSH2 0x3EBA JUMP JUMPDEST SWAP1 DUP2 MSTORE PUSH1 0x40 DUP1 MLOAD SWAP2 DUP3 SWAP1 SUB PUSH1 0x20 SWAP1 DUP2 ADD DUP4 KECCAK256 PUSH1 0xC0 DUP5 ADD DUP4 MSTORE CALLER DUP5 MSTORE PUSH1 0x0 DUP5 DUP4 ADD MSTORE DUP3 MLOAD DUP1 DUP5 ADD DUP5 MSTORE PUSH1 0xC DUP2 MSTORE PUSH12 0x26A0A72AA320A1AA2AA922A9 PUSH1 0xA1 SHL DUP2 DUP5 ADD MSTORE DUP5 DUP5 ADD MSTORE TIMESTAMP PUSH1 0x60 DUP6 ADD MSTORE DUP3 MLOAD DUP1 DUP5 ADD DUP5 MSTORE PUSH1 0x3 DUP2 MSTORE PUSH3 0x4E2F41 PUSH1 0xE8 SHL DUP2 DUP5 ADD MSTORE PUSH1 0x80 DUP6 ADD MSTORE SWAP2 MLOAD SWAP2 SWAP3 SWAP2 PUSH1 0xA0 DUP4 ADD SWAP2 PUSH2 0x1E1D SWAP2 DUP8 SWAP2 ADD PUSH2 0x41C5 JUMP JUMPDEST PUSH1 0x40 DUP1 MLOAD PUSH1 0x1F NOT DUP2 DUP5 SUB ADD DUP2 MSTORE SWAP2 DUP2 MSTORE SWAP2 MSTORE DUP3 SLOAD PUSH1 0x1 DUP2 DUP2 ADD DUP6 SSTORE PUSH1 0x0 SWAP5 DUP6 MSTORE PUSH1 0x20 SWAP5 DUP6 SWAP1 KECCAK256 DUP5 MLOAD PUSH1 0x6 SWAP1 SWAP4 MUL ADD DUP1 SLOAD PUSH1 0x1 PUSH1 0x1 PUSH1 0xA0 SHL SUB SWAP4 DUP5 AND PUSH1 0x1 PUSH1 0x1 PUSH1 0xA0 SHL SUB NOT SWAP2 DUP3 AND OR DUP3 SSTORE SWAP6 DUP6 ADD MLOAD SWAP2 DUP2 ADD DUP1 SLOAD SWAP3 SWAP1 SWAP4 AND SWAP2 SWAP1 SWAP6 AND OR SWAP1 SSTORE DUP2 ADD MLOAD SWAP1 SWAP2 SWAP1 PUSH1 0x2 DUP3 ADD SWAP1 PUSH2 0x1E90 SWAP1 DUP3 PUSH2 0x4045 JUMP JUMPDEST POP PUSH1 0x60 DUP3 ADD MLOAD PUSH1 0x3 DUP3 ADD SSTORE PUSH1 0x80 DUP3 ADD MLOAD PUSH1 0x4 DUP3 ADD SWAP1 PUSH2 0x1EAF SWAP1 DUP3 PUSH2 0x4045 JUMP JUMPDEST POP PUSH1 0xA0 DUP3 ADD MLOAD PUSH1 0x5 DUP3 ADD SWAP1 PUSH2 0x1EC4 SWAP1 DUP3 PUSH2 0x4045 JUMP JUMPDEST POP POP POP DUP3 PUSH1 0x40 MLOAD PUSH2 0x1ED5 SWAP2 SWAP1 PUSH2 0x3EBA JUMP JUMPDEST PUSH1 0x40 MLOAD DUP1 SWAP2 SUB SWAP1 KECCAK256 PUSH32 0x7B3BA29A5FFCE3410914DCA71F17FD057B35AB7047D06DD028BDD7659D929F65 DUP4 TIMESTAMP PUSH1 0x40 MLOAD PUSH2 0x1F0E SWAP3 SWAP2 SWAP1 PUSH2 0x41F7 JUMP JUMPDEST PUSH1 0x40 MLOAD DUP1 SWAP2 SUB SWAP1 LOG2 POP PUSH2 0x1F2E PUSH1 0x1 PUSH1 0x0 DUP1 MLOAD PUSH1 0x20 PUSH2 0x421A DUP4 CODECOPY DUP2 MLOAD SWAP2 MSTORE SSTORE JUMP JUMPDEST POP POP JUMP JUMPDEST PUSH32 0x0 PUSH1 0x1 PUSH1 0x1 PUSH1 0xA0 SHL SUB AND PUSH4 0x91D14854 PUSH32 0x0 PUSH1 0x1 PUSH1 0x1 PUSH1 0xA0 SHL SUB AND PUSH4 0x965288B0 PUSH1 0x40 MLOAD DUP2 PUSH4 0xFFFFFFFF AND PUSH1 0xE0 SHL DUP2 MSTORE PUSH1 0x4 ADD PUSH1 0x20 PUSH1 0x40 MLOAD DUP1 DUP4 SUB DUP2 DUP7 GAS STATICCALL ISZERO DUP1 ISZERO PUSH2 0x1FBF JUMPI RETURNDATASIZE PUSH1 0x0 DUP1 RETURNDATACOPY RETURNDATASIZE PUSH1 0x0 REVERT JUMPDEST POP POP POP POP PUSH1 0x40 MLOAD RETURNDATASIZE PUSH1 0x1F NOT PUSH1 0x1F DUP3 ADD AND DUP3 ADD DUP1 PUSH1 0x40 MSTORE POP DUP2 ADD SWAP1 PUSH2 0x1FE3 SWAP2 SWAP1 PUSH2 0x3E7F JUMP JUMPDEST PUSH1 0x40 MLOAD PUSH1 0x1 PUSH1 0x1 PUSH1 0xE0 SHL SUB NOT PUSH1 0xE0 DUP5 SWAP1 SHL AND DUP2 MSTORE PUSH1 0x4 DUP2 ADD SWAP2 SWAP1 SWAP2 MSTORE CALLER PUSH1 0x24 DUP3 ADD MSTORE PUSH1 0x44 ADD PUSH1 0x20 PUSH1 0x40 MLOAD DUP1 DUP4 SUB DUP2 DUP7 GAS STATICCALL ISZERO DUP1 ISZERO PUSH2 0x2025 JUMPI RETURNDATASIZE PUSH1 0x0 DUP1 RETURNDATACOPY RETURNDATASIZE PUSH1 0x0 REVERT JUMPDEST POP POP POP POP PUSH1 0x40 MLOAD RETURNDATASIZE PUSH1 0x1F NOT PUSH1 0x1F DUP3 ADD AND DUP3 ADD DUP1 PUSH1 0x40 MSTORE POP DUP2 ADD SWAP1 PUSH2 0x2049 SWAP2 SWAP1 PUSH2 0x3E98 JUMP JUMPDEST PUSH2 0x2065 JUMPI PUSH1 0x40 MLOAD PUSH3 0x461BCD PUSH1 0xE5 SHL DUP2 MSTORE PUSH1 0x4 ADD PUSH2 0x50A SWAP1 PUSH2 0x4119 JUMP JUMPDEST PUSH2 0x206D PUSH2 0x3669 JUMP JUMPDEST PUSH2 0x2075 PUSH2 0x3694 JUMP JUMPDEST DUP4 PUSH1 0x1 DUP2 PUSH1 0x40 MLOAD PUSH2 0x2086 SWAP2 SWAP1 PUSH2 0x3EBA JUMP JUMPDEST SWAP1 DUP2 MSTORE PUSH1 0x40 MLOAD SWAP1 DUP2 SWAP1 SUB PUSH1 0x20 ADD SWAP1 KECCAK256 PUSH1 0x8 ADD SLOAD PUSH1 0xFF PUSH2 0x100 SWAP1 SWAP2 DIV AND PUSH2 0x20BE JUMPI PUSH1 0x40 MLOAD PUSH3 0x461BCD PUSH1 0xE5 SHL DUP2 MSTORE PUSH1 0x4 ADD PUSH2 0x50A SWAP1 PUSH2 0x3ED6 JUMP JUMPDEST DUP5 PUSH1 0x4 PUSH1 0x1 DUP3 PUSH1 0x40 MLOAD PUSH2 0x20D1 SWAP2 SWAP1 PUSH2 0x3EBA JUMP JUMPDEST SWAP1 DUP2 MSTORE PUSH1 0x40 MLOAD SWAP1 DUP2 SWAP1 SUB PUSH1 0x20 ADD SWAP1 KECCAK256 PUSH1 0x8 ADD SLOAD PUSH1 0xFF AND PUSH1 0x4 DUP2 GT ISZERO PUSH2 0x20F8 JUMPI PUSH2 0x20F8 PUSH2 0x3D2D JUMP JUMPDEST SUB PUSH2 0x2115 JUMPI PUSH1 0x40 MLOAD PUSH3 0x461BCD PUSH1 0xE5 SHL DUP2 MSTORE PUSH1 0x4 ADD PUSH2 0x50A SWAP1 PUSH2 0x3F0D JUMP JUMPDEST PUSH1 0x0 PUSH1 0x1 DUP8 PUSH1 0x40 MLOAD PUSH2 0x2127 SWAP2 SWAP1 PUSH2 0x3EBA JUMP JUMPDEST SWAP1 DUP2 MSTORE PUSH1 0x40 MLOAD SWAP1 DUP2 SWAP1 SUB PUSH1 0x20 ADD SWAP1 KECCAK256 PUSH1 0x8 ADD SLOAD PUSH1 0xFF AND PUSH1 0x4 DUP2 GT ISZERO PUSH2 0x214E JUMPI PUSH2 0x214E PUSH2 0x3D2D JUMP JUMPDEST EQ PUSH2 0x21AE JUMPI PUSH1 0x40 MLOAD PUSH3 0x461BCD PUSH1 0xE5 SHL DUP2 MSTORE PUSH1 0x20 PUSH1 0x4 DUP3 ADD MSTORE PUSH1 0x2A PUSH1 0x24 DUP3 ADD MSTORE PUSH32 0x4D656469436861696E3A206261746368206E6F7420696E204D616E7566616374 PUSH1 0x44 DUP3 ADD MSTORE PUSH10 0x75726564207374617465 PUSH1 0xB0 SHL PUSH1 0x64 DUP3 ADD MSTORE PUSH1 0x84 ADD PUSH2 0x50A JUMP JUMPDEST CALLER PUSH1 0x1 PUSH1 0x1 PUSH1 0xA0 SHL SUB AND PUSH1 0x3 DUP8 PUSH1 0x40 MLOAD PUSH2 0x21C8 SWAP2 SWAP1 PUSH2 0x3EBA JUMP JUMPDEST SWAP1 DUP2 MSTORE PUSH1 0x40 MLOAD SWAP1 DUP2 SWAP1 SUB PUSH1 0x20 ADD SWAP1 KECCAK256 SLOAD PUSH1 0x1 PUSH1 0x1 PUSH1 0xA0 SHL SUB AND EQ PUSH2 0x21FE JUMPI PUSH1 0x40 MLOAD PUSH3 0x461BCD PUSH1 0xE5 SHL DUP2 MSTORE PUSH1 0x4 ADD PUSH2 0x50A SWAP1 PUSH2 0x3F4F JUMP JUMPDEST PUSH32 0x0 PUSH1 0x1 PUSH1 0x1 PUSH1 0xA0 SHL SUB AND PUSH4 0x91D14854 PUSH32 0x0 PUSH1 0x1 PUSH1 0x1 PUSH1 0xA0 SHL SUB AND PUSH4 0xF0BD87CC PUSH1 0x40 MLOAD DUP2 PUSH4 0xFFFFFFFF AND PUSH1 0xE0 SHL DUP2 MSTORE PUSH1 0x4 ADD PUSH1 0x20 PUSH1 0x40 MLOAD DUP1 DUP4 SUB DUP2 DUP7 GAS STATICCALL ISZERO DUP1 ISZERO PUSH2 0x228B JUMPI RETURNDATASIZE PUSH1 0x0 DUP1 RETURNDATACOPY RETURNDATASIZE PUSH1 0x0 REVERT JUMPDEST POP POP POP POP PUSH1 0x40 MLOAD RETURNDATASIZE PUSH1 0x1F NOT PUSH1 0x1F DUP3 ADD AND DUP3 ADD DUP1 PUSH1 0x40 MSTORE POP DUP2 ADD SWAP1 PUSH2 0x22AF SWAP2 SWAP1 PUSH2 0x3E7F JUMP JUMPDEST PUSH1 0x40 MLOAD PUSH1 0x1 PUSH1 0x1 PUSH1 0xE0 SHL SUB NOT PUSH1 0xE0 DUP5 SWAP1 SHL AND DUP2 MSTORE PUSH1 0x4 DUP2 ADD SWAP2 SWAP1 SWAP2 MSTORE PUSH1 0x1 PUSH1 0x1 PUSH1 0xA0 SHL SUB DUP9 AND PUSH1 0x24 DUP3 ADD MSTORE PUSH1 0x44 ADD PUSH1 0x20 PUSH1 0x40 MLOAD DUP1 DUP4 SUB DUP2 DUP7 GAS STATICCALL ISZERO DUP1 ISZERO PUSH2 0x22FA JUMPI RETURNDATASIZE PUSH1 0x0 DUP1 RETURNDATACOPY RETURNDATASIZE PUSH1 0x0 REVERT JUMPDEST POP POP POP POP PUSH1 0x40 MLOAD RETURNDATASIZE PUSH1 0x1F NOT PUSH1 0x1F DUP3 ADD AND DUP3 ADD DUP1 PUSH1 0x40 MSTORE POP DUP2 ADD SWAP1 PUSH2 0x231E SWAP2 SWAP1 PUSH2 0x3E98 JUMP JUMPDEST PUSH2 0x2387 JUMPI PUSH1 0x40 MLOAD PUSH3 0x461BCD PUSH1 0xE5 SHL DUP2 MSTORE PUSH1 0x20 PUSH1 0x4 DUP3 ADD MSTORE PUSH1 0x34 PUSH1 0x24 DUP3 ADD MSTORE PUSH32 0x4D656469436861696E3A20726563697069656E74206973206E6F742061207265 PUSH1 0x44 DUP3 ADD MSTORE PUSH20 0x33B4B9BA32B932B2103234B9BA3934B13ABA37B9 PUSH1 0x61 SHL PUSH1 0x64 DUP3 ADD MSTORE PUSH1 0x84 ADD PUSH2 0x50A JUMP JUMPDEST PUSH1 0x1 PUSH1 0x1 PUSH1 0xA0 SHL SUB DUP6 AND PUSH2 0x23D7 JUMPI PUSH1 0x40 MLOAD PUSH3 0x461BCD PUSH1 0xE5 SHL DUP2 MSTORE PUSH1 0x20 PUSH1 0x4 DUP3 ADD MSTORE PUSH1 0x17 PUSH1 0x24 DUP3 ADD MSTORE PUSH23 0x4D656469436861696E3A207A65726F2061646472657373 PUSH1 0x48 SHL PUSH1 0x44 DUP3 ADD MSTORE PUSH1 0x64 ADD PUSH2 0x50A JUMP JUMPDEST PUSH1 0x1 DUP1 DUP8 PUSH1 0x40 MLOAD PUSH2 0x23E8 SWAP2 SWAP1 PUSH2 0x3EBA JUMP JUMPDEST SWAP1 DUP2 MSTORE PUSH1 0x40 MLOAD SWAP1 DUP2 SWAP1 SUB PUSH1 0x20 ADD SWAP1 KECCAK256 PUSH1 0x8 ADD DUP1 SLOAD PUSH1 0xFF NOT AND PUSH1 0x1 DUP4 PUSH1 0x4 DUP2 GT ISZERO PUSH2 0x2414 JUMPI PUSH2 0x2414 PUSH2 0x3D2D JUMP JUMPDEST MUL OR SWAP1 SSTORE POP DUP5 PUSH1 0x3 DUP8 PUSH1 0x40 MLOAD PUSH2 0x242A SWAP2 SWAP1 PUSH2 0x3EBA JUMP JUMPDEST SWAP1 DUP2 MSTORE PUSH1 0x40 MLOAD SWAP1 DUP2 SWAP1 SUB PUSH1 0x20 ADD SWAP1 KECCAK256 DUP1 SLOAD PUSH1 0x1 PUSH1 0x1 PUSH1 0xA0 SHL SUB SWAP3 SWAP1 SWAP3 AND PUSH1 0x1 PUSH1 0x1 PUSH1 0xA0 SHL SUB NOT SWAP1 SWAP3 AND SWAP2 SWAP1 SWAP2 OR SWAP1 SSTORE PUSH1 0x7 DUP1 SLOAD SWAP1 PUSH1 0x0 PUSH2 0x2469 DUP4 PUSH2 0x3FAD JUMP JUMPDEST SWAP2 SWAP1 POP SSTORE POP PUSH1 0x2 DUP7 PUSH1 0x40 MLOAD PUSH2 0x247E SWAP2 SWAP1 PUSH2 0x3EBA JUMP JUMPDEST SWAP1 DUP2 MSTORE PUSH1 0x40 DUP1 MLOAD SWAP2 DUP3 SWAP1 SUB PUSH1 0x20 SWAP1 DUP2 ADD DUP4 KECCAK256 PUSH1 0xC0 DUP5 ADD DUP4 MSTORE CALLER DUP5 MSTORE PUSH1 0x1 PUSH1 0x1 PUSH1 0xA0 SHL SUB DUP10 DUP2 AND DUP6 DUP5 ADD SWAP1 DUP2 MSTORE DUP5 MLOAD DUP1 DUP7 ADD DUP7 MSTORE PUSH1 0xC DUP2 MSTORE PUSH12 0x26A0A72AA320A1AA2AA922A9 PUSH1 0xA1 SHL DUP2 DUP7 ADD MSTORE SWAP5 DUP7 ADD SWAP5 DUP6 MSTORE TIMESTAMP PUSH1 0x60 DUP8 ADD MSTORE PUSH1 0x80 DUP7 ADD DUP11 SWAP1 MSTORE PUSH1 0xA0 DUP7 ADD DUP10 SWAP1 MSTORE DUP3 SLOAD PUSH1 0x1 DUP2 DUP2 ADD DUP6 SSTORE PUSH1 0x0 SWAP5 DUP6 MSTORE SWAP5 SWAP1 SWAP4 KECCAK256 DUP7 MLOAD PUSH1 0x6 SWAP1 SWAP5 MUL ADD DUP1 SLOAD SWAP4 DUP4 AND PUSH1 0x1 PUSH1 0x1 PUSH1 0xA0 SHL SUB NOT SWAP5 DUP6 AND OR DUP2 SSTORE SWAP1 MLOAD SWAP4 DUP2 ADD DUP1 SLOAD SWAP5 SWAP1 SWAP3 AND SWAP4 SWAP1 SWAP3 AND SWAP3 SWAP1 SWAP3 OR SWAP1 SWAP2 SSTORE SWAP1 MLOAD PUSH1 0x2 DUP3 ADD SWAP1 PUSH2 0x2538 SWAP1 DUP3 PUSH2 0x4045 JUMP JUMPDEST POP PUSH1 0x60 DUP3 ADD MLOAD PUSH1 0x3 DUP3 ADD SSTORE PUSH1 0x80 DUP3 ADD MLOAD PUSH1 0x4 DUP3 ADD SWAP1 PUSH2 0x2557 SWAP1 DUP3 PUSH2 0x4045 JUMP JUMPDEST POP PUSH1 0xA0 DUP3 ADD MLOAD PUSH1 0x5 DUP3 ADD SWAP1 PUSH2 0x256C SWAP1 DUP3 PUSH2 0x4045 JUMP JUMPDEST POP POP POP DUP5 PUSH1 0x1 PUSH1 0x1 PUSH1 0xA0 SHL SUB AND CALLER PUSH1 0x1 PUSH1 0x1 PUSH1 0xA0 SHL SUB AND DUP8 PUSH1 0x40 MLOAD PUSH2 0x2591 SWAP2 SWAP1 PUSH2 0x3EBA JUMP JUMPDEST PUSH1 0x40 MLOAD DUP1 SWAP2 SUB SWAP1 KECCAK256 PUSH32 0xB1EDAA5350293E3FEF06E7307AA5A5B90B82FF163F359217F939982B1CF74376 PUSH1 0x1 PUSH1 0x40 MLOAD PUSH2 0xA70 SWAP2 SWAP1 PUSH2 0x4105 JUMP JUMPDEST PUSH32 0x0 PUSH1 0x1 PUSH1 0x1 PUSH1 0xA0 SHL SUB AND PUSH4 0x91D14854 PUSH32 0x0 PUSH1 0x1 PUSH1 0x1 PUSH1 0xA0 SHL SUB AND PUSH4 0xF0C58EA7 PUSH1 0x40 MLOAD DUP2 PUSH4 0xFFFFFFFF AND PUSH1 0xE0 SHL DUP2 MSTORE PUSH1 0x4 ADD PUSH1 0x20 PUSH1 0x40 MLOAD DUP1 DUP4 SUB DUP2 DUP7 GAS STATICCALL ISZERO DUP1 ISZERO PUSH2 0x2656 JUMPI RETURNDATASIZE PUSH1 0x0 DUP1 RETURNDATACOPY RETURNDATASIZE PUSH1 0x0 REVERT JUMPDEST POP POP POP POP PUSH1 0x40 MLOAD RETURNDATASIZE PUSH1 0x1F NOT PUSH1 0x1F DUP3 ADD AND DUP3 ADD DUP1 PUSH1 0x40 MSTORE POP DUP2 ADD SWAP1 PUSH2 0x267A SWAP2 SWAP1 PUSH2 0x3E7F JUMP JUMPDEST PUSH1 0x40 MLOAD PUSH1 0x1 PUSH1 0x1 PUSH1 0xE0 SHL SUB NOT PUSH1 0xE0 DUP5 SWAP1 SHL AND DUP2 MSTORE PUSH1 0x4 DUP2 ADD SWAP2 SWAP1 SWAP2 MSTORE CALLER PUSH1 0x24 DUP3 ADD MSTORE PUSH1 0x44 ADD PUSH1 0x20 PUSH1 0x40 MLOAD DUP1 DUP4 SUB DUP2 DUP7 GAS STATICCALL ISZERO DUP1 ISZERO PUSH2 0x26BC JUMPI RETURNDATASIZE PUSH1 0x0 DUP1 RETURNDATACOPY RETURNDATASIZE PUSH1 0x0 REVERT JUMPDEST POP POP POP POP PUSH1 0x40 MLOAD RETURNDATASIZE PUSH1 0x1F NOT PUSH1 0x1F DUP3 ADD AND DUP3 ADD DUP1 PUSH1 0x40 MSTORE POP DUP2 ADD SWAP1 PUSH2 0x26E0 SWAP2 SWAP1 PUSH2 0x3E98 JUMP JUMPDEST PUSH2 0x2738 JUMPI PUSH1 0x40 MLOAD PUSH3 0x461BCD PUSH1 0xE5 SHL DUP2 MSTORE PUSH1 0x20 PUSH1 0x4 DUP3 ADD MSTORE PUSH1 0x23 PUSH1 0x24 DUP3 ADD MSTORE PUSH32 0x4D656469436861696E3A2063616C6C6572206973206E6F74206120706861726D PUSH1 0x44 DUP3 ADD MSTORE PUSH3 0x616379 PUSH1 0xE8 SHL PUSH1 0x64 DUP3 ADD MSTORE PUSH1 0x84 ADD PUSH2 0x50A JUMP JUMPDEST PUSH2 0x2740 PUSH2 0x3669 JUMP JUMPDEST PUSH2 0x2748 PUSH2 0x3694 JUMP JUMPDEST DUP1 PUSH1 0x1 DUP2 PUSH1 0x40 MLOAD PUSH2 0x2759 SWAP2 SWAP1 PUSH2 0x3EBA JUMP JUMPDEST SWAP1 DUP2 MSTORE PUSH1 0x40 MLOAD SWAP1 DUP2 SWAP1 SUB PUSH1 0x20 ADD SWAP1 KECCAK256 PUSH1 0x8 ADD SLOAD PUSH1 0xFF PUSH2 0x100 SWAP1 SWAP2 DIV AND PUSH2 0x2791 JUMPI PUSH1 0x40 MLOAD PUSH3 0x461BCD PUSH1 0xE5 SHL DUP2 MSTORE PUSH1 0x4 ADD PUSH2 0x50A SWAP1 PUSH2 0x3ED6 JUMP JUMPDEST DUP2 PUSH1 0x4 PUSH1 0x1 DUP3 PUSH1 0x40 MLOAD PUSH2 0x27A4 SWAP2 SWAP1 PUSH2 0x3EBA JUMP JUMPDEST SWAP1 DUP2 MSTORE PUSH1 0x40 MLOAD SWAP1 DUP2 SWAP1 SUB PUSH1 0x20 ADD SWAP1 KECCAK256 PUSH1 0x8 ADD SLOAD PUSH1 0xFF AND PUSH1 0x4 DUP2 GT ISZERO PUSH2 0x27CB JUMPI PUSH2 0x27CB PUSH2 0x3D2D JUMP JUMPDEST SUB PUSH2 0x27E8 JUMPI PUSH1 0x40 MLOAD PUSH3 0x461BCD PUSH1 0xE5 SHL DUP2 MSTORE PUSH1 0x4 ADD PUSH2 0x50A SWAP1 PUSH2 0x3F0D JUMP JUMPDEST PUSH1 0x2 PUSH1 0x1 DUP5 PUSH1 0x40 MLOAD PUSH2 0x27FA SWAP2 SWAP1 PUSH2 0x3EBA JUMP JUMPDEST SWAP1 DUP2 MSTORE PUSH1 0x40 MLOAD SWAP1 DUP2 SWAP1 SUB PUSH1 0x20 ADD SWAP1 KECCAK256 PUSH1 0x8 ADD SLOAD PUSH1 0xFF AND PUSH1 0x4 DUP2 GT ISZERO PUSH2 0x2821 JUMPI PUSH2 0x2821 PUSH2 0x3D2D JUMP JUMPDEST EQ PUSH2 0x286E JUMPI PUSH1 0x40 MLOAD PUSH3 0x461BCD PUSH1 0xE5 SHL DUP2 MSTORE PUSH1 0x20 PUSH1 0x4 DUP3 ADD DUP2 SWAP1 MSTORE PUSH1 0x24 DUP3 ADD MSTORE PUSH32 0x4D656469436861696E3A206261746368206E6F7420617420706861726D616379 PUSH1 0x44 DUP3 ADD MSTORE PUSH1 0x64 ADD PUSH2 0x50A JUMP JUMPDEST CALLER PUSH1 0x1 PUSH1 0x1 PUSH1 0xA0 SHL SUB AND PUSH1 0x3 DUP5 PUSH1 0x40 MLOAD PUSH2 0x2888 SWAP2 SWAP1 PUSH2 0x3EBA JUMP JUMPDEST SWAP1 DUP2 MSTORE PUSH1 0x40 MLOAD SWAP1 DUP2 SWAP1 SUB PUSH1 0x20 ADD SWAP1 KECCAK256 SLOAD PUSH1 0x1 PUSH1 0x1 PUSH1 0xA0 SHL SUB AND EQ PUSH2 0x28BE JUMPI PUSH1 0x40 MLOAD PUSH3 0x461BCD PUSH1 0xE5 SHL DUP2 MSTORE PUSH1 0x4 ADD PUSH2 0x50A SWAP1 PUSH2 0x3F4F JUMP JUMPDEST PUSH1 0x3 PUSH1 0x1 DUP5 PUSH1 0x40 MLOAD PUSH2 0x28D0 SWAP2 SWAP1 PUSH2 0x3EBA JUMP JUMPDEST SWAP1 DUP2 MSTORE PUSH1 0x40 MLOAD SWAP1 DUP2 SWAP1 SUB PUSH1 0x20 ADD SWAP1 KECCAK256 PUSH1 0x8 ADD DUP1 SLOAD PUSH1 0xFF NOT AND PUSH1 0x1 DUP4 PUSH1 0x4 DUP2 GT ISZERO PUSH2 0x28FC JUMPI PUSH2 0x28FC PUSH2 0x3D2D JUMP JUMPDEST MUL OR SWAP1 SSTORE POP PUSH1 0x7 DUP1 SLOAD SWAP1 PUSH1 0x0 PUSH2 0x2911 DUP4 PUSH2 0x3FAD JUMP JUMPDEST SWAP2 SWAP1 POP SSTORE POP PUSH1 0x2 DUP4 PUSH1 0x40 MLOAD PUSH2 0x2926 SWAP2 SWAP1 PUSH2 0x3EBA JUMP JUMPDEST SWAP1 DUP2 MSTORE PUSH1 0x40 DUP1 MLOAD SWAP2 DUP3 SWAP1 SUB PUSH1 0x20 SWAP1 DUP2 ADD DUP4 KECCAK256 PUSH1 0xC0 DUP5 ADD DUP4 MSTORE CALLER DUP5 MSTORE PUSH1 0x0 DUP5 DUP4 ADD DUP2 DUP2 MSTORE DUP5 MLOAD DUP1 DUP7 ADD DUP7 MSTORE PUSH1 0x8 DUP2 MSTORE PUSH8 0x504841524D414359 PUSH1 0xC0 SHL DUP2 DUP7 ADD MSTORE DUP7 DUP7 ADD SWAP1 DUP2 MSTORE TIMESTAMP PUSH1 0x60 DUP9 ADD MSTORE DUP6 MLOAD DUP1 DUP8 ADD DUP8 MSTORE PUSH1 0x10 DUP2 MSTORE PUSH16 0x283430B936B0B1BC9021B7BAB73A32B9 PUSH1 0x81 SHL DUP2 DUP8 ADD MSTORE PUSH1 0x80 DUP9 ADD MSTORE DUP6 MLOAD DUP1 DUP8 ADD SWAP1 SWAP7 MSTORE PUSH1 0x14 DUP7 MSTORE PUSH20 0x111A5CDC195B9CD959081D1BC81C185D1A595B9D PUSH1 0x62 SHL DUP7 DUP7 ADD MSTORE PUSH1 0xA0 DUP8 ADD SWAP6 SWAP1 SWAP6 MSTORE DUP3 SLOAD PUSH1 0x1 DUP2 DUP2 ADD DUP6 SSTORE SWAP4 DUP4 MSTORE SWAP4 SWAP1 SWAP2 KECCAK256 DUP6 MLOAD PUSH1 0x6 SWAP1 SWAP5 MUL ADD DUP1 SLOAD PUSH1 0x1 PUSH1 0x1 PUSH1 0xA0 SHL SUB SWAP5 DUP6 AND PUSH1 0x1 PUSH1 0x1 PUSH1 0xA0 SHL SUB NOT SWAP2 DUP3 AND OR DUP3 SSTORE SWAP2 MLOAD SWAP3 DUP2 ADD DUP1 SLOAD SWAP4 SWAP1 SWAP5 AND SWAP3 SWAP1 SWAP2 AND SWAP2 SWAP1 SWAP2 OR SWAP1 SWAP2 SSTORE SWAP1 MLOAD PUSH1 0x2 DUP3 ADD SWAP1 PUSH2 0x2A23 SWAP1 DUP3 PUSH2 0x4045 JUMP JUMPDEST POP PUSH1 0x60 DUP3 ADD MLOAD PUSH1 0x3 DUP3 ADD SSTORE PUSH1 0x80 DUP3 ADD MLOAD PUSH1 0x4 DUP3 ADD SWAP1 PUSH2 0x2A42 SWAP1 DUP3 PUSH2 0x4045 JUMP JUMPDEST POP PUSH1 0xA0 DUP3 ADD MLOAD PUSH1 0x5 DUP3 ADD SWAP1 PUSH2 0x2A57 SWAP1 DUP3 PUSH2 0x4045 JUMP JUMPDEST POP POP PUSH1 0x40 MLOAD CALLER SWAP2 POP PUSH2 0x2A6A SWAP1 DUP6 SWAP1 PUSH2 0x3EBA JUMP JUMPDEST PUSH1 0x40 MLOAD SWAP1 DUP2 SWAP1 SUB DUP2 KECCAK256 TIMESTAMP DUP3 MSTORE SWAP1 PUSH32 0x66A1AB70F81847412D7B0A6EB78CC72EB4E15B27F877E8D8A1594087A8029A2B SWAP1 PUSH1 0x20 ADD PUSH1 0x40 MLOAD DUP1 SWAP2 SUB SWAP1 LOG3 PUSH1 0x40 MLOAD PUSH1 0x0 SWAP1 CALLER SWAP1 PUSH2 0x2AB7 SWAP1 DUP7 SWAP1 PUSH2 0x3EBA JUMP JUMPDEST PUSH1 0x40 MLOAD DUP1 SWAP2 SUB SWAP1 KECCAK256 PUSH32 0xB1EDAA5350293E3FEF06E7307AA5A5B90B82FF163F359217F939982B1CF74376 PUSH1 0x3 PUSH1 0x40 MLOAD PUSH2 0x2AEF SWAP2 SWAP1 PUSH2 0x4105 JUMP JUMPDEST PUSH1 0x40 MLOAD DUP1 SWAP2 SUB SWAP1 LOG4 POP POP PUSH2 0x2B10 PUSH1 0x1 PUSH1 0x0 DUP1 MLOAD PUSH1 0x20 PUSH2 0x421A DUP4 CODECOPY DUP2 MLOAD SWAP2 MSTORE SSTORE JUMP JUMPDEST POP JUMP JUMPDEST PUSH2 0x2B1B PUSH2 0x36B0 JUMP JUMPDEST PUSH2 0x2B23 PUSH2 0x36DD JUMP JUMPDEST JUMP JUMPDEST PUSH2 0x2B2D PUSH2 0x36B0 JUMP JUMPDEST PUSH2 0x2B23 PUSH1 0x0 PUSH2 0x3732 JUMP JUMPDEST PUSH1 0x60 PUSH1 0x4 DUP3 PUSH1 0x40 MLOAD PUSH2 0x2B49 SWAP2 SWAP1 PUSH2 0x3EBA JUMP JUMPDEST SWAP1 DUP2 MSTORE PUSH1 0x20 ADD PUSH1 0x40 MLOAD DUP1 SWAP2 SUB SWAP1 KECCAK256 DUP1 SLOAD PUSH2 0x2B62 SWAP1 PUSH2 0x3FC6 JUMP JUMPDEST DUP1 PUSH1 0x1F ADD PUSH1 0x20 DUP1 SWAP2 DIV MUL PUSH1 0x20 ADD PUSH1 0x40 MLOAD SWAP1 DUP2 ADD PUSH1 0x40 MSTORE DUP1 SWAP3 SWAP2 SWAP1 DUP2 DUP2 MSTORE PUSH1 0x20 ADD DUP3 DUP1 SLOAD PUSH2 0x2B8E SWAP1 PUSH2 0x3FC6 JUMP JUMPDEST DUP1 ISZERO PUSH2 0x2BDB JUMPI DUP1 PUSH1 0x1F LT PUSH2 0x2BB0 JUMPI PUSH2 0x100 DUP1 DUP4 SLOAD DIV MUL DUP4 MSTORE SWAP2 PUSH1 0x20 ADD SWAP2 PUSH2 0x2BDB JUMP JUMPDEST DUP3 ADD SWAP2 SWAP1 PUSH1 0x0 MSTORE PUSH1 0x20 PUSH1 0x0 KECCAK256 SWAP1 JUMPDEST DUP2 SLOAD DUP2 MSTORE SWAP1 PUSH1 0x1 ADD SWAP1 PUSH1 0x20 ADD DUP1 DUP4 GT PUSH2 0x2BBE JUMPI DUP3 SWAP1 SUB PUSH1 0x1F AND DUP3 ADD SWAP2 JUMPDEST POP POP POP POP POP SWAP1 POP SWAP2 SWAP1 POP JUMP JUMPDEST PUSH2 0x2BEF PUSH2 0x36B0 JUMP JUMPDEST PUSH2 0x2B23 PUSH2 0x3782 JUMP JUMPDEST PUSH1 0x5 SLOAD PUSH1 0x60 SWAP1 DUP3 LT PUSH2 0x2C4B JUMPI PUSH1 0x40 MLOAD PUSH3 0x461BCD PUSH1 0xE5 SHL DUP2 MSTORE PUSH1 0x20 PUSH1 0x4 DUP3 ADD MSTORE PUSH1 0x1E PUSH1 0x24 DUP3 ADD MSTORE PUSH32 0x4D656469436861696E3A20696E646578206F7574206F6620626F756E64730000 PUSH1 0x44 DUP3 ADD MSTORE PUSH1 0x64 ADD PUSH2 0x50A JUMP JUMPDEST PUSH1 0x5 DUP3 DUP2 SLOAD DUP2 LT PUSH2 0x2C5E JUMPI PUSH2 0x2C5E PUSH2 0x41AF JUMP JUMPDEST SWAP1 PUSH1 0x0 MSTORE PUSH1 0x20 PUSH1 0x0 KECCAK256 ADD DUP1 SLOAD PUSH2 0x2B62 SWAP1 PUSH2 0x3FC6 JUMP JUMPDEST PUSH1 0x60 DUP2 PUSH1 0x1 DUP2 PUSH1 0x40 MLOAD PUSH2 0x2C86 SWAP2 SWAP1 PUSH2 0x3EBA JUMP JUMPDEST SWAP1 DUP2 MSTORE PUSH1 0x40 MLOAD SWAP1 DUP2 SWAP1 SUB PUSH1 0x20 ADD SWAP1 KECCAK256 PUSH1 0x8 ADD SLOAD PUSH1 0xFF PUSH2 0x100 SWAP1 SWAP2 DIV AND PUSH2 0x2CBE JUMPI PUSH1 0x40 MLOAD PUSH3 0x461BCD PUSH1 0xE5 SHL DUP2 MSTORE PUSH1 0x4 ADD PUSH2 0x50A SWAP1 PUSH2 0x3ED6 JUMP JUMPDEST PUSH1 0x2 DUP4 PUSH1 0x40 MLOAD PUSH2 0x2CCE SWAP2 SWAP1 PUSH2 0x3EBA JUMP JUMPDEST SWAP1 DUP2 MSTORE PUSH1 0x20 ADD PUSH1 0x40 MLOAD DUP1 SWAP2 SUB SWAP1 KECCAK256 DUP1 SLOAD DUP1 PUSH1 0x20 MUL PUSH1 0x20 ADD PUSH1 0x40 MLOAD SWAP1 DUP2 ADD PUSH1 0x40 MSTORE DUP1 SWAP3 SWAP2 SWAP1 DUP2 DUP2 MSTORE PUSH1 0x20 ADD PUSH1 0x0 SWAP1 JUMPDEST DUP3 DUP3 LT ISZERO PUSH2 0x2F11 JUMPI PUSH1 0x0 DUP5 DUP2 MSTORE PUSH1 0x20 SWAP1 DUP2 SWAP1 KECCAK256 PUSH1 0x40 DUP1 MLOAD PUSH1 0xC0 DUP2 ADD DUP3 MSTORE PUSH1 0x6 DUP7 MUL SWAP1 SWAP3 ADD DUP1 SLOAD PUSH1 0x1 PUSH1 0x1 PUSH1 0xA0 SHL SUB SWAP1 DUP2 AND DUP5 MSTORE PUSH1 0x1 DUP3 ADD SLOAD AND SWAP4 DUP4 ADD SWAP4 SWAP1 SWAP4 MSTORE PUSH1 0x2 DUP4 ADD DUP1 SLOAD SWAP3 SWAP4 SWAP3 SWAP2 DUP5 ADD SWAP2 PUSH2 0x2D52 SWAP1 PUSH2 0x3FC6 JUMP JUMPDEST DUP1 PUSH1 0x1F ADD PUSH1 0x20 DUP1 SWAP2 DIV MUL PUSH1 0x20 ADD PUSH1 0x40 MLOAD SWAP1 DUP2 ADD PUSH1 0x40 MSTORE DUP1 SWAP3 SWAP2 SWAP1 DUP2 DUP2 MSTORE PUSH1 0x20 ADD DUP3 DUP1 SLOAD PUSH2 0x2D7E SWAP1 PUSH2 0x3FC6 JUMP JUMPDEST DUP1 ISZERO PUSH2 0x2DCB JUMPI DUP1 PUSH1 0x1F LT PUSH2 0x2DA0 JUMPI PUSH2 0x100 DUP1 DUP4 SLOAD DIV MUL DUP4 MSTORE SWAP2 PUSH1 0x20 ADD SWAP2 PUSH2 0x2DCB JUMP JUMPDEST DUP3 ADD SWAP2 SWAP1 PUSH1 0x0 MSTORE PUSH1 0x20 PUSH1 0x0 KECCAK256 SWAP1 JUMPDEST DUP2 SLOAD DUP2 MSTORE SWAP1 PUSH1 0x1 ADD SWAP1 PUSH1 0x20 ADD DUP1 DUP4 GT PUSH2 0x2DAE JUMPI DUP3 SWAP1 SUB PUSH1 0x1F AND DUP3 ADD SWAP2 JUMPDEST POP POP POP POP POP DUP2 MSTORE PUSH1 0x20 ADD PUSH1 0x3 DUP3 ADD SLOAD DUP2 MSTORE PUSH1 0x20 ADD PUSH1 0x4 DUP3 ADD DUP1 SLOAD PUSH2 0x2DEE SWAP1 PUSH2 0x3FC6 JUMP JUMPDEST DUP1 PUSH1 0x1F ADD PUSH1 0x20 DUP1 SWAP2 DIV MUL PUSH1 0x20 ADD PUSH1 0x40 MLOAD SWAP1 DUP2 ADD PUSH1 0x40 MSTORE DUP1 SWAP3 SWAP2 SWAP1 DUP2 DUP2 MSTORE PUSH1 0x20 ADD DUP3 DUP1 SLOAD PUSH2 0x2E1A SWAP1 PUSH2 0x3FC6 JUMP JUMPDEST DUP1 ISZERO PUSH2 0x2E67 JUMPI DUP1 PUSH1 0x1F LT PUSH2 0x2E3C JUMPI PUSH2 0x100 DUP1 DUP4 SLOAD DIV MUL DUP4 MSTORE SWAP2 PUSH1 0x20 ADD SWAP2 PUSH2 0x2E67 JUMP JUMPDEST DUP3 ADD SWAP2 SWAP1 PUSH1 0x0 MSTORE PUSH1 0x20 PUSH1 0x0 KECCAK256 SWAP1 JUMPDEST DUP2 SLOAD DUP2 MSTORE SWAP1 PUSH1 0x1 ADD SWAP1 PUSH1 0x20 ADD DUP1 DUP4 GT PUSH2 0x2E4A JUMPI DUP3 SWAP1 SUB PUSH1 0x1F AND DUP3 ADD SWAP2 JUMPDEST POP POP POP POP POP DUP2 MSTORE PUSH1 0x20 ADD PUSH1 0x5 DUP3 ADD DUP1 SLOAD PUSH2 0x2E80 SWAP1 PUSH2 0x3FC6 JUMP JUMPDEST DUP1 PUSH1 0x1F ADD PUSH1 0x20 DUP1 SWAP2 DIV MUL PUSH1 0x20 ADD PUSH1 0x40 MLOAD SWAP1 DUP2 ADD PUSH1 0x40 MSTORE DUP1 SWAP3 SWAP2 SWAP1 DUP2 DUP2 MSTORE PUSH1 0x20 ADD DUP3 DUP1 SLOAD PUSH2 0x2EAC SWAP1 PUSH2 0x3FC6 JUMP JUMPDEST DUP1 ISZERO PUSH2 0x2EF9 JUMPI DUP1 PUSH1 0x1F LT PUSH2 0x2ECE JUMPI PUSH2 0x100 DUP1 DUP4 SLOAD DIV MUL DUP4 MSTORE SWAP2 PUSH1 0x20 ADD SWAP2 PUSH2 0x2EF9 JUMP JUMPDEST DUP3 ADD SWAP2 SWAP1 PUSH1 0x0 MSTORE PUSH1 0x20 PUSH1 0x0 KECCAK256 SWAP1 JUMPDEST DUP2 SLOAD DUP2 MSTORE SWAP1 PUSH1 0x1 ADD SWAP1 PUSH1 0x20 ADD DUP1 DUP4 GT PUSH2 0x2EDC JUMPI DUP3 SWAP1 SUB PUSH1 0x1F AND DUP3 ADD SWAP2 JUMPDEST POP POP POP POP POP DUP2 MSTORE POP POP DUP2 MSTORE PUSH1 0x20 ADD SWAP1 PUSH1 0x1 ADD SWAP1 PUSH2 0x2CFC JUMP JUMPDEST POP POP POP POP SWAP2 POP JUMPDEST POP SWAP2 SWAP1 POP JUMP JUMPDEST PUSH1 0x60 PUSH1 0x5 DUP1 SLOAD DUP1 PUSH1 0x20 MUL PUSH1 0x20 ADD PUSH1 0x40 MLOAD SWAP1 DUP2 ADD PUSH1 0x40 MSTORE DUP1 SWAP3 SWAP2 SWAP1 DUP2 DUP2 MSTORE PUSH1 0x20 ADD PUSH1 0x0 SWAP1 JUMPDEST DUP3 DUP3 LT ISZERO PUSH2 0x2FEE JUMPI DUP4 DUP3 SWAP1 PUSH1 0x0 MSTORE PUSH1 0x20 PUSH1 0x0 KECCAK256 ADD DUP1 SLOAD PUSH2 0x2F61 SWAP1 PUSH2 0x3FC6 JUMP JUMPDEST DUP1 PUSH1 0x1F ADD PUSH1 0x20 DUP1 SWAP2 DIV MUL PUSH1 0x20 ADD PUSH1 0x40 MLOAD SWAP1 DUP2 ADD PUSH1 0x40 MSTORE DUP1 SWAP3 SWAP2 SWAP1 DUP2 DUP2 MSTORE PUSH1 0x20 ADD DUP3 DUP1 SLOAD PUSH2 0x2F8D SWAP1 PUSH2 0x3FC6 JUMP JUMPDEST DUP1 ISZERO PUSH2 0x2FDA JUMPI DUP1 PUSH1 0x1F LT PUSH2 0x2FAF JUMPI PUSH2 0x100 DUP1 DUP4 SLOAD DIV MUL DUP4 MSTORE SWAP2 PUSH1 0x20 ADD SWAP2 PUSH2 0x2FDA JUMP JUMPDEST DUP3 ADD SWAP2 SWAP1 PUSH1 0x0 MSTORE PUSH1 0x20 PUSH1 0x0 KECCAK256 SWAP1 JUMPDEST DUP2 SLOAD DUP2 MSTORE SWAP1 PUSH1 0x1 ADD SWAP1 PUSH1 0x20 ADD DUP1 DUP4 GT PUSH2 0x2FBD JUMPI DUP3 SWAP1 SUB PUSH1 0x1F AND DUP3 ADD SWAP2 JUMPDEST POP POP POP POP POP DUP2 MSTORE PUSH1 0x20 ADD SWAP1 PUSH1 0x1 ADD SWAP1 PUSH2 0x2F42 JUMP JUMPDEST POP POP POP POP SWAP1 POP SWAP1 JUMP JUMPDEST PUSH1 0x0 PUSH1 0x3 DUP3 PUSH1 0x40 MLOAD PUSH2 0x3009 SWAP2 SWAP1 PUSH2 0x3EBA JUMP JUMPDEST SWAP1 DUP2 MSTORE PUSH1 0x40 MLOAD SWAP1 DUP2 SWAP1 SUB PUSH1 0x20 ADD SWAP1 KECCAK256 SLOAD PUSH1 0x1 PUSH1 0x1 PUSH1 0xA0 SHL SUB AND SWAP3 SWAP2 POP POP JUMP JUMPDEST PUSH1 0x0 PUSH1 0x1 DUP3 PUSH1 0x40 MLOAD PUSH2 0x303A SWAP2 SWAP1 PUSH2 0x3EBA JUMP JUMPDEST SWAP1 DUP2 MSTORE PUSH1 0x40 MLOAD SWAP1 DUP2 SWAP1 SUB PUSH1 0x20 ADD SWAP1 KECCAK256 PUSH1 0x8 ADD SLOAD PUSH1 0xFF PUSH2 0x100 SWAP1 SWAP2 DIV AND SWAP3 SWAP2 POP POP JUMP JUMPDEST PUSH2 0x3064 PUSH2 0x381F JUMP JUMPDEST PUSH1 0x60 PUSH1 0x1 DUP4 PUSH1 0x40 MLOAD PUSH2 0x3076 SWAP2 SWAP1 PUSH2 0x3EBA JUMP JUMPDEST SWAP1 DUP2 MSTORE PUSH1 0x40 MLOAD SWAP1 DUP2 SWAP1 SUB PUSH1 0x20 ADD SWAP1 KECCAK256 PUSH1 0x8 ADD SLOAD PUSH1 0xFF PUSH2 0x100 SWAP1 SWAP2 DIV AND PUSH2 0x30DE JUMPI PUSH1 0x40 MLOAD PUSH3 0x461BCD PUSH1 0xE5 SHL DUP2 MSTORE PUSH1 0x20 PUSH1 0x4 DUP3 ADD MSTORE PUSH1 0x1A PUSH1 0x24 DUP3 ADD MSTORE PUSH32 0x4D656469436861696E3A206261746368206E6F7420666F756E64000000000000 PUSH1 0x44 DUP3 ADD MSTORE PUSH1 0x64 ADD PUSH2 0x50A JUMP JUMPDEST PUSH1 0x1 DUP4 PUSH1 0x40 MLOAD PUSH2 0x30EE SWAP2 SWAP1 PUSH2 0x3EBA JUMP JUMPDEST SWAP1 DUP2 MSTORE PUSH1 0x20 ADD PUSH1 0x40 MLOAD DUP1 SWAP2 SUB SWAP1 KECCAK256 PUSH1 0x2 DUP5 PUSH1 0x40 MLOAD PUSH2 0x310C SWAP2 SWAP1 PUSH2 0x3EBA JUMP JUMPDEST SWAP1 DUP2 MSTORE PUSH1 0x20 ADD PUSH1 0x40 MLOAD DUP1 SWAP2 SUB SWAP1 KECCAK256 DUP2 PUSH1 0x40 MLOAD DUP1 PUSH2 0x140 ADD PUSH1 0x40 MSTORE SWAP1 DUP2 PUSH1 0x0 DUP3 ADD DUP1 SLOAD PUSH2 0x3137 SWAP1 PUSH2 0x3FC6 JUMP JUMPDEST DUP1 PUSH1 0x1F ADD PUSH1 0x20 DUP1 SWAP2 DIV MUL PUSH1 0x20 ADD PUSH1 0x40 MLOAD SWAP1 DUP2 ADD PUSH1 0x40 MSTORE DUP1 SWAP3 SWAP2 SWAP1 DUP2 DUP2 MSTORE PUSH1 0x20 ADD DUP3 DUP1 SLOAD PUSH2 0x3163 SWAP1 PUSH2 0x3FC6 JUMP JUMPDEST DUP1 ISZERO PUSH2 0x31B0 JUMPI DUP1 PUSH1 0x1F LT PUSH2 0x3185 JUMPI PUSH2 0x100 DUP1 DUP4 SLOAD DIV MUL DUP4 MSTORE SWAP2 PUSH1 0x20 ADD SWAP2 PUSH2 0x31B0 JUMP JUMPDEST DUP3 ADD SWAP2 SWAP1 PUSH1 0x0 MSTORE PUSH1 0x20 PUSH1 0x0 KECCAK256 SWAP1 JUMPDEST DUP2 SLOAD DUP2 MSTORE SWAP1 PUSH1 0x1 ADD SWAP1 PUSH1 0x20 ADD DUP1 DUP4 GT PUSH2 0x3193 JUMPI DUP3 SWAP1 SUB PUSH1 0x1F AND DUP3 ADD SWAP2 JUMPDEST POP POP POP POP POP DUP2 MSTORE PUSH1 0x20 ADD PUSH1 0x1 DUP3 ADD DUP1 SLOAD PUSH2 0x31C9 SWAP1 PUSH2 0x3FC6 JUMP JUMPDEST DUP1 PUSH1 0x1F ADD PUSH1 0x20 DUP1 SWAP2 DIV MUL PUSH1 0x20 ADD PUSH1 0x40 MLOAD SWAP1 DUP2 ADD PUSH1 0x40 MSTORE DUP1 SWAP3 SWAP2 SWAP1 DUP2 DUP2 MSTORE PUSH1 0x20 ADD DUP3 DUP1 SLOAD PUSH2 0x31F5 SWAP1 PUSH2 0x3FC6 JUMP JUMPDEST DUP1 ISZERO PUSH2 0x3242 JUMPI DUP1 PUSH1 0x1F LT PUSH2 0x3217 JUMPI PUSH2 0x100 DUP1 DUP4 SLOAD DIV MUL DUP4 MSTORE SWAP2 PUSH1 0x20 ADD SWAP2 PUSH2 0x3242 JUMP JUMPDEST DUP3 ADD SWAP2 SWAP1 PUSH1 0x0 MSTORE PUSH1 0x20 PUSH1 0x0 KECCAK256 SWAP1 JUMPDEST DUP2 SLOAD DUP2 MSTORE SWAP1 PUSH1 0x1 ADD SWAP1 PUSH1 0x20 ADD DUP1 DUP4 GT PUSH2 0x3225 JUMPI DUP3 SWAP1 SUB PUSH1 0x1F AND DUP3 ADD SWAP2 JUMPDEST POP POP POP POP POP DUP2 MSTORE PUSH1 0x20 ADD PUSH1 0x2 DUP3 ADD DUP1 SLOAD PUSH2 0x325B SWAP1 PUSH2 0x3FC6 JUMP JUMPDEST DUP1 PUSH1 0x1F ADD PUSH1 0x20 DUP1 SWAP2 DIV MUL PUSH1 0x20 ADD PUSH1 0x40 MLOAD SWAP1 DUP2 ADD PUSH1 0x40 MSTORE DUP1 SWAP3 SWAP2 SWAP1 DUP2 DUP2 MSTORE PUSH1 0x20 ADD DUP3 DUP1 SLOAD PUSH2 0x3287 SWAP1 PUSH2 0x3FC6 JUMP JUMPDEST DUP1 ISZERO PUSH2 0x32D4 JUMPI DUP1 PUSH1 0x1F LT PUSH2 0x32A9 JUMPI PUSH2 0x100 DUP1 DUP4 SLOAD DIV MUL DUP4 MSTORE SWAP2 PUSH1 0x20 ADD SWAP2 PUSH2 0x32D4 JUMP JUMPDEST DUP3 ADD SWAP2 SWAP1 PUSH1 0x0 MSTORE PUSH1 0x20 PUSH1 0x0 KECCAK256 SWAP1 JUMPDEST DUP2 SLOAD DUP2 MSTORE SWAP1 PUSH1 0x1 ADD SWAP1 PUSH1 0x20 ADD DUP1 DUP4 GT PUSH2 0x32B7 JUMPI DUP3 SWAP1 SUB PUSH1 0x1F AND DUP3 ADD SWAP2 JUMPDEST POP POP POP SWAP2 DUP4 MSTORE POP POP PUSH1 0x3 DUP3 ADD SLOAD PUSH1 0x1 PUSH1 0x1 PUSH1 0xA0 SHL SUB AND PUSH1 0x20 DUP3 ADD MSTORE PUSH1 0x4 DUP3 ADD SLOAD PUSH1 0x40 DUP3 ADD MSTORE PUSH1 0x5 DUP3 ADD SLOAD PUSH1 0x60 DUP3 ADD MSTORE PUSH1 0x6 DUP3 ADD SLOAD PUSH1 0x80 DUP3 ADD MSTORE PUSH1 0x7 DUP3 ADD DUP1 SLOAD PUSH1 0xA0 SWAP1 SWAP3 ADD SWAP2 PUSH2 0x3322 SWAP1 PUSH2 0x3FC6 JUMP JUMPDEST DUP1 PUSH1 0x1F ADD PUSH1 0x20 DUP1 SWAP2 DIV MUL PUSH1 0x20 ADD PUSH1 0x40 MLOAD SWAP1 DUP2 ADD PUSH1 0x40 MSTORE DUP1 SWAP3 SWAP2 SWAP1 DUP2 DUP2 MSTORE PUSH1 0x20 ADD DUP3 DUP1 SLOAD PUSH2 0x334E SWAP1 PUSH2 0x3FC6 JUMP JUMPDEST DUP1 ISZERO PUSH2 0x339B JUMPI DUP1 PUSH1 0x1F LT PUSH2 0x3370 JUMPI PUSH2 0x100 DUP1 DUP4 SLOAD DIV MUL DUP4 MSTORE SWAP2 PUSH1 0x20 ADD SWAP2 PUSH2 0x339B JUMP JUMPDEST DUP3 ADD SWAP2 SWAP1 PUSH1 0x0 MSTORE PUSH1 0x20 PUSH1 0x0 KECCAK256 SWAP1 JUMPDEST DUP2 SLOAD DUP2 MSTORE SWAP1 PUSH1 0x1 ADD SWAP1 PUSH1 0x20 ADD DUP1 DUP4 GT PUSH2 0x337E JUMPI DUP3 SWAP1 SUB PUSH1 0x1F AND DUP3 ADD SWAP2 JUMPDEST POP POP POP SWAP2 DUP4 MSTORE POP POP PUSH1 0x8 DUP3 ADD SLOAD PUSH1 0x20 SWAP1 SWAP2 ADD SWAP1 PUSH1 0xFF AND PUSH1 0x4 DUP2 GT ISZERO PUSH2 0x33C2 JUMPI PUSH2 0x33C2 PUSH2 0x3D2D JUMP JUMPDEST PUSH1 0x4 DUP2 GT ISZERO PUSH2 0x33D3 JUMPI PUSH2 0x33D3 PUSH2 0x3D2D JUMP JUMPDEST DUP2 MSTORE PUSH1 0x8 SWAP2 SWAP1 SWAP2 ADD SLOAD PUSH2 0x100 SWAP1 DIV PUSH1 0xFF AND ISZERO ISZERO PUSH1 0x20 SWAP2 DUP3 ADD MSTORE DUP3 SLOAD PUSH1 0x40 DUP1 MLOAD DUP3 DUP5 MUL DUP2 ADD DUP5 ADD SWAP1 SWAP2 MSTORE DUP2 DUP2 MSTORE SWAP3 SWAP5 POP DUP4 SWAP2 PUSH1 0x0 SWAP1 DUP5 ADD JUMPDEST DUP3 DUP3 LT ISZERO PUSH2 0x361F JUMPI PUSH1 0x0 DUP5 DUP2 MSTORE PUSH1 0x20 SWAP1 DUP2 SWAP1 KECCAK256 PUSH1 0x40 DUP1 MLOAD PUSH1 0xC0 DUP2 ADD DUP3 MSTORE PUSH1 0x6 DUP7 MUL SWAP1 SWAP3 ADD DUP1 SLOAD PUSH1 0x1 PUSH1 0x1 PUSH1 0xA0 SHL SUB SWAP1 DUP2 AND DUP5 MSTORE PUSH1 0x1 DUP3 ADD SLOAD AND SWAP4 DUP4 ADD SWAP4 SWAP1 SWAP4 MSTORE PUSH1 0x2 DUP4 ADD DUP1 SLOAD SWAP3 SWAP4 SWAP3 SWAP2 DUP5 ADD SWAP2 PUSH2 0x3460 SWAP1 PUSH2 0x3FC6 JUMP JUMPDEST DUP1 PUSH1 0x1F ADD PUSH1 0x20 DUP1 SWAP2 DIV MUL PUSH1 0x20 ADD PUSH1 0x40 MLOAD SWAP1 DUP2 ADD PUSH1 0x40 MSTORE DUP1 SWAP3 SWAP2 SWAP1 DUP2 DUP2 MSTORE PUSH1 0x20 ADD DUP3 DUP1 SLOAD PUSH2 0x348C SWAP1 PUSH2 0x3FC6 JUMP JUMPDEST DUP1 ISZERO PUSH2 0x34D9 JUMPI DUP1 PUSH1 0x1F LT PUSH2 0x34AE JUMPI PUSH2 0x100 DUP1 DUP4 SLOAD DIV MUL DUP4 MSTORE SWAP2 PUSH1 0x20 ADD SWAP2 PUSH2 0x34D9 JUMP JUMPDEST DUP3 ADD SWAP2 SWAP1 PUSH1 0x0 MSTORE PUSH1 0x20 PUSH1 0x0 KECCAK256 SWAP1 JUMPDEST DUP2 SLOAD DUP2 MSTORE SWAP1 PUSH1 0x1 ADD SWAP1 PUSH1 0x20 ADD DUP1 DUP4 GT PUSH2 0x34BC JUMPI DUP3 SWAP1 SUB PUSH1 0x1F AND DUP3 ADD SWAP2 JUMPDEST POP POP POP POP POP DUP2 MSTORE PUSH1 0x20 ADD PUSH1 0x3 DUP3 ADD SLOAD DUP2 MSTORE PUSH1 0x20 ADD PUSH1 0x4 DUP3 ADD DUP1 SLOAD PUSH2 0x34FC SWAP1 PUSH2 0x3FC6 JUMP JUMPDEST DUP1 PUSH1 0x1F ADD PUSH1 0x20 DUP1 SWAP2 DIV MUL PUSH1 0x20 ADD PUSH1 0x40 MLOAD SWAP1 DUP2 ADD PUSH1 0x40 MSTORE DUP1 SWAP3 SWAP2 SWAP1 DUP2 DUP2 MSTORE PUSH1 0x20 ADD DUP3 DUP1 SLOAD PUSH2 0x3528 SWAP1 PUSH2 0x3FC6 JUMP JUMPDEST DUP1 ISZERO PUSH2 0x3575 JUMPI DUP1 PUSH1 0x1F LT PUSH2 0x354A JUMPI PUSH2 0x100 DUP1 DUP4 SLOAD DIV MUL DUP4 MSTORE SWAP2 PUSH1 0x20 ADD SWAP2 PUSH2 0x3575 JUMP JUMPDEST DUP3 ADD SWAP2 SWAP1 PUSH1 0x0 MSTORE PUSH1 0x20 PUSH1 0x0 KECCAK256 SWAP1 JUMPDEST DUP2 SLOAD DUP2 MSTORE SWAP1 PUSH1 0x1 ADD SWAP1 PUSH1 0x20 ADD DUP1 DUP4 GT PUSH2 0x3558 JUMPI DUP3 SWAP1 SUB PUSH1 0x1F AND DUP3 ADD SWAP2 JUMPDEST POP POP POP POP POP DUP2 MSTORE PUSH1 0x20 ADD PUSH1 0x5 DUP3 ADD DUP1 SLOAD PUSH2 0x358E SWAP1 PUSH2 0x3FC6 JUMP JUMPDEST DUP1 PUSH1 0x1F ADD PUSH1 0x20 DUP1 SWAP2 DIV MUL PUSH1 0x20 ADD PUSH1 0x40 MLOAD SWAP1 DUP2 ADD PUSH1 0x40 MSTORE DUP1 SWAP3 SWAP2 SWAP1 DUP2 DUP2 MSTORE PUSH1 0x20 ADD DUP3 DUP1 SLOAD PUSH2 0x35BA SWAP1 PUSH2 0x3FC6 JUMP JUMPDEST DUP1 ISZERO PUSH2 0x3607 JUMPI DUP1 PUSH1 0x1F LT PUSH2 0x35DC JUMPI PUSH2 0x100 DUP1 DUP4 SLOAD DIV MUL DUP4 MSTORE SWAP2 PUSH1 0x20 ADD SWAP2 PUSH2 0x3607 JUMP JUMPDEST DUP3 ADD SWAP2 SWAP1 PUSH1 0x0 MSTORE PUSH1 0x20 PUSH1 0x0 KECCAK256 SWAP1 JUMPDEST DUP2 SLOAD DUP2 MSTORE SWAP1 PUSH1 0x1 ADD SWAP1 PUSH1 0x20 ADD DUP1 DUP4 GT PUSH2 0x35EA JUMPI DUP3 SWAP1 SUB PUSH1 0x1F AND DUP3 ADD SWAP2 JUMPDEST POP POP POP POP POP DUP2 MSTORE POP POP DUP2 MSTORE PUSH1 0x20 ADD SWAP1 PUSH1 0x1 ADD SWAP1 PUSH2 0x340A JUMP JUMPDEST POP POP POP POP SWAP1 POP SWAP2 POP SWAP2 POP SWAP2 POP SWAP2 JUMP JUMPDEST PUSH2 0x3636 PUSH2 0x36B0 JUMP JUMPDEST PUSH1 0x1 PUSH1 0x1 PUSH1 0xA0 SHL SUB DUP2 AND PUSH2 0x3660 JUMPI PUSH1 0x40 MLOAD PUSH4 0x1E4FBDF7 PUSH1 0xE0 SHL DUP2 MSTORE PUSH1 0x0 PUSH1 0x4 DUP3 ADD MSTORE PUSH1 0x24 ADD PUSH2 0x50A JUMP JUMPDEST PUSH2 0x2B10 DUP2 PUSH2 0x3732 JUMP JUMPDEST PUSH1 0x0 SLOAD PUSH1 0x1 PUSH1 0xA0 SHL SWAP1 DIV PUSH1 0xFF AND ISZERO PUSH2 0x2B23 JUMPI PUSH1 0x40 MLOAD PUSH4 0xD93C0665 PUSH1 0xE0 SHL DUP2 MSTORE PUSH1 0x4 ADD PUSH1 0x40 MLOAD DUP1 SWAP2 SUB SWAP1 REVERT JUMPDEST PUSH2 0x369C PUSH2 0x37C5 JUMP JUMPDEST PUSH1 0x2 PUSH1 0x0 DUP1 MLOAD PUSH1 0x20 PUSH2 0x421A DUP4 CODECOPY DUP2 MLOAD SWAP2 MSTORE SSTORE JUMP JUMPDEST PUSH1 0x0 SLOAD PUSH1 0x1 PUSH1 0x1 PUSH1 0xA0 SHL SUB AND CALLER EQ PUSH2 0x2B23 JUMPI PUSH1 0x40 MLOAD PUSH4 0x118CDAA7 PUSH1 0xE0 SHL DUP2 MSTORE CALLER PUSH1 0x4 DUP3 ADD MSTORE PUSH1 0x24 ADD PUSH2 0x50A JUMP JUMPDEST PUSH2 0x36E5 PUSH2 0x37F5 JUMP JUMPDEST PUSH1 0x0 DUP1 SLOAD PUSH1 0xFF PUSH1 0xA0 SHL NOT AND SWAP1 SSTORE PUSH32 0x5DB9EE0A495BF2E6FF9C91A7834C1BA4FDD244A5E8AA4E537BD38AEAE4B073AA CALLER JUMPDEST PUSH1 0x40 MLOAD PUSH1 0x1 PUSH1 0x1 PUSH1 0xA0 SHL SUB SWAP1 SWAP2 AND DUP2 MSTORE PUSH1 0x20 ADD PUSH1 0x40 MLOAD DUP1 SWAP2 SUB SWAP1 LOG1 JUMP JUMPDEST PUSH1 0x0 DUP1 SLOAD PUSH1 0x1 PUSH1 0x1 PUSH1 0xA0 SHL SUB DUP4 DUP2 AND PUSH1 0x1 PUSH1 0x1 PUSH1 0xA0 SHL SUB NOT DUP4 AND DUP2 OR DUP5 SSTORE PUSH1 0x40 MLOAD SWAP2 SWAP1 SWAP3 AND SWAP3 DUP4 SWAP2 PUSH32 0x8BE0079C531659141344CD1FD0A4F28419497F9722A3DAAFE3B4186F6B6457E0 SWAP2 SWAP1 LOG3 POP POP JUMP JUMPDEST PUSH2 0x378A PUSH2 0x3669 JUMP JUMPDEST PUSH1 0x0 DUP1 SLOAD PUSH1 0xFF PUSH1 0xA0 SHL NOT AND PUSH1 0x1 PUSH1 0xA0 SHL OR SWAP1 SSTORE PUSH32 0x62E78CEA01BEE320CD4E420270B5EA74000D11B0C9F74754EBDBFC544B05A258 PUSH2 0x3715 CALLER SWAP1 JUMP JUMPDEST PUSH1 0x0 DUP1 MLOAD PUSH1 0x20 PUSH2 0x421A DUP4 CODECOPY DUP2 MLOAD SWAP2 MSTORE SLOAD PUSH1 0x2 SUB PUSH2 0x2B23 JUMPI PUSH1 0x40 MLOAD PUSH4 0x3EE5AEB5 PUSH1 0xE0 SHL DUP2 MSTORE PUSH1 0x4 ADD PUSH1 0x40 MLOAD DUP1 SWAP2 SUB SWAP1 REVERT JUMPDEST PUSH1 0x0 SLOAD PUSH1 0x1 PUSH1 0xA0 SHL SWAP1 DIV PUSH1 0xFF AND PUSH2 0x2B23 JUMPI PUSH1 0x40 MLOAD PUSH4 0x8DFC202B PUSH1 0xE0 SHL DUP2 MSTORE PUSH1 0x4 ADD PUSH1 0x40 MLOAD DUP1 SWAP2 SUB SWAP1 REVERT JUMPDEST PUSH1 0x40 MLOAD DUP1 PUSH2 0x140 ADD PUSH1 0x40 MSTORE DUP1 PUSH1 0x60 DUP2 MSTORE PUSH1 0x20 ADD PUSH1 0x60 DUP2 MSTORE PUSH1 0x20 ADD PUSH1 0x60 DUP2 MSTORE PUSH1 0x20 ADD PUSH1 0x0 PUSH1 0x1 PUSH1 0x1 PUSH1 0xA0 SHL SUB AND DUP2 MSTORE PUSH1 0x20 ADD PUSH1 0x0 DUP2 MSTORE PUSH1 0x20 ADD PUSH1 0x0 DUP2 MSTORE PUSH1 0x20 ADD PUSH1 0x0 DUP2 MSTORE PUSH1 0x20 ADD PUSH1 0x60 DUP2 MSTORE PUSH1 0x20 ADD PUSH1 0x0 PUSH1 0x4 DUP2 GT ISZERO PUSH2 0x387F JUMPI PUSH2 0x387F PUSH2 0x3D2D JUMP JUMPDEST DUP2 MSTORE PUSH1 0x0 PUSH1 0x20 SWAP1 SWAP2 ADD MSTORE SWAP1 JUMP JUMPDEST PUSH4 0x4E487B71 PUSH1 0xE0 SHL PUSH1 0x0 MSTORE PUSH1 0x41 PUSH1 0x4 MSTORE PUSH1 0x24 PUSH1 0x0 REVERT JUMPDEST PUSH1 0x0 DUP3 PUSH1 0x1F DUP4 ADD SLT PUSH2 0x38B3 JUMPI PUSH1 0x0 DUP1 REVERT JUMPDEST DUP2 CALLDATALOAD PUSH8 0xFFFFFFFFFFFFFFFF DUP1 DUP3 GT ISZERO PUSH2 0x38CE JUMPI PUSH2 0x38CE PUSH2 0x388C JUMP JUMPDEST PUSH1 0x40 MLOAD PUSH1 0x1F DUP4 ADD PUSH1 0x1F NOT SWAP1 DUP2 AND PUSH1 0x3F ADD AND DUP2 ADD SWAP1 DUP3 DUP3 GT DUP2 DUP4 LT OR ISZERO PUSH2 0x38F6 JUMPI PUSH2 0x38F6 PUSH2 0x388C JUMP JUMPDEST DUP2 PUSH1 0x40 MSTORE DUP4 DUP2 MSTORE DUP7 PUSH1 0x20 DUP6 DUP9 ADD ADD GT ISZERO PUSH2 0x390F JUMPI PUSH1 0x0 DUP1 REVERT JUMPDEST DUP4 PUSH1 0x20 DUP8 ADD PUSH1 0x20 DUP4 ADD CALLDATACOPY PUSH1 0x0 PUSH1 0x20 DUP6 DUP4 ADD ADD MSTORE DUP1 SWAP5 POP POP POP POP POP SWAP3 SWAP2 POP POP JUMP JUMPDEST DUP1 CALLDATALOAD PUSH1 0x1 PUSH1 0x1 PUSH1 0xA0 SHL SUB DUP2 AND DUP2 EQ PUSH2 0x3946 JUMPI PUSH1 0x0 DUP1 REVERT JUMPDEST SWAP2 SWAP1 POP JUMP JUMPDEST PUSH1 0x0 DUP1 PUSH1 0x0 DUP1 PUSH1 0x80 DUP6 DUP8 SUB SLT ISZERO PUSH2 0x3961 JUMPI PUSH1 0x0 DUP1 REVERT JUMPDEST DUP5 CALLDATALOAD PUSH8 0xFFFFFFFFFFFFFFFF DUP1 DUP3 GT ISZERO PUSH2 0x3979 JUMPI PUSH1 0x0 DUP1 REVERT JUMPDEST PUSH2 0x3985 DUP9 DUP4 DUP10 ADD PUSH2 0x38A2 JUMP JUMPDEST SWAP6 POP PUSH2 0x3993 PUSH1 0x20 DUP9 ADD PUSH2 0x392F JUMP JUMPDEST SWAP5 POP PUSH1 0x40 DUP8 ADD CALLDATALOAD SWAP2 POP DUP1 DUP3 GT ISZERO PUSH2 0x39A9 JUMPI PUSH1 0x0 DUP1 REVERT JUMPDEST PUSH2 0x39B5 DUP9 DUP4 DUP10 ADD PUSH2 0x38A2 JUMP JUMPDEST SWAP4 POP PUSH1 0x60 DUP8 ADD CALLDATALOAD SWAP2 POP DUP1 DUP3 GT ISZERO PUSH2 0x39CB JUMPI PUSH1 0x0 DUP1 REVERT JUMPDEST POP PUSH2 0x39D8 DUP8 DUP3 DUP9 ADD PUSH2 0x38A2 JUMP JUMPDEST SWAP2 POP POP SWAP3 SWAP6 SWAP2 SWAP5 POP SWAP3 POP JUMP JUMPDEST PUSH1 0x0 DUP1 PUSH1 0x0 DUP1 PUSH1 0x0 DUP1 PUSH1 0xC0 DUP8 DUP10 SUB SLT ISZERO PUSH2 0x39FD JUMPI PUSH1 0x0 DUP1 REVERT JUMPDEST DUP7 CALLDATALOAD PUSH8 0xFFFFFFFFFFFFFFFF DUP1 DUP3 GT ISZERO PUSH2 0x3A15 JUMPI PUSH1 0x0 DUP1 REVERT JUMPDEST PUSH2 0x3A21 DUP11 DUP4 DUP12 ADD PUSH2 0x38A2 JUMP JUMPDEST SWAP8 POP PUSH1 0x20 DUP10 ADD CALLDATALOAD SWAP2 POP DUP1 DUP3 GT ISZERO PUSH2 0x3A37 JUMPI PUSH1 0x0 DUP1 REVERT JUMPDEST PUSH2 0x3A43 DUP11 DUP4 DUP12 ADD PUSH2 0x38A2 JUMP JUMPDEST SWAP7 POP PUSH1 0x40 DUP10 ADD CALLDATALOAD SWAP2 POP DUP1 DUP3 GT ISZERO PUSH2 0x3A59 JUMPI PUSH1 0x0 DUP1 REVERT JUMPDEST PUSH2 0x3A65 DUP11 DUP4 DUP12 ADD PUSH2 0x38A2 JUMP JUMPDEST SWAP6 POP PUSH1 0x60 DUP10 ADD CALLDATALOAD SWAP5 POP PUSH1 0x80 DUP10 ADD CALLDATALOAD SWAP4 POP PUSH1 0xA0 DUP10 ADD CALLDATALOAD SWAP2 POP DUP1 DUP3 GT ISZERO PUSH2 0x3A89 JUMPI PUSH1 0x0 DUP1 REVERT JUMPDEST POP PUSH2 0x3A96 DUP10 DUP3 DUP11 ADD PUSH2 0x38A2 JUMP JUMPDEST SWAP2 POP POP SWAP3 SWAP6 POP SWAP3 SWAP6 POP SWAP3 SWAP6 JUMP JUMPDEST PUSH1 0x0 PUSH1 0x20 DUP3 DUP5 SUB SLT ISZERO PUSH2 0x3AB5 JUMPI PUSH1 0x0 DUP1 REVERT JUMPDEST DUP2 CALLDATALOAD PUSH8 0xFFFFFFFFFFFFFFFF DUP2 GT ISZERO PUSH2 0x3ACC JUMPI PUSH1 0x0 DUP1 REVERT JUMPDEST PUSH2 0x3AD8 DUP5 DUP3 DUP6 ADD PUSH2 0x38A2 JUMP JUMPDEST SWAP5 SWAP4 POP POP POP POP JUMP JUMPDEST PUSH1 0x0 JUMPDEST DUP4 DUP2 LT ISZERO PUSH2 0x3AFB JUMPI DUP2 DUP2 ADD MLOAD DUP4 DUP3 ADD MSTORE PUSH1 0x20 ADD PUSH2 0x3AE3 JUMP JUMPDEST POP POP PUSH1 0x0 SWAP2 ADD MSTORE JUMP JUMPDEST PUSH1 0x0 DUP2 MLOAD DUP1 DUP5 MSTORE PUSH2 0x3B1C DUP2 PUSH1 0x20 DUP7 ADD PUSH1 0x20 DUP7 ADD PUSH2 0x3AE0 JUMP JUMPDEST PUSH1 0x1F ADD PUSH1 0x1F NOT AND SWAP3 SWAP1 SWAP3 ADD PUSH1 0x20 ADD SWAP3 SWAP2 POP POP JUMP JUMPDEST DUP4 ISZERO ISZERO DUP2 MSTORE PUSH1 0x60 PUSH1 0x20 DUP3 ADD MSTORE PUSH1 0x0 PUSH2 0x3B4B PUSH1 0x60 DUP4 ADD DUP6 PUSH2 0x3B04 JUMP JUMPDEST SWAP1 POP DUP3 PUSH1 0x40 DUP4 ADD MSTORE SWAP5 SWAP4 POP POP POP POP JUMP JUMPDEST PUSH1 0x0 DUP1 PUSH1 0x40 DUP4 DUP6 SUB SLT ISZERO PUSH2 0x3B6E JUMPI PUSH1 0x0 DUP1 REVERT JUMPDEST DUP3 CALLDATALOAD PUSH8 0xFFFFFFFFFFFFFFFF DUP1 DUP3 GT ISZERO PUSH2 0x3B86 JUMPI PUSH1 0x0 DUP1 REVERT JUMPDEST PUSH2 0x3B92 DUP7 DUP4 DUP8 ADD PUSH2 0x38A2 JUMP JUMPDEST SWAP4 POP PUSH1 0x20 DUP6 ADD CALLDATALOAD SWAP2 POP DUP1 DUP3 GT ISZERO PUSH2 0x3BA8 JUMPI PUSH1 0x0 DUP1 REVERT JUMPDEST POP PUSH2 0x3BB5 DUP6 DUP3 DUP7 ADD PUSH2 0x38A2 JUMP JUMPDEST SWAP2 POP POP SWAP3 POP SWAP3 SWAP1 POP JUMP JUMPDEST PUSH1 0x20 DUP2 MSTORE PUSH1 0x0 PUSH2 0x3BD2 PUSH1 0x20 DUP4 ADD DUP5 PUSH2 0x3B04 JUMP JUMPDEST SWAP4 SWAP3 POP POP POP JUMP JUMPDEST PUSH1 0x0 PUSH1 0x20 DUP3 DUP5 SUB SLT ISZERO PUSH2 0x3BEB JUMPI PUSH1 0x0 DUP1 REVERT JUMPDEST POP CALLDATALOAD SWAP2 SWAP1 POP JUMP JUMPDEST PUSH1 0x0 DUP2 MLOAD DUP1 DUP5 MSTORE PUSH1 0x20 DUP1 DUP6 ADD DUP1 DUP2 SWAP7 POP DUP4 PUSH1 0x5 SHL DUP2 ADD SWAP2 POP DUP3 DUP7 ADD PUSH1 0x0 JUMPDEST DUP6 DUP2 LT ISZERO PUSH2 0x3CAB JUMPI DUP3 DUP5 SUB DUP10 MSTORE DUP2 MLOAD DUP1 MLOAD PUSH1 0x1 PUSH1 0x1 PUSH1 0xA0 SHL SUB SWAP1 DUP2 AND DUP7 MSTORE DUP7 DUP3 ADD MLOAD AND DUP7 DUP7 ADD MSTORE PUSH1 0x40 DUP1 DUP3 ADD MLOAD PUSH1 0xC0 DUP3 DUP9 ADD DUP2 SWAP1 MSTORE SWAP2 SWAP1 PUSH2 0x3C53 DUP4 DUP10 ADD DUP3 PUSH2 0x3B04 JUMP JUMPDEST SWAP3 POP POP POP PUSH1 0x60 DUP1 DUP4 ADD MLOAD DUP2 DUP9 ADD MSTORE POP PUSH1 0x80 DUP1 DUP4 ADD MLOAD DUP8 DUP4 SUB DUP3 DUP10 ADD MSTORE PUSH2 0x3C79 DUP4 DUP3 PUSH2 0x3B04 JUMP JUMPDEST SWAP3 POP POP POP PUSH1 0xA0 DUP1 DUP4 ADD MLOAD SWAP3 POP DUP7 DUP3 SUB DUP2 DUP9 ADD MSTORE POP PUSH2 0x3C97 DUP2 DUP4 PUSH2 0x3B04 JUMP JUMPDEST SWAP11 DUP8 ADD SWAP11 SWAP6 POP POP POP SWAP1 DUP5 ADD SWAP1 PUSH1 0x1 ADD PUSH2 0x3C10 JUMP JUMPDEST POP SWAP2 SWAP8 SWAP7 POP POP POP POP POP POP POP JUMP JUMPDEST PUSH1 0x20 DUP2 MSTORE PUSH1 0x0 PUSH2 0x3BD2 PUSH1 0x20 DUP4 ADD DUP5 PUSH2 0x3BF2 JUMP JUMPDEST PUSH1 0x0 PUSH1 0x20 DUP1 DUP4 ADD DUP2 DUP5 MSTORE DUP1 DUP6 MLOAD DUP1 DUP4 MSTORE PUSH1 0x40 DUP7 ADD SWAP2 POP PUSH1 0x40 DUP2 PUSH1 0x5 SHL DUP8 ADD ADD SWAP3 POP DUP4 DUP8 ADD PUSH1 0x0 JUMPDEST DUP3 DUP2 LT ISZERO PUSH2 0x3D20 JUMPI PUSH1 0x3F NOT DUP9 DUP7 SUB ADD DUP5 MSTORE PUSH2 0x3D0E DUP6 DUP4 MLOAD PUSH2 0x3B04 JUMP JUMPDEST SWAP5 POP SWAP3 DUP6 ADD SWAP3 SWAP1 DUP6 ADD SWAP1 PUSH1 0x1 ADD PUSH2 0x3CF2 JUMP JUMPDEST POP SWAP3 SWAP8 SWAP7 POP POP POP POP POP POP POP JUMP JUMPDEST PUSH4 0x4E487B71 PUSH1 0xE0 SHL PUSH1 0x0 MSTORE PUSH1 0x21 PUSH1 0x4 MSTORE PUSH1 0x24 PUSH1 0x0 REVERT JUMPDEST PUSH1 0x5 DUP2 LT PUSH2 0x3D61 JUMPI PUSH4 0x4E487B71 PUSH1 0xE0 SHL PUSH1 0x0 MSTORE PUSH1 0x21 PUSH1 0x4 MSTORE PUSH1 0x24 PUSH1 0x0 REVERT JUMPDEST SWAP1 MSTORE JUMP JUMPDEST PUSH1 0x40 DUP2 MSTORE PUSH1 0x0 DUP4 MLOAD PUSH2 0x140 DUP1 PUSH1 0x40 DUP6 ADD MSTORE PUSH2 0x3D84 PUSH2 0x180 DUP6 ADD DUP4 PUSH2 0x3B04 JUMP JUMPDEST SWAP2 POP PUSH1 0x20 DUP7 ADD MLOAD PUSH1 0x3F NOT DUP1 DUP7 DUP6 SUB ADD PUSH1 0x60 DUP8 ADD MSTORE PUSH2 0x3DA2 DUP5 DUP4 PUSH2 0x3B04 JUMP JUMPDEST SWAP4 POP PUSH1 0x40 DUP9 ADD MLOAD SWAP2 POP DUP1 DUP7 DUP6 SUB ADD PUSH1 0x80 DUP8 ADD MSTORE PUSH2 0x3DBF DUP5 DUP4 PUSH2 0x3B04 JUMP JUMPDEST SWAP4 POP PUSH1 0x60 DUP9 ADD MLOAD SWAP2 POP PUSH2 0x3DDD PUSH1 0xA0 DUP8 ADD DUP4 PUSH1 0x1 PUSH1 0x1 PUSH1 0xA0 SHL SUB AND SWAP1 MSTORE JUMP JUMPDEST PUSH1 0x80 DUP9 ADD MLOAD PUSH1 0xC0 DUP8 ADD MSTORE PUSH1 0xA0 DUP9 ADD MLOAD PUSH1 0xE0 DUP8 ADD MSTORE PUSH1 0xC0 DUP9 ADD MLOAD SWAP2 POP PUSH2 0x100 DUP3 DUP2 DUP9 ADD MSTORE PUSH1 0xE0 DUP10 ADD MLOAD SWAP3 POP PUSH2 0x120 DUP3 DUP9 DUP8 SUB ADD DUP2 DUP10 ADD MSTORE PUSH2 0x3E1D DUP7 DUP6 PUSH2 0x3B04 JUMP JUMPDEST SWAP6 POP DUP2 DUP11 ADD MLOAD SWAP4 POP PUSH2 0x3E31 DUP6 DUP10 ADD DUP6 PUSH2 0x3D43 JUMP JUMPDEST DUP10 ADD MLOAD DUP1 ISZERO ISZERO PUSH2 0x160 DUP10 ADD MSTORE SWAP4 POP PUSH2 0x3E48 SWAP3 POP POP POP JUMP JUMPDEST POP DUP3 DUP2 SUB PUSH1 0x20 DUP5 ADD MSTORE PUSH2 0x3E5B DUP2 DUP6 PUSH2 0x3BF2 JUMP JUMPDEST SWAP6 SWAP5 POP POP POP POP POP JUMP JUMPDEST PUSH1 0x0 PUSH1 0x20 DUP3 DUP5 SUB SLT ISZERO PUSH2 0x3E76 JUMPI PUSH1 0x0 DUP1 REVERT JUMPDEST PUSH2 0x3BD2 DUP3 PUSH2 0x392F JUMP JUMPDEST PUSH1 0x0 PUSH1 0x20 DUP3 DUP5 SUB SLT ISZERO PUSH2 0x3E91 JUMPI PUSH1 0x0 DUP1 REVERT JUMPDEST POP MLOAD SWAP2 SWAP1 POP JUMP JUMPDEST PUSH1 0x0 PUSH1 0x20 DUP3 DUP5 SUB SLT ISZERO PUSH2 0x3EAA JUMPI PUSH1 0x0 DUP1 REVERT JUMPDEST DUP2 MLOAD DUP1 ISZERO ISZERO DUP2 EQ PUSH2 0x3BD2 JUMPI PUSH1 0x0 DUP1 REVERT JUMPDEST PUSH1 0x0 DUP3 MLOAD PUSH2 0x3ECC DUP2 DUP5 PUSH1 0x20 DUP8 ADD PUSH2 0x3AE0 JUMP JUMPDEST SWAP2 SWAP1 SWAP2 ADD SWAP3 SWAP2 POP POP JUMP JUMPDEST PUSH1 0x20 DUP1 DUP3 MSTORE PUSH1 0x1F SWAP1 DUP3 ADD MSTORE PUSH32 0x4D656469436861696E3A20626174636820646F6573206E6F7420657869737400 PUSH1 0x40 DUP3 ADD MSTORE PUSH1 0x60 ADD SWAP1 JUMP JUMPDEST PUSH1 0x20 DUP1 DUP3 MSTORE PUSH1 0x22 SWAP1 DUP3 ADD MSTORE PUSH32 0x4D656469436861696E3A20626174636820686173206265656E20726563616C6C PUSH1 0x40 DUP3 ADD MSTORE PUSH2 0x1959 PUSH1 0xF2 SHL PUSH1 0x60 DUP3 ADD MSTORE PUSH1 0x80 ADD SWAP1 JUMP JUMPDEST PUSH1 0x20 DUP1 DUP3 MSTORE PUSH1 0x28 SWAP1 DUP3 ADD MSTORE PUSH32 0x4D656469436861696E3A2063616C6C6572206973206E6F742074686520626174 PUSH1 0x40 DUP3 ADD MSTORE PUSH8 0x31B41037BBB732B9 PUSH1 0xC1 SHL PUSH1 0x60 DUP3 ADD MSTORE PUSH1 0x80 ADD SWAP1 JUMP JUMPDEST PUSH4 0x4E487B71 PUSH1 0xE0 SHL PUSH1 0x0 MSTORE PUSH1 0x11 PUSH1 0x4 MSTORE PUSH1 0x24 PUSH1 0x0 REVERT JUMPDEST PUSH1 0x0 PUSH1 0x1 DUP3 ADD PUSH2 0x3FBF JUMPI PUSH2 0x3FBF PUSH2 0x3F97 JUMP JUMPDEST POP PUSH1 0x1 ADD SWAP1 JUMP JUMPDEST PUSH1 0x1 DUP2 DUP2 SHR SWAP1 DUP3 AND DUP1 PUSH2 0x3FDA JUMPI PUSH1 0x7F DUP3 AND SWAP2 POP JUMPDEST PUSH1 0x20 DUP3 LT DUP2 SUB PUSH2 0x2F18 JUMPI PUSH4 0x4E487B71 PUSH1 0xE0 SHL PUSH1 0x0 MSTORE PUSH1 0x22 PUSH1 0x4 MSTORE PUSH1 0x24 PUSH1 0x0 REVERT JUMPDEST PUSH1 0x1F DUP3 GT ISZERO PUSH2 0x4040 JUMPI PUSH1 0x0 DUP2 DUP2 MSTORE PUSH1 0x20 DUP2 KECCAK256 PUSH1 0x1F DUP6 ADD PUSH1 0x5 SHR DUP2 ADD PUSH1 0x20 DUP7 LT ISZERO PUSH2 0x4021 JUMPI POP DUP1 JUMPDEST PUSH1 0x1F DUP6 ADD PUSH1 0x5 SHR DUP3 ADD SWAP2 POP JUMPDEST DUP2 DUP2 LT ISZERO PUSH2 0x122E JUMPI DUP3 DUP2 SSTORE PUSH1 0x1 ADD PUSH2 0x402D JUMP JUMPDEST POP POP POP JUMP JUMPDEST DUP2 MLOAD PUSH8 0xFFFFFFFFFFFFFFFF DUP2 GT ISZERO PUSH2 0x405F JUMPI PUSH2 0x405F PUSH2 0x388C JUMP JUMPDEST PUSH2 0x4073 DUP2 PUSH2 0x406D DUP5 SLOAD PUSH2 0x3FC6 JUMP JUMPDEST DUP5 PUSH2 0x3FFA JUMP JUMPDEST PUSH1 0x20 DUP1 PUSH1 0x1F DUP4 GT PUSH1 0x1 DUP2 EQ PUSH2 0x40A8 JUMPI PUSH1 0x0 DUP5 ISZERO PUSH2 0x4090 JUMPI POP DUP6 DUP4 ADD MLOAD JUMPDEST PUSH1 0x0 NOT PUSH1 0x3 DUP7 SWAP1 SHL SHR NOT AND PUSH1 0x1 DUP6 SWAP1 SHL OR DUP6 SSTORE PUSH2 0x122E JUMP JUMPDEST PUSH1 0x0 DUP6 DUP2 MSTORE PUSH1 0x20 DUP2 KECCAK256 PUSH1 0x1F NOT DUP7 AND SWAP2 JUMPDEST DUP3 DUP2 LT ISZERO PUSH2 0x40D7 JUMPI DUP9 DUP7 ADD MLOAD DUP3 SSTORE SWAP5 DUP5 ADD SWAP5 PUSH1 0x1 SWAP1 SWAP2 ADD SWAP1 DUP5 ADD PUSH2 0x40B8 JUMP JUMPDEST POP DUP6 DUP3 LT ISZERO PUSH2 0x40F5 JUMPI DUP8 DUP6 ADD MLOAD PUSH1 0x0 NOT PUSH1 0x3 DUP9 SWAP1 SHL PUSH1 0xF8 AND SHR NOT AND DUP2 SSTORE JUMPDEST POP POP POP POP POP PUSH1 0x1 SWAP1 DUP2 SHL ADD SWAP1 SSTORE POP JUMP JUMPDEST PUSH1 0x20 DUP2 ADD PUSH2 0x4113 DUP3 DUP5 PUSH2 0x3D43 JUMP JUMPDEST SWAP3 SWAP2 POP POP JUMP JUMPDEST PUSH1 0x20 DUP1 DUP3 MSTORE PUSH1 0x27 SWAP1 DUP3 ADD MSTORE PUSH32 0x4D656469436861696E3A2063616C6C6572206973206E6F742061206D616E7566 PUSH1 0x40 DUP3 ADD MSTORE PUSH7 0x30B1BA3AB932B9 PUSH1 0xC9 SHL PUSH1 0x60 DUP3 ADD MSTORE PUSH1 0x80 ADD SWAP1 JUMP JUMPDEST PUSH20 0x2130BA31B4103932B3B4B9BA32B932B210313C9 PUSH1 0x65 SHL DUP2 MSTORE PUSH1 0x0 DUP3 MLOAD PUSH2 0x418F DUP2 PUSH1 0x14 DUP6 ADD PUSH1 0x20 DUP8 ADD PUSH2 0x3AE0 JUMP JUMPDEST SWAP2 SWAP1 SWAP2 ADD PUSH1 0x14 ADD SWAP3 SWAP2 POP POP JUMP JUMPDEST DUP2 DUP2 SUB DUP2 DUP2 GT ISZERO PUSH2 0x4113 JUMPI PUSH2 0x4113 PUSH2 0x3F97 JUMP JUMPDEST PUSH4 0x4E487B71 PUSH1 0xE0 SHL PUSH1 0x0 MSTORE PUSH1 0x32 PUSH1 0x4 MSTORE PUSH1 0x24 PUSH1 0x0 REVERT JUMPDEST PUSH10 0x2922A1A0A62622A21D1 PUSH1 0xB5 SHL DUP2 MSTORE PUSH1 0x0 DUP3 MLOAD PUSH2 0x41EA DUP2 PUSH1 0xA DUP6 ADD PUSH1 0x20 DUP8 ADD PUSH2 0x3AE0 JUMP JUMPDEST SWAP2 SWAP1 SWAP2 ADD PUSH1 0xA ADD SWAP3 SWAP2 POP POP JUMP JUMPDEST PUSH1 0x40 DUP2 MSTORE PUSH1 0x0 PUSH2 0x420A PUSH1 0x40 DUP4 ADD DUP6 PUSH2 0x3B04 JUMP JUMPDEST SWAP1 POP DUP3 PUSH1 0x20 DUP4 ADD MSTORE SWAP4 SWAP3 POP POP POP JUMP INVALID SWAP12 PUSH24 0x9B17422D0DF92223018B32B4D1FA46E071723D6817E2486D STOP EXTCODESIZE 0xEC 0xC5 PUSH0 STOP LOG2 PUSH5 0x6970667358 0x22 SLT KECCAK256 0xE5 JUMPDEST PUSH11 0x2C6D6CA10FF555D35687DF LOG4 0xCE 0xBF DUP4 0xBF 0xC7 0xDE 0xAB 0xA6 0xE8 DUP5 0xE5 0xF9 PUSH15 0xA72CCC3064736F6C63430008140033 "},"methodIdentifiers":{"batchExists(string)":"e7903988","getAllBatchIds()":"bce06947","getBatchHistory(string)":"a252d8a7","getBatchIdAt(uint256)":"9ecf3007","getBatchOwner(string)":"c3c8529d","getRecallReason(string)":"7ef0a667","getStats()":"c59d4847","getTotalBatches()":"e561dddc","isBatchGenuine(string)":"0ec13f3b","markAsSold(string)":"2d588bc5","owner()":"8da5cb5b","pause()":"8456cb59","paused()":"5c975abb","recallBatch(string,string)":"123ecac8","registerBatch(string,string,string,uint256,uint256,string)":"06ef6d2e","renounceOwnership()":"715018a6","roleManager()":"00435da5","totalBatches()":"69ff6abb","totalRecalls()":"6cc3c9ac","totalTransfers()":"3bf47720","transferOwnership(address)":"f2fde38b","transferToDistributor(string,address,string,string)":"1ac7fbd7","transferToPharmacy(string,address,string,string)":"043b62ec","unpause()":"3f4ba83a","verifyBatch(string)":"e906dc42"}}}}}